:020000040000FA
:100000000C94E6020C940E030C940E030C94380925
:100010000C940E030C940E030C940E030C940E031C
:100020000C940E030C940E030C940E030C940E030C
:100030000C940E030C940E030C940E030C940E03FC
:100040000C94EE080C940E030C940E030C940E0307
:100050000C940E030C940F0A0C940E030C940E03D4
:100060000C940E030C940E0301020408102040802F
:1000700000000000003E5B4F5B3E3E6B4F6B3E1C42
:100080003E7C3E1C183C7E3C181C577D571C1C5E59
:100090007F5E1C00183C1800FFE7C3E7FF00182430
:1000A0001800FFE7DBE7FF30483A060E26297929DA
:1000B00026407F050507407F05253F5A3CE73C5A0F
:1000C0007F3E1C1C08081C1C3E7F14227F22145FEC
:1000D0005F005F5F06097F017F006689956A606047
:1000E00060606094A2FFA29408047E040810207E41
:1000F000201008082A1C08081C2A08081E101010C6
:10010000100C1E0C1E0C30383E3830060E3E0E060B
:10011000000000000000005F00000007000700145E
:100120007F147F14242A7F2A12231308646236491D
:100130005620500008070300001C22410000412205
:100140001C002A1C7F1C2A08083E0808008070300A
:100150000008080808080000606000201008040279
:100160003E5149453E00427F40007249494946217F
:1001700041494D331814127F1027454545393C4AF3
:10018000494931412111090736494949364649490A
:10019000291E000014000000403400000008142252
:1001A00041141414141400412214080201590906C0
:1001B0003E415D594E7C1211127C7F494949363EC1
:1001C000414141227F4141413E7F494949417F09A7
:1001D0000909013E414151737F0808087F00417FB2
:1001E00041002040413F017F081422417F404040B0
:1001F000407F021C027F7F0408107F3E4141413E48
:100200007F090909063E4151215E7F0919294626C9
:100210004949493203017F01033F4040403F1F20CD
:1002200040201F3F4038403F6314081463030478A4
:1002300004036159494D43007F41414102040810C4
:1002400020004141417F04020102044040404040FF
:10025000000307080020545478407F28444438386D
:1002600044444428384444287F38545454180008DF
:100270007E090218A4A49C787F0804047800447DB9
:1002800040002040403D007F1028440000417F4056
:10029000007C047804787C080404783844444438AA
:1002A000FC1824241818242418FC7C08040408488A
:1002B0005454542404043F44243C4040207C1C20DB
:1002C00040201C3C4030403C44281028444C909036
:1002D000907C4464544C4400083641000000770090
:1002E00000004136080002010204023C2623263C9D
:1002F0001EA1A161123A4040207A38545455592128
:100300005555794121545478412155547840205411
:100310005579400C1E52721239555555593954545D
:10032000545939555454580000457C410002457DCC
:10033000420001457C40F0292429F0F0282528F0CE
:100340007C545545002054547C547C0A097F493222
:10035000494949323248484832324A4848303A419D
:1003600041217A3A42402078009DA0A07D39444442
:1003700044393D4040403D3C24FF2424487E4943CD
:10038000662B2FFC2F2BFF0929F620C0887E09033E
:1003900020545479410000447D413048484A323865
:1003A0004040227A007A0A0A727D0D19317D262991
:1003B000292F28262929292630484D402038080889
:1003C000080808080808382F10C8ACBA2F102834BD
:1003D000FA00007B000008142A142222142A1408B0
:1003E0009500220095AA005500AAAA55AA55AA0070
:1003F0000000FF00101010FF00141414FF00101074
:10040000FF00FF1010F010F0141414FC001414F787
:1004100000FF0000FF00FF1414F404FC1414171074
:100420001F10101F101F1414141F00101010F000C4
:100430000000001F101010101F10101010F01000FE
:100440000000FF101010101010101010FF1000000E
:1004500000FF140000FF00FF00001F10170000FC49
:1004600004F414141710171414F404F40000FF001B
:10047000F714141414141414F700F71414141714A4
:1004800010101F101F141414F4141010F010F000AA
:10049000001F101F0000001F14000000FC140000CB
:1004A000F010F01010FF10FF141414FF14101010AF
:1004B0001F00000000F010FFFFFFFFFFF0F0F0F062
:1004C000F0FFFFFF0000000000FFFF0F0F0F0F0FF6
:1004D00038444438447C2A2A3E147E02020606022E
:1004E0007E027E0263554941633844443C04407EA9
:1004F000201E2006027E020299A5E7A5991C2A4922
:100500002A1C4C7201724C304A4D4D3030487848AC
:1005100030BC625A463D3E494949007E0101017E98
:100520002A2A2A2A2A44445F444440514A444040EB
:10053000444A51400000FF0103E080FF000008082A
:100540006B6B083612362436060F090F06000018AA
:10055000180000001010003040FF0101001F0101D1
:100560001E00191D1712003C3C3C3C00000000001E
:1005700000000000230026002900000000002400E5
:1005800027002A0000000000250028002B0004049A
:10059000040404040404020202020202030303032B
:1005A0000303010204081020408001020408102007
:1005B00001020408102000000008000201000003EE
:1005C00004070000000000000000231111241FBEDA
:1005D000CFEFD8E0DEBFCDBF11E0A0E0B1E0ECEBA3
:1005E000F8E202C005900D92A439B107D9F726E0D0
:1005F000A4E9B1E001C01D92A532B207E1F712E013
:10060000C6EED2E004C02197FE010E945114C53EFF
:10061000D107C9F70E94100A0C945C140C940000D6
:100620004F925F926F927F928F929F92AF92BF9202
:10063000CF92DF92EF92FF920F931F93CF93DF93AE
:1006400000D000D0CDB7DEB74B015C0129013A01E3
:10065000E982FA820B831C83D0920406C0920306BF
:1006600081E0CA94CD2809F080E08093240680922E
:10067000E9059092EA05A092EB05B092EC05409254
:10068000ED055092EE056092EF057092F0058981BC
:100690009A81AB81BC818093F1059093F205A09380
:1006A000F305B093F40560911706709118068091D8
:1006B000190690911A060E941D1320E030E04AE7C7
:1006C00054E40E9475126B017C018092F5059092B2
:1006D000F605A092F705B092F805AC019B01C301A5
:1006E000B2010E94D4132B013C014092F9055092B3
:1006F000FA056092FB057092FC05A70196016981DD
:100700007A818B819C810E9475126B017C01C09261
:10071000FD05D092FE05E092FF05F0920006809163
:10072000010690910206019769F5A501940160E028
:1007300070E0CB010E9403126093F5057093F605FB
:100740008093F7059093F805A301920160E070E0B3
:10075000CB010E9403126093F9057093FA05809310
:10076000FB059093FC05A701960160E070E0CB01CA
:100770000E9403126093FD057093FE058093FF05B0
:10078000909300060F900F900F900F90DF91CF91F4
:100790001F910F91FF90EF90DF90CF90BF90AF909F
:1007A0009F908F907F906F905F904F9008958330CF
:1007B00081F028F4813099F08230A9F008958730D3
:1007C000A9F08830C9F08430B1F4809180008F7D29
:1007D00003C0809180008F7780938000089584B556
:1007E0008F7784BD089584B58F7DFBCF8091B00055
:1007F0008F778093B00008958091B0008F7DF9CFFE
:100800001F93CF93DF93282F30E0F901EA54FA4F7A
:100810008491F901EE55FA4FD491F901E257FA4F5C
:10082000C491CC23A9F0162F81110E94D703EC2F7D
:10083000F0E0EE0FFF1FEC57FA4FA591B4918FB780
:10084000F894EC91111108C0D095DE23DC938FBF92
:10085000DF91CF911F910895DE2BF8CFCF93DF93D7
:1008600090E0FC01EE55FA4F249182579A4FFC011B
:1008700084918823C9F090E0880F991FFC01E65805
:10088000FA4FA591B491FC01EC57FA4FC591D49160
:1008900061110DC09FB7F8948C91209582238C93A1
:1008A0008881282328839FBFDF91CF9108956230EC
:1008B00051F49FB7F8943C91822F809583238C93B9
:1008C000E8812E2BEFCF8FB7F894EC912E2B2C9341
:1008D0008FBFEACFCF93DF93EC0161E089E00E9404
:1008E0002E04209731F460E089E0DF91CF910C94E1
:1008F0000004CF3FD10511F461E0F6CFEFEBF5E056
:10090000E491E33029F140F4E130B1F0E230D9F084
:10091000C038D1058CF7E7CFE73021F1E83051F14D
:10092000E430B1F780918000806280938000D093A2
:100930008B00C0938A0004C084B5806884BDC7BDA5
:10094000DF91CF91089584B5806284BDC8BDF8CF92
:1009500080918000806880938000D0938900C0934C
:100960008800EECF8091B00080688093B000C09383
:10097000B300E6CF8091B00080628093B000C09356
:10098000B400DECF3FB7F8948091E5059091E6057D
:10099000A091E705B091E80526B5A89B05C02F3FBB
:1009A00019F00196A11DB11D3FBFBA2FA92F982F95
:1009B0008827BC01CD01620F711D811D911D42E090
:1009C000660F771F881F991F4A95D1F708958F9258
:1009D0009F92AF92BF92CF92DF92EF92FF924B0124
:1009E0005C010E94C2046B017C010E94C2046C196C
:1009F0007D098E099F09683E734081059105A8F322
:100A000021E0821A9108A108B10888EEC80E83E09F
:100A1000D81EE11CF11C81149104A104B10429F732
:100A2000FF90EF90DF90CF90BF90AF909F908F900E
:100A300008952FB7F8946091E1057091E2058091D7
:100A4000E3059091E4052FBF0895AF92BF92CF9236
:100A5000DF92EF92FF920F931F93CF93DF936C017E
:100A60007B018B01040F151FEB015E01AE18BF085F
:100A7000C017D10759F06991D601ED91FC91019011
:100A8000F081E02DC6010995892B79F7C501DF9129
:100A9000CF911F910F91FF90EF90DF90CF90BF907B
:100AA000AF9008952F923F924F925F926F927F92F4
:100AB0008F929F92AF92BF92CF92DF92EF92FF926E
:100AC0000F931F93CF93DF93CDB7DEB728970FB661
:100AD000F894DEBF0FBECDBF9E838D836A3061F573
:100AE000DC0152968C91B8E08B9F90011124ED812E
:100AF000FE8186859785820F931F97878687158647
:100B0000148681E090E028960FB6F894DEBF0FBE01
:100B1000CDBFDF91CF911F910F91FF90EF90DF90AC
:100B2000CF90BF90AF909F908F907F906F905F908D
:100B30004F903F902F9008956D3019F3AD81BE8195
:100B400052967C9152971C962D913C911D97E72EC1
:100B5000F12C203831050CF08DC01E966D907C90E4
:100B6000B0E46B1671040CF085C085E0A901789F94
:100B7000400D511D1124141615060CF07BC0A70161
:100B800013E0440F551F1A95E1F7460D571D141633
:100B900015060CF06FC0ED81FE81F189F983AD81FE
:100BA000BE815096BC91BA83689FC0011124FC019C
:100BB000E059FF4F2F01890160E0F2018491653017
:100BC00009F480E01301B8E09B2EA82EB12CBC8262
:100BD000AB828A8080FF8980811005C0B9804A81FC
:100BE000B41609F435C0A8014F83842F801B8717E2
:100BF00078F5D12CC12CC71640F540385105E0F4EA
:100C0000C601820D931D80349105B0F4E8E6F0E052
:100C1000A0E1AA2EBF80A89ED001A0781124AB0D20
:100C20008770E80FF11DA490A886A855BE4F8820B4
:100C300039F08C91A82AAC928FEFC81AD80ADBCF72
:100C4000A884A0948C91A822F6CF4F5F5F4FCCCFA1
:100C50008B819C81959587959A942E0C3F1C9110C1
:100C6000B4CF6F5F9FEF491A590A0E0D1F1D6630F2
:100C700009F0A3CFA6E07A9F200D311D1124ED814C
:100C8000FE81358724878389882309F43ACF4AEF88
:100C9000B7014603C001479F900D112480589F4F14
:100CA000821793070CF02DCFCF010190F081E02D3A
:100CB0000190F081E02D6AE0099523CF089590E03E
:100CC00080E0089590917A00906990937A008E5018
:100CD000806480937C0083B7817F826083BF20E241
:100CE00090E080E033B7316033BF889533B73E7F03
:100CF00033BF30917A0036FDFCCF4091780050919F
:100D00007900840F951F215069F720917A002F7781
:100D100020937A0025E0969587952A95E1F7089526
:100D20008FE00E946206A091B005B091B1059C01D0
:100D30000E94F4110E941F1328E539E743E353E4AE
:100D40000E9475120E94EE12CB0108950F931F931B
:100D5000CF9380917201882399F0CFEF0FEE11E0CD
:100D600061E085E00E940004C8010197F1F760E0AE
:100D700085E00E940004C8010197F1F7C15081F796
:100D8000CF911F910F9108954F925F926F927F9232
:100D90008F929F92AF92BF92CF92DF92EF92FF928B
:100DA000CF93DF938090C2059090C305A090C405B7
:100DB000B090C505C091AC05D0E0C501B4010E945A
:100DC000E7126B017C0120E030E048E453E4C50108
:100DD000B4010E94701293E0CC0FDD1F9A95E1F7E9
:100DE000C050DF4F87FF31C02881398150E040E09B
:100DF0002551310941095109C701B6010E94411429
:100E000028EC30E040E050E00E94A811CA01B9018E
:100E10006B5E7F4F8F4F9F4F0E941F136093D005D3
:100E20007093D1058093D2059093D305DF91CF9134
:100E3000FF90EF90DF90CF90BF90AF909F908F90FA
:100E40007F906F905F904F9008954A805B80712CE7
:100E5000612C20E030E04CE853E4C501B4010E946D
:100E6000701287FF1FC088809980B12CA12CA70128
:100E70009601285C310941095109C301B201681981
:100E800079098A099B090E94411420E530E040E07D
:100E900050E00E94A811CA01B901680D791D8A1D90
:100EA0009B1DBACF2C813D8150E040E024193509CB
:100EB00046095709C701B601685171408109910976
:100EC0000E94411420E530E040E050E00E94A8116B
:100ED000CA01B901640D751D861D971D9DCF0E9425
:100EE00057141F93CF93DF93EC01162F0E9492119A
:100EF000181739F0612FCE01DF91CF911F910C941B
:100F00009A11DF91CF911F910895AF92BF92CF9226
:100F1000DF92EF92FF920F931F93CF93DF93809115
:100F20007101811103C081E0809371018091710191
:100F3000893018F088E0809371019091AC05809120
:100F40007101981710F01092AC056091760182E063
:100F500090E00E9471076091750183E090E00E942B
:100F600071076091800184E090E00E9471076091B8
:100F70007F0185E090E00E94710760917E0186E02C
:100F800090E00E9471076091780187E090E00E94F4
:100F900071076091770188E090E00E94710760918D
:100FA000740189E090E00E947107609173018AE00A
:100FB00090E00E94710760917D018BE090E00E94BB
:100FC0007107609172018CE090E00E94710760915E
:100FD000AC058DE090E00E947107609171018EE098
:100FE00090E00E947107609170018FE090E00E9494
:100FF00071076091AB0580E190E00E9471076091FC
:10100000AA0581E190E00E9471076091A90582E143
:1010100090E00E9471076091A80583E190E00E9432
:10102000710784E1E82EF12C10E006E08091710157
:101030001817B8F5109F60011124D0E0C0E0FE0140
:10104000EC0DFD1DE05CFE4F6081C7018C0F9D1F04
:101050000E9471072196C630D10589F7670186E0A5
:10106000C80ED11C88E0189FE0011124C050DF4F4A
:101070008EE0E80EF11C69812296C6010E9471077C
:10108000560182E0A80EB11CFE0132976081C601B4
:1010900001960E9471076501AE14BF0461F71F5FDE
:1010A000C5CFDF91CF911F910F91FF90EF90DF900F
:1010B000CF90BF90AF900895EF92FF920F931F9340
:1010C000CF93DF9300D000D000D0CDB7DEB780E45F
:1010D00091E0909376018093750186E990E090937A
:1010E000800180937F018CE380937E0185E0809373
:1010F00078018FE08093770188E28093740181E02A
:101100008093730180937D01809372011092AC05EE
:1011100080937101809370011092AB051092AA0523
:101120001092A9051092A805A0E0B1E080E491E03A
:10113000FC0108ED10E064E371E046E851E02EE1C7
:10114000E22EF12C11961C930E9313967C936E93C2
:10115000129715965C934E9314971796FC92EE9205
:1011600016971082118212821382148215821896A9
:10117000369621E0E037F20729F726E0EDE8F1E0C6
:10118000DE01119601900D922A95E1F7FE0131964C
:10119000AE014A5F5F4F2191222331F0DC012D9394
:1011A000CD01E417F507B9F768E090E080E00E9410
:1011B00071076FE181E090E00E94710726960FB6FB
:1011C000F894DEBF0FBECDBFDF91CF911F910F917D
:1011D000FF90EF900C9485070C9492111F920F9240
:1011E0000FB60F9211242F933F938F939F93AF933A
:1011F000BF938091E1059091E205A091E305B09144
:10120000E4053091E00523E0230F2D3758F50196D2
:10121000A11DB11D2093E0058093E1059093E205A7
:10122000A093E305B093E4058091E5059091E60570
:10123000A091E705B091E8050196A11DB11D80932D
:10124000E5059093E605A093E705B093E805BF9107
:10125000AF919F918F913F912F910F900FBE0F9063
:101260001F90189526E8230F0296A11DB11DD2CF1D
:101270001F920F920FB60F9211242F933F934F930B
:101280005F936F937F938F939F93EF93FF9383B1BC
:10129000817029B19091AF05981709F49DC030E095
:1012A000220F232F221F330B922F8093AF054091E3
:1012B000AE05241709F490C02093AE052091B9051E
:1012C0003091BA05981719F031952195310940915F
:1012D000B7055091B8056091BD057091BE05240F0A
:1012E000351F261737070CF48BC02091B9053091B4
:1012F000BA05981719F03195219531094091B70534
:101300005091B8056091BB057091BC05240F351F45
:10131000621773070CF46FC04091B9055091BA057C
:10132000981719F05195419551092091B7053091C1
:10133000B805240F351F3093B8052093B70541E059
:10134000981340E02091AD05421709F440C0209168
:10135000B9053091BA05981719F0319521953109E1
:101360006091B7057091B805E091BD05F091BE059B
:10137000260F371F2E173F070CF44CC02091B905DC
:101380003091BA05981719F031952195310960917E
:10139000B7057091B805E091BB05F091BC05260F2B
:1013A000371FE217F3078CF12091B9053091BA0588
:1013B000981719F03195219531098091B7059091D1
:1013C000B805820F931F9093B8058093B70540939B
:1013D000AD0581E08093C605FF91EF919F918F91BC
:1013E0007F916F915F914F913F912F910F900FBE21
:1013F0000F901F9018952091BB053091BC059BCF95
:101400002091BD053091BE0596CF8091BB0590918E
:10141000BC05D9CF8091BD059091BE05D4CF18955C
:10142000CF93DF93CDB7DEB72E970FB6F894DEBF1C
:101430000FBECDBF789484B5826084BD84B58160D1
:1014400084BD85B5826085BD85B5816085BD80918F
:101450006E00816080936E00109281008091810007
:1014600082608093810080918100816080938100FF
:10147000809180008160809380008091B1008460C1
:101480008093B1008091B00081608093B000809122
:101490007A00846080937A0080917A0082608093E1
:1014A0007A0080917A00816080937A0080917A003E
:1014B000806880937A001092C10060E08EE00E9404
:1014C0002E0460E08FE00E942E0461E085E00E941F
:1014D0002E0461E089E00E942E0462E087E00E9411
:1014E0002E0462E088E00E942E0462E086E00E9402
:1014F0002E0462E08AE00E942E041092C50087E666
:101500008093C4001092C00088E08093C10086E000
:101510008093C2008FEF90E00E946A0460E085E053
:101520000E94000480917A00876080937A00809105
:101530007A00886080937A00789481E080936B00D1
:10154000809368008BBB90E080E00E94EC08898368
:1015500081E090E00E94EC08C9809C2D8F3198407A
:1015600009F091C082E090E00E94EC08898383E05A
:1015700090E00E94EC08C9809C2D909376018093A6
:10158000750184E090E00E94EC08898385E090E09A
:101590000E94EC08D9809D2D9093800180937F015B
:1015A00086E090E00E94EC0880937E0187E090E066
:1015B0000E94EC088093780188E090E00E94EC089B
:1015C0008093770189E090E00E94EC088093740199
:1015D0008AE090E00E94EC08182F809373018BE062
:1015E00090E00E94EC0891E0811101C090E090939E
:1015F0007D018CE090E00E94EC0891E0811101C037
:1016000090E0909372018DE090E00E94EC08082F2A
:101610008093AC058EE090E00E94EC08582E8093F9
:1016200071018FE090E00E94EC088D83809370013F
:1016300080E190E00E94EC0891E0811101C090E00F
:101640009093AB0581E190E00E94EC088093AA059D
:1016500082E190E00E94EC08898383E190E00E949F
:10166000EC08E9809E2D9093A9058093A8058FEF43
:10167000850D883040F4051530F4123020F42D81AA
:10168000233008F402C10E945C0880917A008069CE
:1016900080937A008EE480937C0061E070E080E0CB
:1016A00090E00E94E70483B7817F826083BF80E17E
:1016B00030E020E093B7916093BF889593B79E7F09
:1016C00093BF90917A0096FDFCCF409178005091A5
:1016D0007900240F351F815069F780917A008F7748
:1016E00080937A00E4E036952795EA95E1F750E09B
:1016F00040E064EB7BE281E190E00E94A81130932E
:10170000B1052093B0050E949006809175019091DB
:1017100076019093D5058093D4058EE00E946206F1
:10172000BC0190E080E00E941D136093C20570939D
:10173000C3058093C4059093C50580917A008069A4
:1017400080937A0088EC80937C006AE070E080E00F
:1017500090E00E94E70483B7817F826083BF80E2CC
:1017600093B7916093BF889593B79E7F93BF9091F5
:101770007A0096FDFCCF209178003091790081505D
:1017800079F780917A008F7780937A000E94C4065F
:10179000C0907501D0907601DA82C98220E030E0F5
:1017A00040EA51E46091D0057091D1058091D20555
:1017B0009091D3050E9404126B017C0129813A812A
:1017C000B90190E080E00E941D139B01AC01C701AC
:1017D000B6010E94701287FF04C090E080E00E9472
:1017E0006A0410921B0610921C0610921D0610929D
:1017F0001E06812C912C7FE7A72E73E4B72E8092D2
:101800001F0690922006A0922106B0922206009117
:1018100007061091080680912306D801CD90DD902F
:10182000ED90FC90882309F4E2C4A5019401C7015E
:10183000B6010E94CF1318160CF079C0F80180820F
:101840009182A282B38280900F0690901006A090A1
:101850001106B0901206C0901F06D0902006E090AE
:101860002106F0902206A7019601C501B4010E944D
:10187000CF1318160CF06BC0C0920F06D092100652
:10188000E0921106F092120672C0B0E0CB2EB1E0E9
:10189000DB2E10E4E12E11E0F12E04E110E0412CEA
:1018A0001A82198289819A81800F911F0E94EC0807
:1018B000E981FA81EE0DFF1D808389819A8101966D
:1018C0009A838983069771F7480196E0890E911CE7
:1018D000D70115961C92025F1F4F5601C4010E944A
:1018E000EC08E82FF0E03E2F22273A832983D50128
:1018F0002D933C933401B2E06B0E711CC401019630
:101900000E94EC08E981FA81E82BD501ED93FD9363
:101910005D0143016016710609F74394B8E0CB0EF0
:10192000D11CE6E0EE0EF11C5410BACFAECE20E092
:1019300030E0A901C701B6010E94701287FF83CF72
:10194000D8011D921D921D921C9213977CCFC090BE
:101950001B06D0901C06E0901D06F0901E06A70105
:101960009601C501B4010E94701287FD85CF81E008
:101970008093230683B181708093AF0589B190E095
:10198000880F892F881F990B8093AE052091AF0592
:101990009091AE0581E0291380E08093AD058CE243
:1019A00091E09093BE058093BD0580E293E0909313
:1019B000BC058093BB058AE090E09093BA058093C4
:1019C000B905C980DA80CC0CDD1CD092B805C09274
:1019D000B7050E9419056093B3057093B405809311
:1019E000B5059093B6050E94A6060E94A60622247D
:1019F00023948091C605C090D405D090D505F12CD4
:101A0000E12C8823C1F18091D605882321F120E0C3
:101A100030E040EA51E46091D0057091D1058091A9
:101A2000D2059091D3050E9404124B015C01C701BD
:101A3000B6010E941D139B01AC01C501B4010E94B7
:101A4000701287FF04C090E080E00E946A040E9448
:101A5000A60620927A011092C6051092D605109221
:101A6000DB050E9419056093B3057093B40580935C
:101A7000B5059093B6050E9419050091B305109124
:101A8000B4052091B5053091B605601B710B820B32
:101A9000930B20E63AEE40E050E00E94D2112983F9
:101AA0002093B2058091D60581110AC080917801FA
:101AB000882331F0281720F02092D6050E94A60630
:101AC0008091DB0581110BC080917701882339F06B
:101AD0002981281720F02092DB050E94A6068FEFAF
:101AE00090E00E946A048BEA94E00197F1F78EE09F
:101AF0000E9462069A838983E0ECF5E08491ECEA27
:101B0000F5E01491E8E9F5E00491002379F0811102
:101B10000E94D703E02FF0E0EE0FFF1FE059FA4FCD
:101B2000A591B4918C91182381E009F480E0909103
:101B3000C705891721F02092C6058093C7058091BB
:101B40007C019FEF980F90937C01811102C00E944D
:101B500090066091C8057091C9058091CA05909161
:101B6000CB050E94E712CB010E946A048090C20557
:101B70009090C305A090C405B090C50529813A8115
:101B8000B90190E080E00E941D13A50194010E941C
:101B900003122DEC3CEC4CE45DE30E94D413A50150
:101BA00094010E9404126093C2057093C305809350
:101BB000C4059093C5050E94C4066091C00570914C
:101BC000C10590E080E00E941D134B015C01209153
:101BD000D7053091D8054091D9055091DA050E947A
:101BE000701281118CC22091D0053091D1054091A5
:101BF000D2055091D305C501B4010E9403124B01D7
:101C00005C0120E030E0A9010E94CF1318160CF00F
:101C10006CC220E030E040EA50E4C501B4010E940B
:101C2000CF1318160CF46BC2C701B6010E941D1326
:101C30002091D0053091D1054091D2055091D30526
:101C40000E9403126B017C0120E030E0A9010E9498
:101C5000CF1318160CF062C2C701B6010E94EE1233
:101C60006530710508F05EC280917B01811105C06D
:101C700080917A0181110E94A60620927B01109228
:101C80007A018091C0059091C105853F31E09307AD
:101C900010F0109279012091790121113EC0843F0A
:101CA0009140D8F58FEF90E00E946A040E94A6064A
:101CB000209279010E9485072092C6058EE00E943D
:101CC0006206BC0190E080E00E941D136093C20593
:101CD0007093C3058093C4059093C5051092BF050A
:101CE0008091D4059091D505ACE2B1E0B093BE05EA
:101CF000A093BD05E0E2F3E0F093BC05E093BB05E3
:101D00002AE0C22ED12CD092BA05C092B905880F14
:101D1000991F9093B8058093B7058091DB058823C0
:101D200009F403C21092D7051092D8051092D90574
:101D30001092DA054090D7055090D8056090D905EB
:101D40007090DA058090D0059090D105A090D205D2
:101D5000B090D305A5019401C301B2010E94031202
:101D60006B017C0120E030E0A9010E94CF1318161E
:101D70000CF0F4C1C701B6010E94EE1280917D0102
:101D8000882309F40EC28092CC059092CD05A092D2
:101D9000CE05B092CF05C0900306D0900406E12C8A
:101DA000F12C00EA10E420E030E040E450E46E3131
:101DB000710540F0E12CF12C00E81FE320E030E059
:101DC00040E05FE360E070E080E391E40E94100394
:101DD00080912306882309F426C10E94190569838E
:101DE0007A838B839C8380910B0690910C06A09143
:101DF0000D06B0910E0649815A816B817C81481B8A
:101E0000590B6A0B7B0B8091170690911806A091D5
:101E10001906B0911A06481759076A077B0708F494
:101E200002C1E0910506F091060640805180628073
:101E30007380E0910906F0910A06A3019201608186
:101E40007181828193810E9403126B017C01209138
:101E50001306309114064091150650911606C301E1
:101E6000B2010E9403126D837E838F839887209135
:101E7000F9053091FA054091FB055091FC05C70129
:101E8000B6010E94D41320910F06309110064091A4
:101E90001106509112060E9404124B015C018092BF
:101EA0000F0690921006A0921106B0921206309082
:101EB000240631101CC02091F5053091F6054091A3
:101EC000F7055091F8056D817E818F8198850E947C
:101ED000D4139B01AC01C501B4010E9403126093AD
:101EE0000F0670931006809311069093120680914E
:101EF0000F0690911006A0911106B09112068987E5
:101F00009A87AB87BC8700911F061091200690919D
:101F100021069E87A0912206AD879801492F5A2F4E
:101F200069857A858B859C850E94CF1318160CF0E5
:101F300019C1C801AE85BD8580930F069093100628
:101F4000A0931106B0931206332009F426C1209104
:101F5000F5053091F6054091F7055091F805C70158
:101F6000B6010E94D4136B017C012091FD053091D4
:101F7000FE054091FF05509100066D817E818F81A5
:101F800098850E94D4139B01AC0160910F0670915B
:101F9000100680911106909112060E940312A7016B
:101FA00096010E9404126B017C019B01AC01B801F7
:101FB0008E859D850E94701287FD16C000911B06BC
:101FC00010911C06B0911D06BE87E0911E06ED879C
:101FD00098014B2F5E2FB601C7010E94701287FD3A
:101FE00003C08601EE86FD86E0910706F0910806A3
:101FF000C801AE85BD8580839183A283B38340925F
:102000001306509214066092150670921606C98047
:10201000DA80EB80FC80C0920B06D0920C06E09236
:102020000D06F0920E066091C8057091C905809169
:10203000CA059091CB050E94E712CB010E946A0469
:102040000E9419050091DC051091DD052091DE0547
:102050003091DF056B017C01C01AD10AE20AF30A54
:1020600097018601083E13402105310520F1609358
:10207000DC057093DD058093DE059093DF0580918C
:10208000C00080648093C0008091C00085FFFCCFB9
:1020900085E48093C6008091C00085FFFCCF8BE370
:1020A0008093C6008091C00086FFFCCF8091C00065
:1020B00080648093C000A0E0B0E0AB2B09F499CC21
:1020C0000E94000094CC20E030E0A901C701B601D5
:1020D0000E94701287FF4BCC10920F0610921006D0
:1020E000109211061092120642CC20E030E040EA35
:1020F00050ECC501B4010E94701287FF95CD60912C
:10210000D0057091D1058091D2059091D3050E94A0
:10211000EE127093C1056093C00586CDC701B6016C
:1021200090589CCD10927B01ACCD8091D6056091EA
:102130007F0170918001811104C06091D40570917C
:10214000D50590E080E00E941D136093D705709341
:10215000D8058093D9059093DA05ECCDC701B60177
:1021600090580ACE80901B0690901C06A0901D06E9
:10217000B0901E06A501940169857A858B859C85A2
:102180000E94701287FFE0CE80920F069092100698
:10219000A0921106B0921206D7CEC12CD12C760196
:1021A000E4CE20E030E040E05FE3C501B4010E94EE
:1021B00004129B01AC01C301B2010E94CF13181697
:1021C0004CF41092C8051092C9051092CA051092DD
:1021D000CB0529CF80E090E0AFE7B3E48093C8055A
:1021E0009093C905A093CA05B093CB051CCFC092AC
:1021F0000F06D0921006E0921106F0921206E091BE
:102200000506F091060680819181A281B3818093B9
:10221000130690931406A0931506B093160620E0BB
:1022200030E04FE753E4C701B6010E94CF13181600
:102230000CF049CF80920F0690921006A0921106E2
:10224000B092120694CBCF92DF92EF92FF920F934F
:102250001F93CF93DF93E4E9F1E013821282168299
:10226000178280E1808715821482128685E891E0CA
:1022700091838083158614861786168681E0808B6D
:10228000118A828B138AC9EED5E088EC95E09F8F86
:102290008E8F8CEC95E09D8F8C8F87ED95E099A3C8
:1022A00088A31AAE1AAA1BAA1CAA1DAA80E090E055
:1022B000AFE7B3E48EAB9FABA8AFB9AF84E690E0D5
:1022C000A0E0B0E08EA79FA7A8ABB9AB81E090E0FB
:1022D000998F888FCC24C394D12CE12CF12C00E869
:1022E0001FE320E030E040E05FE360E070E080E387
:1022F00091E40E9410030E9419050EA51FA528A9AC
:1023000039A9601B710B820B930B6AA37BA38CA36F
:102310009DA3DF91CF911F910F91FF90EF90DF90E0
:10232000CF900895F999FECF92BD81BDF89A992773
:1023300080B50895262FF999FECF1FBA92BD81BDB1
:1023400020BD0FB6F894FA9AF99A0FBE0196089537
:10235000052E97FB1EF400940E94BF1157FD07D075
:102360000E94D21107FC03D04EF40C94BF1150957B
:102370004095309521953F4F4F4F5F4F0895909571
:102380008095709561957F4F8F4F9F4F08950E9464
:10239000F411A59F900DB49F900DA49F800D911DE9
:1023A00011240895A1E21A2EAA1BBB1BFD010DC02A
:1023B000AA1FBB1FEE1FFF1FA217B307E407F507F5
:1023C00020F0A21BB30BE40BF50B661F771F881FD1
:1023D000991F1A9469F760957095809590959B0167
:1023E000AC01BD01CF010895A29FB001B39FC00110
:1023F000A39F700D811D1124911DB29F700D811D31
:102400001124911D08955058BB27AA270E941B1222
:102410000C9495130E94871338F00E948E1320F0BD
:1024200039F49F3F19F426F40C9484130EF4E095CC
:10243000E7FB0C947E13E92F0E94A61358F3BA17FA
:10244000620773078407950720F079F4A6F50C94CA
:10245000C8130EF4E0950B2EBA2FA02D0B01B90175
:1024600090010C01CA01A0011124FF27591B99F00A
:10247000593F50F4503E68F11A16F040A22F232F16
:10248000342F4427585FF3CF469537952795A79566
:10249000F0405395C9F77EF41F16BA0B620B730B0D
:1024A000840BBAF09150A1F0FF0FBB1F661F771F7E
:1024B000881FC2F70EC0BA0F621F731F841F48F433
:1024C000879577956795B795F7959E3F08F0B0CFBC
:1024D0009395880F08F09927EE0F979587950895A3
:1024E0000E945A1308F481E008950E9489120C9406
:1024F00095130E948E1358F00E94871340F029F420
:102500005F3F29F00C947E1351110C94C9130C9465
:1025100084130E94A61368F39923B1F3552391F312
:10252000951B550BBB27AA2762177307840738F042
:102530009F5F5F4F220F331F441FAA1FA9F335D09F
:102540000E2E3AF0E0E832D091505040E695001C53
:10255000CAF72BD0FE2F29D0660F771F881FBB1F0D
:10256000261737074807AB07B0E809F0BB0B802DEB
:10257000BF01FF2793585F4F3AF09E3F510578F017
:102580000C947E130C94C9135F3FE4F3983ED4F38C
:10259000869577956795B795F7959F5FC9F7880FEB
:1025A000911D9695879597F90895E1E0660F771F3D
:1025B000881FBB1F621773078407BA0720F0621BCE
:1025C000730B840BBA0BEE1F88F7E09508950E94F9
:1025D000EE126894B1110C94C91308950E94AE13C1
:1025E00088F09F5798F0B92F9927B751B0F0E1F0D4
:1025F000660F771F881F991F1AF0BA95C9F714C084
:10260000B13091F00E94C813B1E008950C94C81342
:10261000672F782F8827B85F39F0B93FCCF38695BC
:1026200077956795B395D9F73EF490958095709519
:1026300061957F4F8F4F9F4F0895E89409C097FB96
:102640003EF490958095709561957F4F8F4F9F4F89
:102650009923A9F0F92F96E9BB279395F6958795CD
:1026600077956795B795F111F8CFFAF4BB0F11F490
:1026700060FF1BC06F5F7F4F8F4F9F4F16C0882337
:1026800011F096E911C0772321F09EE8872F762F6D
:1026900005C0662371F096E8862F70E060E02AF0AE
:1026A0009A95660F771F881FDAF7880F969587959A
:1026B00097F90895990F0008550FAA0BE0E8FEEF6F
:1026C00016161706E807F907C0F012161306E407F6
:1026D000F50798F0621B730B840B950B39F40A26EF
:1026E00061F0232B242B252B21F408950A2609F4CD
:1026F000A140A6958FEF811D811D089597F99F67D1
:1027000080E870E060E008959FEF80EC0895002479
:102710000A941616170618060906089500240A9446
:1027200012161306140605060895092E0394000CCC
:1027300011F4882352F0BB0F40F4BF2B11F460FF5B
:1027400004C06F5F7F4F8F4F9F4F089557FD905884
:10275000440F551F59F05F3F71F04795880F97FB65
:10276000991F61F09F3F79F087950895121613061F
:102770001406551FF2CF4695F1DF08C0161617064E
:102780001806991FF1CF8695710561050894089583
:10279000E894BB2766277727CB0197F908950E9415
:1027A0005A1308F48FEF08950E94E7130C949513C1
:1027B0000E94871338F00E948E1320F0952311F0A9
:1027C0000C947E130C94841311240C94C9130E944E
:1027D000A61370F3959FC1F3950F50E0551F629FAC
:1027E000F001729FBB27F00DB11D639FAA27F00D6A
:1027F000B11DAA1F649F6627B00DA11D661F829F91
:102800002227B00DA11D621F739FB00DA11D621F75
:10281000839FA00D611D221F749F3327A00D611D92
:10282000231F849F600D211D822F762F6A2F112474
:102830009F5750409AF0F1F088234AF0EE0FFF1FA7
:10284000BB1F661F771F881F91505040A9F79E3FFE
:10285000510580F00C947E130C94C9135F3FE4F390
:10286000983ED4F3869577956795B795F795E79554
:102870009F5FC1F7FE2B880F911D9695879597F95D
:102880000895DB018F939F930E94C711BF91AF9171
:10289000A29F800D911DA39F900DB29F900D1124BA
:1028A0000895EE0FFF1F0590F491E02D099481E04B
:1028B00090E0F8940C945C14F894FFCFD8003401A5
:1028C00086011E0000000000000000000000000063
:1028D00000000000000000000000000000000000F8
:1028E00000000000000000000000000000000000E8
:1028F0000000000000000000000000004243312EF4
:102900003500000000000000000000000000000092
:1029100000000000000000000000000000000000B7
:1029200000000000000000000000000001010101A3
:102930002840010F05010101FF013C960000000045
:1029400000520525055F065E064243312E35000024
:107E0000112484B714BE81FFF0D085E080938100F7
:107E100082E08093C00088E18093C10086E0809377
:107E2000C20080E18093C4008EE0C9D0259A86E02C
:107E300020E33CEF91E0309385002093840096BBD3
:107E4000B09BFECF1D9AA8958150A9F7CC24DD24C4
:107E500088248394B5E0AB2EA1E19A2EF3E0BF2EE7
:107E6000A2D0813461F49FD0082FAFD0023811F036
:107E7000013811F484E001C083E08DD089C08234E0
:107E800011F484E103C0853419F485E0A6D080C0E4
:107E9000853579F488D0E82EFF2485D0082F10E0AE
:107EA000102F00270E291F29000F111F8ED06801E7
:107EB0006FC0863521F484E090D080E0DECF843638
:107EC00009F040C070D06FD0082F6DD080E0C81688
:107ED00080E7D80618F4F601B7BEE895C0E0D1E017
:107EE00062D089930C17E1F7F0E0CF16F0E7DF06D8
:107EF00018F0F601B7BEE89568D007B600FCFDCFD4
:107F0000A601A0E0B1E02C9130E011968C91119780
:107F100090E0982F8827822B932B1296FA010C0160
:107F200087BEE89511244E5F5F4FF1E0A038BF0790
:107F300051F7F601A7BEE89507B600FCFDCF97BE46
:107F4000E89526C08437B1F42ED02DD0F82E2BD052
:107F50003CD0F601EF2C8F010F5F1F4F84911BD097
:107F6000EA94F801C1F70894C11CD11CFA94CF0C13
:107F7000D11C0EC0853739F428D08EE10CD085E9AC
:107F80000AD08FE07ACF813511F488E018D01DD067
:107F900080E101D065CF982F8091C00085FFFCCF94
:107FA0009093C60008958091C00087FFFCCF809118
:107FB000C00084FD01C0A8958091C6000895E0E648
:107FC000F0E098E1908380830895EDDF803219F02E
:107FD00088E0F5DFFFCF84E1DECF1F93182FE3DFCA
:107FE0001150E9F7F2DF1F91089580E0E8DFEE27F6
:047FF000FF270994CA
:027FFE00040479
:00000001FF
