:020000040800F2
:10000000D818002001010008C12700083D2600087B
:10001000BD270008890D00087F3C00080000000093
:10002000000000000000000000000000893400080B
:10003000B31000080000000015290008ED35000885
:100040001701000817010008170100081701000830
:100050001701000817010008170100081701000820
:100060001701000817010008170100081701000810
:1000700017010008D10D0008250E0008170100081F
:1000800017010008170100081701000817010008F0
:1000900017010008170100081701000817010008E0
:1000A00017010008170100081701000817010008D0
:1000B0001701000851360008170100081701000851
:1000C00017010008170100081701000817010008B0
:1000D000170100081701000805390008E139000878
:1000E000170100081701000817010008DFF80CD0FD
:1000F00000F0CCFA0048004749460008D818002014
:1001000005480047FEE7FEE7FEE7FEE7FEE7FEE7FD
:10011000FEE7FEE7FEE7FEE7ED0000080048704757
:100120003C4A000840EA01039B0703D009E008C9E4
:10013000121F08C0042AFAD203E011F8013B00F8AC
:10014000013B521EF9D27047D2B201E000F8012BF8
:10015000491EFBD270470022F6E710B513460A4647
:1001600004461946FFF7F0FF204610BD30B505469E
:100170002A460B4612F8010B13F8014B08B1A042B6
:10018000F8D01CB1002802D06D1CF1E7284630BD24
:1001900010B5044604E00B7800F8013B03B1491C9C
:1001A000521EF8D2204610BD421C10F8011B002937
:1001B000FBD1801A704710B5002200E0521C835C0E
:1001C0008C5CA34201D1002BF8D1D8B2E1B2401A25
:1001D00010BD034611F8012B00F8012B002AF9D1BC
:1001E0001846704730B505460020034600E05B1C0A
:1001F000934205D2EC5CC85C201A01D1002CF6D1E8
:1002000030BD70B5064603F06BFD046805460A2252
:100210000021304600F049F82C6070BD30B50B4627
:10022000014600202022012409E021FA02F59D4226
:1002300005D303FA02F5491B04FA02F52844151EFA
:10024000A2F10102F1DC30BD2DE9F05F054600208E
:1002500092469B4688460646814640241BE0284637
:1002600041464746224600F032FA53465A46C01AE3
:10027000914110D311461846224600F019FA2D1A62
:1002800067EB01084F4622460120002100F010FADA
:1002900017EB00094E41201EA4F10104DFDC4846A3
:1002A00031462A464346BDE8F09F2DE9F047914686
:1002B0000F4680460446002614F8015B2DB1FFF777
:1002C0002DFF0068405DC007F6D12B2D02D02D2DEB
:1002D00018D0641E4A463946204600F01AFA27B163
:1002E0003968A14201D1C7F8008071054FF00204BE
:1002F0000BD54042002803DD03F0F2FC0460A007A8
:10030000BDE8F08746F48066E4E70028F8DA03F0F9
:10031000E7FC04606FF00040F2E72DE9FE4F8046F5
:1003200081EA0300C00F0C46009021F0004123F049
:100330000045B8EB0200A94105D24046214690464F
:100340001C460B46024623F00040104347D0270DC1
:10035000C7F30A00C3F30A510290401A01904028E3
:100360006BDAC3F3130040F4801B0098924620B16F
:100370000023D2EB030A63EB0B0B01985946C0F143
:100380004002504600F094F906460D465046594644
:10039000019A00F0ACF910EB08006141002487EAF3
:1003A000115284EAE7731A4340D0009A62B3019A6B
:1003B000012A4FEA075215DC001B61EB02014FF0E6
:1003C000004202EA0752CDE90042001C41F58011CB
:1003D00032462B4600F0FBF903B0BDE8F08F4046F3
:1003E0002146F9E7001B61EB0201001C41F5801377
:1003F00000185B412018A2F5001747EB030140EA03
:10040000D570B6196D4111E06D084FEA360645EA20
:10041000C0754FEA0752001B61EB0201001C41F559
:10042000801149084FEA30000019514132462B46ED
:1004300003B0BDE8F04F00F0BBB9009801224000C6
:100440000023D0EB020263EBE073009821464FEAF1
:10045000E074B8EB000061EB0401E9E783F00043CE
:100460005BE781F0004158E72DE9FE4F81EA030484
:1004700004F0004421F0004100944FF0000B23F001
:10048000004350EA01045ED052EA03045BD0C3F398
:100490000A54C1F30A552C44A4F2F3340194A0FB8E
:1004A0000254C1F3130141F48011C3F3130343F465
:1004B000801301FB024400FB034E840A970A44EABE
:1004C000815447EA8357A4FB076802958D0A05FB10
:1004D00007854FEA932C04FB0C542705029D4FEA35
:1004E000065847EA1637B5EB08056EEB070C870E82
:1004F000920E47EA811742EA8312A7FB0201B6EB8C
:100500000B0164EB00042B0D43EA0C335E1844EB43
:100510001C50DA465146E7FB0201C5F313044FEACB
:100520000B3343EA14534FEA0432019C43EA0603B7
:10053000A4F10C040294009CCDE900B400F047F94A
:1005400003B0BDE8F08F00200146F9E72DE9F04D3A
:1005500081EA030404F0004B21F0004514464FF0FB
:10056000000A23F0004150EA050220D054EA0102BB
:100570001DD0C5F30A570246C5F31303C1F3130098
:10058000C1F30A5640F4801543F48013A7EB060824
:10059000101BD64608F2FD3873EB050002D308F1B4
:1005A000010801E092185B41B8F1000F03DA002066
:1005B0000146BDE8F08D00204FF4801106468446C8
:1005C0000EE0171B73EB050705D3121B63EB050346
:1005D00006434CEA010C49084FEA300092185B418F
:1005E00050EA0107EDD152EA030012D082EA04007A
:1005F00083EA0501084305D0101BAB4106D2012256
:10060000002306E000224FF0004302E06FF00102F9
:1006100053101AEB06004CEB085110EB0A0041EBAB
:100620000B01BDE8F04D00F0C3B8C1F30A52C1F3AD
:10063000130140F2FF3341F480119A4202DA0020A4
:100640000146704740F233439A42A2F2334202DC41
:10065000524200F03CB800F02BB8000030B5041E48
:1006600071F1000404DB4FF00044404264EB0101EF
:10067000141E73F1000405DB1C464FF00043524288
:1006800063EB0403994208BF904230BD064C074D0E
:1006900006E0E06840F0010394E807009847103452
:1006A000AC42F6D3FFF726FD704B0008904B0008D4
:1006B000202A04DB203A00FA02F100207047914022
:1006C000C2F1200320FA03F3194390407047202A17
:1006D00004DB203A21FA02F00021704721FA02F3EC
:1006E000D040C2F120029140084319467047202AA9
:1006F00006DBCB17203A41FA02F043EAE07306E04A
:1007000041FA02F3D040C2F1200291400843194659
:1007100070472DE9F05F82460078002715468B462A
:100720000AF10104B946302801D09DB113E014F854
:10073000010B0127782803D0582801D045B10AE0E1
:100740000DB1102D07D10027102514F8010B02E080
:10075000082500E00A250026B0460EE005FB08004B
:1007600005FB06F1012701EB10461FFA80F8B6F5EC
:10077000803F00D3B94614F8010B294600F075F804
:100780000028EBDABBF1000F05D00FB1641E00E0CA
:100790005446CBF80040B9F1000F06D003F0A0FAA0
:1007A00002210160C81EBDE8F09F48EA0640FAE752
:1007B00010B5141E73F1000408DA401C41F1000169
:1007C00092185B411A4301D120F0010010BD2DE9C0
:1007D000F04D92469B4611B1B1FA81F202E0B0FAB7
:1007E00080F220329046FFF763FF04460F4640EA4E
:1007F0000A0041EA0B0153465A46084313D01146FA
:1008000053EA010019D0C8F140025046FFF75FFFDC
:1008100005460E46504659464246FFF749FF0843F3
:1008200005D0012004E020463946BDE8F08D0020C7
:10083000054346EAE0762C4337430A986305E40A09
:10084000A0EB08000022FD0A44EA47540A3002D512
:1008500000200146E9E7010510196941DDE9084575
:1008600000196941BDE8F04DA2E73A2800D23038BE
:1008700020F02002412A01D3A2F13700884201D39F
:100880004FF0FF30704700000146012901D102A05E
:10089000704703A0FCE700004155544F00000000E2
:1008A0004D414E55414C000010B5044604B910BDF1
:1008B0008C212046FFF74FFC00202070401E6081F5
:1008C0004FF4AF70A08106A104F11C00FFF781FC7A
:1008D00005A104F12C00FFF77CFC00BFE7E7000056
:1008E000302E302E302E3000626F6F74000000000A
:1008F00010B510480078012802D10E48407800B9A0
:1009000010BD01200B49487102F01CF8094988719B
:100910000846807928B10120C8710121054801727B
:1009200005E000200349C87100210248017200BFA0
:10093000E6E700009800002010B58AB0002404E02B
:10094000601CC4B201A800F041F8042C04D201A834
:1009500001F044FB0028F3D10AB010BD10B54FF4EC
:10096000A06001F067FF0F48FFF79EFF01F0ECFF6A
:100970000C49487002F090FF00F09CFB00F0A4F9D5
:1009800002F054F901F0C8FF01F05AFE01F022FB19
:1009900002F02EF9034800F0A9FC03A000F096FC39
:1009A00010BD0000980000200D0A536D6172745351
:1009B0006F6C64657220457874656E73696F6E2024
:1009C00056302E3320626F6F740D0A0070B50446E6
:1009D00001253BA604B970BD3B488069401C3A49DB
:1009E00088613AA104F11000FFF7E5FB38B9206AED
:1009F00008B1012000E000203349087059E035A11A
:100A000004F11000FFF7D7FB88B9206A60B9002114
:100A1000084600F0DBF80021012000F0D7F80021A3
:100A2000022000F0D3F844E000252BA641E0264840
:100A30000078012805D12448407810B9002529A65E
:100A400037E02148007810B100252AA631E02CA11A
:100A500004F11000FFF7AFFB48B9206A08B101208C
:100A600000E000200146002000F0B0F821E026A1BF
:100A700004F11000FFF79FFB48B9206A08B101207C
:100A800000E000200146012000F0A0F811E01FA1C5
:100A900004F11000FFF78FFB48B9206A08B101206C
:100AA00000E000200146022000F090F801E000255F
:100AB00017A632462946204601F0A6FA00BF8AE76B
:100AC0004E4F4E4500000000980000206D6F646599
:100AD00000000000616C6C004241445F56414C557F
:100AE000450000004155544F5F524553455256450D
:100AF000440000004155544F5F4D4F4445000000F5
:100B00006C6967687400000066616E00617578004A
:100B10004241445F544152474554000010B50446D9
:100B200006480068201A142800D210BD034804604B
:100B3000034802F06BF800BFF7E700000800002050
:100B40009F00002030B587B004461C4804611C4853
:100B50000068201AB0F5FA7F04D3194804601748DA
:100B600001F086FA17480068201AB0F57A7F23D37F
:100B70001448046011490878FFF786FE05460F48BF
:100B80001C300E49497A0D4A127A0C4BDB79CDE9BB
:100B90000332CDE905101C38B0F90A00074909797C
:100BA000064AD278CDE900210290044883782A468B
:100BB0002146054800F044FB07B030BD98000020F6
:100BC0000000002004000020404A0008032800DB49
:100BD000704709B1012300E00023024A135400BF0B
:100BE000F6E700009F00002070470000014604293E
:100BF00003D2034830F8110070471220FCE70000D0
:100C0000AE4600082DE9F84F06460D4617461C462D
:100C10004FF01A084FF02C094FF0060A072F4ED25A
:100C2000DFE807F0040D18242F394200711D88B247
:100C3000062310222946009402F0B0F940E06A1D14
:100C400091B206F1140290B212230622009402F02F
:100C5000A5F935E005F1150291B206F1140290B242
:100C600012230622009402F099F929E005F12602E8
:100C700091B2721D90B206231022009402F08EF9F8
:100C80001EE005F1150081B21223062230460094C1
:100C900002F084F914E0681D81B212230622304666
:100CA000009402F07BF90BE005F1130291B2721D82
:100CB00090B206231022009402F070F900E000BF09
:100CC00000BFBDE8F88F000008B50121142001F035
:100CD00015FF5020ADF8000010208DF80300032010
:100CE0008DF8020069460C4801F00AFB4FF40050F1
:100CF000ADF800006946094801F002FB10210648E2
:100D000001F089FB4021044801F087FB4FF40051BA
:100D1000024801F082FB08BD0008014000100140BC
:100D200070B504460D4614480068201AB0F5FA7FE5
:100D300017D3114804601148007808B9012000E079
:100D400000200E4908700846007828B14FF4005181
:100D50000B4801F060FB04E04FF40051084801F03B
:100D60005CFB25B11021074801F057FB03E010217F
:100D7000044801F050FB70BD5000002054000020DA
:100D8000001001400008014000BFFEE72DE9F041DE
:100D90000446204601F07CFB0746207918B1B4F9DF
:100DA0000A00002802DA0020BDE8F0816089381AC4
:100DB00006B2002E01DC0020F6E706EB460005B285
:100DC000122D00DA1225632D00DD6325E8B2EBE772
:100DD00010B54FF4007000F02DF950B14FF40070D1
:100DE00000F068F800210C4800F072F800200B4970
:100DF00008704FF4006000F01DF960B14FF400601E
:100E000000F058F80021044800F062F8002003497F
:100E100008700349087010BD3000024078000020BF
:100E20007900002010B54FF4005000F003F9B8B17C
:100E30004FF4005000F03EF80021134800F048F84D
:100E400012480088124909880844C0F309000F4974
:100E5000088000200E4908800E49087000F0A6F9AD
:100E60004FF4004000F0E6F860B14FF4004000F0AD
:100E700021F80021044800F02BF8002004490880E4
:100E80000449087010BD00004400024036000020F4
:100E9000380000203A00002000F0805111B10349D1
:100EA000086001E002494860704700000404024005
:100EB0000000024000F0805111B10349086001E0D8
:100EC00002494860704700000404024000000240EC
:100ED00021B1026842F00102026004E002684FF6AC
:100EE000FE731A400260704701684FF6FE721140AF
:100EF00001600021016041608160C1604B4988420E
:100F000008D14A490839496841F00F01474A083A6F
:100F100051608AE045491431884208D14349083973
:100F2000496841F0F001414A083A51607DE03F498B
:100F30002831884208D13D490839496841F4706137
:100F40003A4A083A516070E038493C31884208D149
:100F500036490839496841F47041344A083A5160C9
:100F600063E032495031884208D130490839496834
:100F700041F470212D4A083A516056E02B49643102
:100F8000884208D129490839496841F47001274A43
:100F9000083A516049E025497831884208D123490F
:100FA0000839496841F07061204A083A51603CE0D4
:100FB0001F49884206D1011F096841F00F01021F35
:100FC000116032E01A491431884208D11849091FCA
:100FD000096841F0F001164A121F116025E014491A
:100FE0002831884208D11249091F096841F470610B
:100FF0000F4A121F116018E00D493C31884208D198
:101000000B49091F096841F47041094A121F116018
:101010000BE007495031884207D10549091F09688B
:1010200041F47021024A121F11607047080002400B
:101030000804024001460020002201F0805313B151
:10104000054B1A6801E0054B1A6802EA01030BB16F
:10105000012000E000207047000402400000024030
:101060001AB103680B43036002E003688B4303601B
:10107000704710B50022026847F6F0739A430C6A75
:101080008B6823430C6923434C6923438C692343B6
:10109000CC6923434C6A23438C6A23431A4302607E
:1010A000CB6843600B6883604B68C36010BD4160D0
:1010B0007047704700B591B0012144F2040001F07F
:1010C0001DFD0121084601F0F9FC4FF40070ADF858
:1010D000400018208DF8430003208DF8420010A92D
:1010E0002E4801F00DF94FF48060ADF84000042067
:1010F0008DF8430010A9294801F002F94FF4E130BE
:101100000C900020ADF83400ADF83600ADF8380092
:10111000ADF83C000C20ADF83A000CA9204802F0D4
:1011200017FD2048FFF7E0FE1D48001D01901E48F6
:101130000290102003900120049000200590802050
:10114000069000200790089009904FF480500A9074
:1011500000200B9001A91348FFF78BFF01220A2101
:101160001048FFF77DFF0E208DF8000001208DF85C
:10117000010000208DF8020001208DF80300684670
:1011800001F020FB01228021054802F088FC0121AA
:10119000034802F078FC11B000BD000000080140D7
:1011A00000380140440002405002002010B51E48A3
:1011B000007828B91D4800881D490988884200D157
:1011C00010BD1A4800881A490988884206DD174868
:1011D000008817490988401A80B204E01448008842
:1011E000C0F5806080B2044604B9E9E71148048084
:1011F00001200D49087000210F48FFF769FE2146C4
:101200000D48FFF754FF0D480949098808440A4969
:10121000443908654FF47040FFF73EFE012106484F
:10122000FFF756FE00BFCBE73A0000203400002055
:101230003600002038000020440002405002002008
:101240000FB470B5AAB000262FA80190A02102A863
:10125000019B2E9A02F02EFD054600200190002DE4
:1012600003DA2AB070BC5DF814FBA02D00DB9F25CB
:10127000002406E002A9085D00F008F8304486B2B8
:10128000641CAC42F6DB3046EBE7000070B5044668
:10129000002672B60A480088401CC0F309050948B8
:1012A0000088854208D00848054909884454044804
:1012B0000580FFF77BFF012662B6304670BD000057
:1012C00034000020360000205002002070B5044693
:1012D000002505E02078FFF7D9FF284485B2641C7B
:1012E00014B120780028F5D1284670BD10B5044609
:1012F00001F06AFF01F0E6FCFF20034908700120BD
:101300000249087010BD0000280000200C000020D9
:101310002DE9F04104460F464FF47A70B7FBF0F523
:10132000A07818B1E07808B1012000E0002006465E
:101330004748007808B9BDE8F08102F033F8454825
:101340000078B04209D04348067001F0BBFC16B1EA
:1013500000F018FC01E000F023FD46BB3E480068A9
:10136000854209D1A0783D498978884204D1E07846
:101370003A49C978884205D0374805603946204641
:1013800000F06AFDE27936A1002000F07BFB227AB2
:1013900034A1012000F076FB627A33A1022000F034
:1013A00071FB8C2221462D48FEF7BCFEC3E72A487C
:1013B0000068854213D1A0782849897888420ED1E7
:1013C000207926490979884209D1E0782349C978EA
:1013D000884204D1207821490978884205D01E48E6
:1013E00005603946204600F017FCB4F90A001B4995
:1013F000B1F90A1088420BD120791849097988423D
:1014000006D1B4F90C001549B1F90C10884208D086
:10141000204600F081FA204600F010FA204600F045
:101420000FF9E2790EA1002000F02CFB227A0DA129
:10143000012000F027FB627A0BA1022000F022FBC2
:101440008C2221460548FEF76DFE00BF73E70000C1
:101450000C0000202800002024000020240100208F
:101460005231000052320000523300002DE9F8439F
:1014700005460E4617462846FFF7B8FB8046042D62
:1014800001D3BDE8F88318480088B84209D0FF228C
:1014900004211648FEF758FEFF201549087012482F
:1014A00007801248405DB04200D1EAE70F48465538
:1014B00040F661002C231A222A210090404601F0B8
:1014C0006DFD00240BE00120A040304028B13B46D8
:1014D00022462A214046FFF795FB601CC4B2072C28
:1014E000F1D300BFCDE70000140000200E00002063
:1014F0001200002038B504460D460A480078A04284
:1015000000D138BD074804700CB1284601E040F610
:10151000610007231A464E210090782001F03EFD1D
:1015200000BFEEE7120000202DE9FC5F80468A46EE
:1015300015461E46DDE90EB9002419E01DB1285DEF
:1015400008B1285D00E020200746305DB8420DD08C
:10155000375504EB4401490001FB098188B2CDE90C
:1015600000B93A4651460D9B01F03AFC601CC4B2EA
:101570000C988442E2DBBDE8FC9F00007CB5212092
:101580003E23E0227E210090082001F007FD41F675
:1015900045103E23E0227E210090082000F038FA1A
:1015A0000120212149F6D34321A2CDE90010802159
:1015B0000C2001F0CEFC0120212149F6D3431DA2CD
:1015C000CDE90010B021222001F0C3FC012021212F
:1015D00040F2FF5319A2CDE90010B021C72001F05D
:1015E000B8FC00250FE005EB45008D2101EB8004E0
:1015F00042F647102346E32221460090162001F0D0
:101600003DFC681CC5B2032DEDD349F6D340AA2397
:10161000E32219460090162001F030FC49F6D34031
:10162000AA23162285210090104601F027FC7CBDDC
:10163000430000002D3630530000000030530000FE
:101640002DE9F84F0646B6F90A0001F07FF921208E
:101650002623CE2285210090162001F09FFC002435
:101660000FE004EB44008D2101EB800542F64710AA
:101670002B46E32229460090162001F0FFFB601C58
:10168000C4B2032CEDD349F6D340AA23E322194672
:101690000090162001F0F2FB49F6D340AA2316224F
:1016A00085210090104601F0E9FB304600F0F0FE85
:1016B000834602F0D3F88146484600F03BF81B48C9
:1016C0000078022801D2BDE8F88F012427E0601ECF
:1016D00080B2CA2148433B21B0FBF1F0163087B2FB
:1016E000CA206043B0FBF1F016301FFA80F8611E8B
:1016F0000F4A32F9110002F0B1F805460C4931F9F0
:10170000140002F0ABF8824640F2FF5053464246C6
:1017100029460090384600F01BFB601CC4B2034809
:1017200000788442D3DB00BFCDE700000D0000202D
:10173000B001002038B5054616240CE04FF62050C5
:101740000090601D82B22B462946204601F096FB90
:1017500004F10A0084B2E32CF0D338BD1CB5044672
:101760001C480088A04200D11CBD1A48048040F6E5
:1017700061001A2326223A210090A22001F00EFCDB
:10178000012305223A21A220009401F007FC012345
:1017900005223E21A220009401F000FC0523012235
:1017A0003A21A220009401F0F9FB052301223A21FD
:1017B000A620009401F0F2FB032040F661012346CD
:1017C0004322CDE900103921AC2001F009FB00BF14
:1017D000CAE700002A0000202DE9F05F074688468E
:1017E00016469A46DDF828B00EB9BDE8F09F0024F1
:1017F0001FE0002519E0600000EBD50016F800900E
:1018000005F0070C802323FA0CF303EA09030BB15C
:10181000534600E05B461A4608EB040399B27B1975
:1018200098B201F080FB681CC5B2102DE3D3601C98
:10183000C4B2102CDDD300BFD7E70000F0B58BB0E9
:101840000446204600F024FE06462046FFF79EFA96
:101850000746207908B924A50BE0B4F90A0000284E
:1018600006DBB4F90A10F01E814201DA20A500E07F
:1018700021A520782249097888421BD02078204968
:10188000087040F6610010232222622100900E2091
:1018900001F084FB40F6610000902078012801D11E
:1018A000042000E0032002464FF6205362210E2060
:1018B00002F0C3F9334613A2182105A8CDE9005759
:1018C00002F0E0F9012040F661014FF620521223A8
:1018D000CDE90032CDE902100E4B05AA6621362073
:1018E000FFF722FE0BB0F0BD4F46464C494E450077
:1018F00048454154494E4700524541445900000073
:101900001F000020542564432025732025752525BC
:1019100000000000280200202DE9F0470546B5F937
:101920000A40287910B14FF6FF7001E049F6D34024
:101930000646287908B1002C1CDA324640210020E6
:10194000FFF794FD324640210120FFF78FFD32461C
:1019500000210220FFF78AFD31460120FFF7CAFD72
:10196000324640210320FFF781FD3046FFF7F6FEA7
:10197000BDE8F087B4F57A7F01DB40F2E7346420FC
:1019800094FBF0F00A2190FBF1F201FB1200C7B2C8
:101990000A2094FBF0F090FBF1F201FB120000F042
:1019A000FF080A2094FBF0F100FB114000F0FF0952
:1019B000642C02DB1548C05D00E000200146324681
:1019C0000020FFF753FD0A2C03DB104810F8080035
:1019D00000E00020014632460120FFF747FD0B489A
:1019E00010F8091032460220FFF740FD3146012071
:1019F000FFF780FD0548017832460320FFF736FDEA
:101A00003046FFF7ABFE00BFB2E70000A446000877
:101A10002DE9F84304460D4616461F46DDF82080A2
:101A2000A019401E82B22B4629462046CDF80080E0
:101A300001F024FAE819401E83B2A019401E82B2B8
:101A4000E819401E81B22046CDF8008001F016FA58
:101A5000E819401E83B2224629462046CDF8008070
:101A600001F00CFAE919491E8BB2A119491E8AB27C
:101A7000A119491E88B22946CDF8008001F0FEF96F
:101A8000BDE8F8832DE9FC470446884615460CB9A5
:101A9000082004E0012C01D1542000E0A0200646DB
:101AA00015B14FF4FC6001E046F64D30814615B1AA
:101AB0004FF4806000E021200746032C05DA2E4811
:101AC000005DA84201D1BDE8FC87032C01DA2A4859
:101AD000055522234822C4213046009701F05EFAC2
:101AE00022234822C4213046CDF80090FFF790FF12
:101AF0000120F11DCDE9007088B24FF6FF73424618
:101B0000C92101F026FA0120CDE9007015B14FF48A
:101B1000FC6101E046F64D310B460DB117A100E026
:101B200017A10A4606F12A0188B2C92101F011FA6B
:101B30007CB9009715B14FF4FC6101E046F64D31D8
:101B40000B4606F1140188B20522D32102F075F884
:101B500010E0012C0ED1009715B14FF4FC6101E0AB
:101B600046F64D310B4606F1140188B20622D32108
:101B700002F063F800BFA6E7200000204F4E0000EF
:101B80004F4646001CB5082001F03AFA0020182301
:101B9000F0220146009001F001FA40F66100D023E6
:101BA000E8221C210090042001F0F8F941F64510CC
:101BB000D023E8221C2100900420FFF729FF0120F8
:101BC00040F6610140F2FF5312A2CDE9001020213E
:101BD0000C2001F0BEF941F645105C23E6221946BF
:101BE00000900A2001F04AF941F645107C23E622D4
:101BF000194600900A2001F041F941F64510BE2334
:101C0000E622194600900A2001F038F9FFF7B6FCE9
:101C10001CBD0000434831002DE9F04F87B0064657
:101C200088464FF47A70B8FBF0F93C20B9FBF0F02D
:101C30006421B0FBF1F201FB120A3C20B9FBF0F188
:101C400000FB119B307908B1012000E00020044620
:101C500038480078A0420ED03648047014B14FF4D2
:101C6000FC6001E046F64D3008231A461946009004
:101C70002A2001F093F930480078A0421BD02E486A
:101C8000047000201023222204210090082001F07B
:101C900085F90020009014B14FF4FC6001E046F695
:101CA0004D3003460CB1012000E002200246042121
:101CB000082001F0C2FF307910B90227002507E0A3
:101CC0003078012802D10427012501E000270225F0
:101CD0001A480078A84212D0184805700020102336
:101CE0003C22042100905A2001F058F900204FF6C0
:101CF000FF733A4604210090602001F09EFF534696
:101D00000FA2062105A8CDF800B001F0BBFF02200C
:101D100000214FF6FF720523CDE90032CDE9021014
:101D20000A4B05AA0521B020FFF7FEFB07B0BDE86E
:101D3000F08F00001C0000201D0000201E0000206D
:101D40002530326C753A2530326C75001600002053
:101D50002DE9F84307460C4690461D46089E2B4643
:101D6000424621463846009601F088F84CB145B10C
:101D7000681E83B2601E81B242463846009601F06A
:101D80007DF8EF2C0AD2EF2D08D2681C83B2601CBC
:101D900081B242463846009601F070F8BDE8F883FB
:101DA0001CB5082001F02CF900201823F022014670
:101DB000009001F0F3F840F661007023E0222A2140
:101DC0000090082001F0EAF841F645107023E02267
:101DD0002A2100900820FFF71BFE022040F6610137
:101DE0004FF6205314A2CDE9001036211E2001F039
:101DF000B0F8022040F6610149F6D34311A2CDE9C3
:101E0000001058211C2001F0A4F8012040F66101C7
:101E100049F6D3430CA2CDE9001080211C2001F02B
:101E200098F841F64510BE23E622194600900A2094
:101E300001F024F81CBD0000574542204F46464C97
:101E4000494E4500495000005741495420555050D3
:101E50004552204C494E4B002DE9F04387B00446D3
:101E60000E46207F10B104F11C0000E048A081461E
:101E70004FF47A70B6FBF0F53C20B5FBF0F064212E
:101E8000B0FBF1F201FB12073C20B5FBF0F100FBC7
:101E900011583B4640A2062105A8CDF8008001F06C
:101EA000F1FE022000214FF6FF720523CDE900323A
:101EB000CDE902103B4B05AA0521B020FFF734FB0A
:101EC000102249463848FEF78DF9E0B10F22494605
:101ED0003548FEF75DF900203349C87340F66100CC
:101EE0001223A422582100903A2001F057F8022032
:101EF00040F6610140F2FF532B4ACDE90010582112
:101F00003A2001F026F8A07828498978884204D13F
:101F1000E0782649C978884236D040F661000A2325
:101F2000B822702100901C2001F038F8012040F602
:101F30006101CDE90010A07810B140F2FF5001E03E
:101F400046F64D300346A07808B119A000E01AA06B
:101F5000024670211C2000F0FCFF012040F66101C8
:101F6000CDE90010E07810B14FF4FC6001E046F6D6
:101F70004D300346E07808B111A000E012A00246FF
:101F80007021742000F0E5FF07B0BDE8F083000089
:101F9000302E302E302E30002530326C753A253000
:101FA000326C750016000020400200202401002041
:101FB000455350204F4B0000455350204F4646009C
:101FC000574542204F4B0000574542205741495446
:101FD0000000000010B500F00FF910BD10B5044668
:101FE00014B10748007808B9002010BD2422054923
:101FF0002046FEF797F80020014908700120F4E719
:1020000058000020D014002070B59AB004460D4648
:1020100016460EB1304600E00AA00DB1012100E0E5
:102020000021CDE900100CB1204600E007A00346D6
:1020300007A2602102A801F025FE02A800F02EF9F7
:102040001AB070BD4E4F4E45000000003000000039
:1020500041434B207365713D2573206F6B3D2575A2
:1020600020726561736F6E3D25730D0A00000000DC
:1020700030B5F9B004462078FEF706FC054604F1B9
:102080002C0004F11C01637A2269CDE90B32CDE901
:102090000D10207AE179A2796378CDE90732CDE994
:1020A0000910E089B4F90C10B4F90A202379CDE9BC
:1020B0000332CDE90510E178A07807A3084ACDE9FD
:1020C000005002914FF4D27110A801F0DBFD10A86E
:1020D00000F0E4F879B030BD56302E330000000037
:1020E0008C4A000870B5A8B004460D46002616E0DC
:1020F000701CC6B22A466946204600F0D5F9052272
:1021000019A16846FEF76EF848B95F220DF1050186
:1021100004F12C00FEF73CF8002184F88B10082E07
:1021200005D2A021684600F027F80028E0D1104829
:10213000006840B10E480068281A42F210718842C7
:1021400001D8012000E00020A070A07810B9002084
:1021500008490870A07810B10648007800E0002017
:10216000E07028B070BD00004449414720000000E5
:102170005C0000207000002030B502460B4602B122
:102180000BB9002030BD72B61848007810B962B69D
:102190000020F7E700210DE01548007800EB8000F3
:1021A000144C04EB4010405C5054505C00B906E005
:1021B000481C81B2581E884201D9A029ECD300BF27
:1021C0000024581E14540A480078401C0C24B0FB0C
:1021D000F4F504FB1500064C207004480078401EFE
:1021E000024C207062B60120CCE700003E000020C7
:1021F0003D0000205006002000B587B001214804B2
:1022000000F06CFC0121042000F078FC0420ADF803
:10221000180018208DF81B0003208DF81A0006A95D
:102220001C4800F06DF80820ADF8180004208DF867
:102230001B0006A9174800F063F84FF4E130029044
:102240000020ADF80C00ADF80E00ADF81000ADF8B0
:1022500014000C20ADF8120002A90F4801F078FC20
:1022600026208DF8040000208DF8050001208DF84F
:1022700006008DF8070001A800F0A4FA012240F240
:102280002551054801F03EFC0121034801F0FBFB0C
:1022900007B000BD000801400044004070B504468E
:1022A0001FE072B612480088401C4FF44071B0FB2A
:1022B000F1F201FB12050F480088854201D162B698
:1022C00070BD14F8010B0C49094A1288885408485B
:1022D0000580012240F22771084801F013FC62B624
:1022E00000BF14B120780028DBD100BFE8E7000070
:1022F0004400002046000020700E002000440040F2
:102300002DE9F0410246002500260020002300248C
:10231000002791F803C00CF00F0591F803C00CF0F2
:10232000100CBCF1000F03D091F802C04CEA050577
:1023300091F800C0BCF1000F31D0146800202BE0F0
:102340004FF0010C0CFA00F3B1F800C00CEA0306E0
:102350009E4220D183004FF00F0C0CFA03F7BC43D0
:1023600005FA03FC4CEA040491F803C0BCF1280F01
:1023700006D14FF0010C0CFA00FCC2F814C00AE0C0
:1023800091F803C0BCF1480F05D14FF0010C0CFAD5
:1023900000FCC2F810C0401C0828D1D31460B1F86A
:1023A00000C0BCF1FF0F34DD546800202EE000F1C6
:1023B000080C4FF0010808FA0CF3B1F800C00CEA61
:1023C00003069E4221D183004FF00F0C0CFA03F755
:1023D000BC4305FA03FC4CEA040491F803C0BCF1C9
:1023E000280F05D100F1080C08FA0CF8C2F8148087
:1023F00091F803C0BCF1480F07D100F1080C4FF071
:10240000010808FA0CF8C2F81080401C0828CED346
:102410005460BDE8F0814161704701617047000080
:102420000246072A21D2DFE802F004080C10141833
:102430001C00032008700F487047022008700E48E7
:10244000FAE7022008700D48F6E7022008700C48F1
:10245000F2E7022008700B48EEE7022008700A48F5
:10246000EAE7022008700948E6E70020087000BF8C
:10247000E2E7000058480008644800086C4800087B
:10248000744800087C480008844800088C4800080C
:102490000146B1F90C00002802DDB1F90C007047CB
:1024A0004FF4AF70FBE7000070B588B005460C46EE
:1024B00016462D48066003222CA12046FDF792FE09
:1024C00028B9E11C284601F061F808B070BD10235E
:1024D00001AA27A1204600F0B7F918B101A92846A2
:1024E00001F054F8032223A12046FDF77BFE58B9E2
:1024F000E078312801D1012000E000201E49087059
:1025000008460078E870E0E704221CA12046FDF7A9
:1025100069FE38BB24211B48FDF71DFE1023194A14
:1025200019A1204600F090F918B9164818A1098899
:1025300001801023134A103216A1204600F084F9BE
:1025400000B9C2E70C2305AA14A1204600F07CF9CB
:1025500000B9BAE705A8FDF754FE0A490862012050
:102560001049087000BFB0E75C00002049503D00F2
:1025700069703D0057533D0070000020434D4420DA
:1025800000000000D01400207365713D00000000C1
:10259000300000007461726765743D0076616C758F
:1025A000653D000058000020F8B504460E4615466B
:1025B0001A4805606561012020716A4618A13046FD
:1025C00000F077F958B96A4617A1304600F071F962
:1025D00028B96A4616A1304600F06BF910B1BDF972
:1025E000000060816A4613A1304600F062F910B124
:1025F000BDF90000A0816A460FA1304600F059F9EC
:1026000010B1BDF80000E0815F22314604F12C00DA
:10261000FDF7BEFD002184F88B10F8BD740000208A
:1026200054454D500000000054656D7000000000DE
:1026300054000000530000005600000000BFFEE7F9
:1026400010B500F065F810BD70B598B005460C46A1
:10265000002606E0701CC6B2224669462846FFF7EF
:10266000A3FF082E05D26021684600F015F8002867
:10267000F0D10848006840B106480068201A40F6CA
:10268000B831884201D8012000E00020287118B03C
:1026900070BD00007400002010B502460B4602B168
:1026A0000BB9002010BD72B61648007810B962B69A
:1026B0000020F7E700210DE01348007800EB400010
:1026C000124C04EB4010405C5054505C00B906E0E2
:1026D000481C81B2581E884201D96029ECD300BF42
:1026E0000024581E145408480078401C00F00700CD
:1026F000054C207003480078401E024C207062B6E2
:102700000120CFE74A00002049000020701100207E
:1027100000B587B00121880400F0E0F9012108200C
:1027200000F0ECF94FF48060ADF8180018208DF837
:102730001B0003208DF81A0006A91E48FFF7E0FDD4
:102740004FF40060ADF8180004208DF81B0006A9B6
:102750001848FFF7D5FD4FF4E13002900020ADF8A6
:102760000C00ADF80E00ADF81000ADF814000C2010
:10277000ADF8120002A9104801F0EAF927208DF8FF
:10278000040000208DF8050002208DF806000120CD
:102790008DF8070001A800F015F8012240F225513C
:1027A000054801F0AFF90121034801F06CF907B0C9
:1027B00000BD0000000C01400048004000BFFEE7E3
:1027C0007047000070B5002100230F22C47804B3C5
:1027D000154C246804F4E064C4F5E064210AC1F1F6
:1027E0000403CA40447804FA03F184781440214376
:1027F00009010E4C0678A155047804F01F05012448
:10280000AC4005786D11AD0005F1E025C5F800413B
:1028100009E0047804F01F050124AC40044D06785B
:10282000761145F8264070BD0CED00E000E400E0B4
:1028300080E100E002490143024A11607047000054
:102840000000FA050CED00E02DE9F04781460F4647
:10285000154698460026B9F1000F04D01FB115B1F6
:10286000B8F1000F02D10020BDE8F0873946484694
:10287000FDF77CFC04460CB90020F5E73846FDF76F
:1028800093FC044405E014F8012B3046711CCEB2D1
:102890002A54207830B12078202803D0A8F10100F4
:1028A000B042F0D80020A8550EB10120DCE700208E
:1028B000DAE72DE9F04107460E461546314638461F
:1028C000FDF754FC044604B115B90020BDE8F081C1
:1028D0003046FDF769FC044400E0641C20782028A1
:1028E000FBD020783A28F8D020783D28F5D0207801
:1028F0002D2806D0FDF712FC00682178405C2028C6
:1029000006D12046FDF77DFC00B228800120DDE7DE
:102910000020DBE77047000008B50121042000F02B
:10292000EDF80220ADF8000004208DF8030003202C
:102930008DF8020069460248FFF7E2FC08BD00007E
:1029400000080140002070470020704710B5014684
:10295000002900DA10BD104A12783C2A09D20E4A2A
:1029600013781278521C0C4C22700C4A22F8131067
:102970000FE0012008E0094A32F81030421E074CEF
:1029800024F81230421CD0B23C28F4D3034AA2F8F7
:10299000761000BFDEE700000D000020B00100202F
:1029A00010B51E4A117800221D4B1E4C24881A5562
:1029B00000200DE01A4A125C01EB81031A4C04EB73
:1029C00043131A54164A125C02B903E0421CD0B2F7
:1029D000A028EFD300BF114A1278521C0C23B2FB7F
:1029E000F3F403FB14220D4B1A70104A12780C2AD0
:1029F00005D20E4A1278521C0C4B1A7009E00C4A90
:102A00001278521C0C23B2FBF3F403FB1422084B84
:102A10001A700022034B1A8010BD00003C000020F9
:102A2000D00D002040000020500600203E00002075
:102A30003D00002010B51B4A117800221A4B1B4C98
:102A400024881A5500200DE0174A125C01EB41035F
:102A5000174C04EB43131A54134A125C02B903E0F7
:102A6000421CD0B26028EFD300BF0E4A1278521C2D
:102A700002F007020B4B1A700E4A1278082A05D290
:102A80000C4A1278521C0B4B1A7006E00A4A127854
:102A9000521C02F00702084B1A700022034B1A80E6
:102AA00010BD000048000020701400204C000020E1
:102AB000701100204A0000204900002029B1064A78
:102AC00052690243044B5A6104E0034A526982434B
:102AD000014B5A61704700000010024029B1064ABC
:102AE000D2690243044BDA6104E0034AD2698243AB
:102AF000014BDA61704700000010024029B1064A1C
:102B000092690243044B9A6104E0034A926982434A
:102B1000014B9A61704700000010024030B500215F
:102B20000022002400232D4D6D6805F00C0121B119
:102B3000042905D0082923D105E0294D056022E0AC
:102B4000274D05601FE0254D6D6805F47012234D7B
:102B50006D6805F48034022505EB92421CB9214DC5
:102B6000554305600BE01D4D6D6805F400351DB142
:102B70001C4D5543056002E0194D5543056002E0C8
:102B8000174D056000BF00BF144D6D6805F0F001E2
:102B90000909154D6B5C0568DD4045600F4D6D689A
:102BA00005F4E061090A104D6B5C4568DD40856005
:102BB0000A4D6D6805F46051C90A0B4D6B5C4568A0
:102BC000DD40C560054D6D6805F44041890B074D3A
:102BD0006B5CC568B5FBF3F5056130BD00100240C4
:102BE00000127A0000093D008000002090000020C3
:102BF00010B50021084600F043F80021012000F044
:102C00003FF80021022000F03BF810BD10B504464B
:102C10002178002000F034F86178012000F030F8CD
:102C2000A178022000F02CF810BD000008B50121A9
:102C30000820FFF763FF4FF4E040ADF800001020DC
:102C40008DF8030003208DF8020069460248FFF763
:102C500057FBFFF7CDFF08BD000C0140014621B135
:102C6000012905D0022909D105E04FF40050704731
:102C70004FF48050FBE74FF48040F8E70020F6E780
:102C800070B504460D462046FFF7E8FF06460EB134
:102C9000032C00DB70BD0DB1012000E000200749CE
:102CA000085525B131460648FFF7B7FB03E031462A
:102CB0000348FFF7B0FB00BFECE700005500002021
:102CC000000C014010B5FF228C211848FDF73CFA9A
:102CD000FF2206211648FDF737FAFF221821154872
:102CE000FDF732FAFF2204211348FDF72DFAFF22E7
:102CF00003211248FDF728FA002011490870FF202F
:102D000010490870002010490880FF200F49087002
:102D10000F4908700F4908700F49087000200F49CB
:102D20000870401E0E49086010BD000024010020FC
:102D300016000020280200200E00002020000020A5
:102D40004002002012000020140000201C0000207F
:102D50001D0000201E0000201F0000200D0000208C
:102D60002400002021B1028842F04002028004E0E9
:102D700002884FF6BF731A40028070471AB18388E9
:102D80000B43838002E083888B4383807047024635
:102D9000002013890B400BB1012000E00020704798
:102DA0008181704710B50022028802F441520B88DD
:102DB0004C8823438C882343CC8823430C892343AA
:102DC0004C8923438C892343CC8923431A430280B3
:102DD000838B4FF2FF74234083830B8A038210BDE1
:102DE0002DE9FC5F8046894614469A460D9D05B93B
:102DF0000125612C04DB7A2C02DCA4F12000C4B292
:102E0000202C01DB5A2C00DD3F24A4F1200000F02F
:102E1000FF0B0C98EB00009005EB45004200494683
:102E2000404600F0BBF8002622E0052E05D20BEB51
:102E30008B0011490844805D00E0002001900027CC
:102E400012E00120B8400199084058B107FB0592F3
:102E500091B206FB058290B22B462A46CDF800A01F
:102E600000F09CF8781CC7B2082FEAD3701CC6B2D9
:102E7000062EDAD3BDE8FC9F944800082DE9FC5FDC
:102E800004460D4616461F46B44202DDA01B00B2A2
:102E900001E0301B00B28246B44201DA012001E0B9
:102EA0004FF0FF300190BD4202DDE81B00B201E0AF
:102EB000781B00B28146BD4201DA012001E04FF0EB
:102EC000FF300090CA4501DD514601E0C9F1000123
:102ED000084601EBD07149100FFA81F800BF29466E
:102EE00020460C9A00F01FF8B44202D1BD4200D136
:102EF00016E0C346D846CAF10000834506DDA8EBBC
:102F000009000FFA80F80198204484B2CB45E6DA34
:102F100008EB0A000FFA80F80098284485B2DEE733
:102F200000BFBDE8FC9F70B506460C461546F02E66
:102F300001D2F02C00D370BD00F05EFA01231A46D6
:102F40002146304600F0C6F9284600F081FA00BF5D
:102F5000F1E72DE9FC4705460F4614469846DDE9A2
:102F60000A9614E0CDE90096227843463946284671
:102F7000FFF736FF062000FB065085B2641C06EB07
:102F800046004000C0F1F000A84200D803E014B1B0
:102F900020780028E6D100BFBDE8FC872DE9F04786
:102FA00004460D4616461F46DDF82090F02C03D24D
:102FB000F02D01D206B10FB9BDE8F08700F01CFA80
:102FC000A019F02802D9C4F1F00086B2E819F0285F
:102FD00002D9C5F1F00087B23B4632462946204669
:102FE00000F078F94FF0000804E0484600F030FAAD
:102FF00008F1010806FB07F04045F6D800BFDBE703
:1030000038B50446F0231A46002108460094FFF71D
:10301000C5FF38BD00B599B0012141F60C00FFF79E
:103020006DFD01210846FFF749FDA020ADF86000C5
:1030300018208DF8630003208DF8620018A95C4801
:10304000FFF75EF94FF48070ADF8600018208DF83E
:10305000630018A95648FFF753F90320ADF8600044
:1030600010208DF8630018A95248FFF749F9022192
:103070005048FFF7D2F901214E48FFF7CEF94FF43F
:103080004040ADF84C004FF48270ADF84E00002087
:10309000ADF850000220ADF852000120ADF8540008
:1030A0004002ADF856000020ADF85800ADF85A00C7
:1030B0000720ADF85C0013A93F48FFF773FE01211C
:1030C0003D48FFF74FFE3D48FDF70EFF3A480C30F4
:1030D00008903B48099010200A9001200B90002096
:1030E0000C9080200D9000200E900F9010904FF4C7
:1030F000005011900020129008A93048FDF7B9FF48
:1031000001220A212D48FDF7ABFF012202212A48A6
:10311000FFF734FE0D208DF8000001208DF801002E
:103120008DF802008DF803006846FFF74BFB40F274
:10313000E730ADF818004720ADF814000020ADF8D6
:103140001A00ADF816008DF81C0005A91D4800F006
:1031500033FB6020ADF804000120ADF8060000202C
:10316000ADF8080040F2E730ADF80A000020ADF8F5
:103170000C00ADF80E00ADF81000ADF8120001A97A
:10318000104800F0C1FA08210E4800F009FB0121A7
:103190000C4800F071FA01210A4800F08BFA012175
:1031A000084800F07BFA552000F0BAF819B000BDCD
:1031B00000080140000C0140003001403000024096
:1031C000F4140020002C014010B5FFF723FF01216B
:1031D0003648FFF720F9142001F018FA012133488E
:1031E000FFF71BF9782001F011FA362000F024F9DE
:1031F000002000F03DF93A2000F01EF9052000F013
:1032000037F9B22000F018F90C2000F031F90C2049
:1032100000F02EF9002000F02BF9332000F028F9FF
:10322000332000F025F9B72000F006F9352000F032
:103230001FF9BB2000F000F9192000F019F9C02097
:1032400000F0FAF82C2000F013F9C22000F0F4F896
:10325000012000F00DF9C32000F0EEF8122000F07C
:1032600007F9C42000F0E8F8202000F001F9C6209A
:1032700000F0E2F80F2000F0FBF8D02000F0DCF8BE
:10328000A42000F0F5F8A12000F0F2F8112000F0E1
:10329000D3F8782001F0BAF9292000F0CDF81420F5
:1032A00001F0B4F90020FFF7ABFE10BD000C0140A7
:1032B00010B50648007828B90548007810B900F024
:1032C00059F908B1012010BD0020FCE77900002069
:1032D000780000202DE9F04705460C4616461F46AB
:1032E000A819401E1FFA80F8E019401E1FFA80F945
:1032F0002A2000F0A1F8284600F0AAF8404600F085
:10330000A7F82B2000F098F8204600F0A1F84846D6
:1033100000F09EF82C2000F08FF8BDE8F087000048
:1033200070B50446642C00D9642440F2E730604351
:103330006421B0FBF1F5A9B2014800F03AFA70BD82
:10334000002C014010B504462CB11248007810B989
:1033500000F010F900B110BD02210F48FFF75DF831
:1033600001200C49087000210C48FDF7B1FD2146F1
:103370000A48FDF79CFE0A4808493039C8634FF4F3
:103380007060FDF789FD01210448FDF7A1FD00BF34
:10339000E1E7000078000020000C0140300002400E
:1033A000F414002010B50F48007828B10E480078BA
:1033B00010B900F0DFF800B110BD0C4800880C49CE
:1033C0000988884203DB002006490870F4E70948B1
:1033D0000088FFF7B7FF05480088401C03490880B4
:1033E00000BFE9E779000020780000207C00002081
:1033F0007A0000207E00002010B501E0FFF7D2FF28
:10340000FFF756FF0028F9D110BD000010B50446A3
:1034100000BF02210748FFF7BAFC0028F9D0214677
:103420000448FFF7BDFC00BF00F0A4F80028FBD162
:1034300010BD00000030014010B5044602210348D1
:10344000FEF7E9FF2046FFF7E1FF10BD000C014049
:1034500010B5044602210548FEF7DFFF2012FFF7F2
:10346000D5FFE0B2FFF7D2FF10BD0000000C014015
:1034700010B5044602210348FEF7CFFF2046FFF7B0
:10348000C5FF10BD000C0140704710B500F002F8F8
:1034900010BD00000CB5002001900090334800687A
:1034A00040F480303149086000BF3048006800F4C3
:1034B000003000900198401C0190009818B90198C4
:1034C000B0F5A06FF1D12948006800F4003010B1C8
:1034D0000120009001E0002000900098012843D1D5
:1034E0002348006840F01000214908600846006841
:1034F00020F0030008600846006840F00200086001
:103500001A484068194948600846406848600846BB
:10351000406840F4806048600846406820F47C10B1
:1035200048600846406840F4E81048600846006873
:1035300040F08070086000BF0C48006800F0007028
:103540000028F9D00948406820F003000749486086
:103550000846406840F00200486000BF03484068E9
:1035600000F00C000828F9D10CBD0000001002404A
:103570000020024010B580210348FFF708FC012815
:1035800000D110BD0020FCE70030014070B50446BA
:103590000D4614B10DB1287800B970BD0F2229462F
:1035A0000748FCF7F5FD00200549C8730F2204F118
:1035B0001C00FCF7EDFD00212B20015500BFECE7BE
:1035C00060000020042808D14FF0E021096941F093
:1035D00004014FF0E022116107E04FF0E02109699A
:1035E00021F004014FF0E0221161704770470000A4
:1035F00010B51348006840F0010011490860084602
:103600004068104908400E494860084600680E4965
:1036100008400B4908600846006820F480200860D4
:103620000846406820F4FE0048604FF41F008860A0
:10363000FFF72BFF4FF000600449086010BD000049
:10364000001002400000FFF8FFFFF6FE08ED00E06A
:1036500010B50121064800F03CF840B101210448B2
:1036600000F019F803480068401C0249086010BDCA
:10367000000400403000002021B1028842F08002A6
:10368000028004E002884FF67F731A400280704780
:10369000CA4302827047CA430282704721B102883E
:1036A00042F00102028004E002884FF6FE731A40E5
:1036B0000280704731B1B0F8442042F40042A0F8D3
:1036C000442005E0B0F84420C2F30E02A0F84420E4
:1036D000704730B50246002000230024158A05EA11
:1036E0000103958905EA010413B10CB1012000E042
:1036F000002030BD1AB183890B43838102E08389A6
:103700008B4383817047000070B5002400220023A2
:10371000058C4FF6FE7635400584028C8388048B39
:103720004FF68F752C40B51E2C400D882C43751E0E
:103730002A400D892A434D882A43144DA8420BD0B4
:10374000134DA84208D0134DA84205D0124DA842EF
:1037500002D0124DA84213D14FF6F7752A404D8979
:103760002A434FF6FB752A408D882A434FF6FF65A2
:103770002B404FF6FF552B408D892B43CD892B4392
:1037800083800483CD888586028470BD002C01402F
:103790000034014000400140004401400048014025
:1037A0000A460021018B4FF6F7731940114301833C
:1037B0007047818670470000002202881D4B9842A6
:1037C0000ED01D4B98420BD0B0F1804F08D01B4B50
:1037D000984205D01A4B984202D01A4B984204D115
:1037E0004FF68F731A404B881A43174B984207D0F5
:1037F000164B984204D04FF6FF431A40CB881A4329
:1038000002808B8883850B8803850A4B98420BD0F6
:10381000094B984208D00E4B984205D00D4B984268
:1038200002D00D4B984201D10B7A0386012383828B
:1038300070470000002C01400034014000040040AB
:1038400000080040000C0040001000400014004040
:1038500000400140004401400048014001460A4642
:10386000962A00DA9622B2F5C87F01DD4FF4C872BD
:10387000A2F1960000EB00104000FA2390FBF3F059
:10388000C0F1AA0080B2704772B60249086862B6F9
:1038900070470000300000201FB501210220FFF713
:1038A0001DF940F2E730ADF808004720ADF80400FC
:1038B0000020ADF80A00ADF806008DF80C0001A953
:1038C0000F48FFF779FF01210D48FFF7E1FE0122C4
:1038D00011460B48FFF70EFF1D208DF80000022057
:1038E0008DF8010000208DF8020001208DF8030002
:1038F0006846FEF767FF01210148FFF7CFFE1FBDB5
:103900000004004010B540F227712E4800F0D0F8B6
:10391000F0B12D4800882D490988884212D02C48E2
:10392000294A1288815C274800F083F926480088DC
:10393000401C4FF44071B0FBF1F201FB1200224930
:10394000088005E0002240F227711E4800F0DAF8F6
:1039500040F225511B4800F0ABF850B340F225511E
:10396000184800F081F8174800F05EF9C4B2194811
:10397000007848B10D2C01D00A2C04D10020154943
:1039800008701549088010BD0D2C01D00A2C05D1F6
:103990001148008868B1FFF703F811E00E4800886D
:1039A0009F2807D20C490888411C0B4A11800B49FB
:1039B0000C5405E0002008490880012005490870E2
:1039C00000BFE0E700440040460000204400002023
:1039D000700E00204200002040000020D00D00208A
:1039E00010B540F225511C4800F062F8002831D093
:1039F00040F22551184800F037F8174800F014F944
:103A0000C4B21648007848B10D2C01D00A2C04D15C
:103A10000020124908701249088010BD0D2C01D0F9
:103A20000A2C05D10E480088A0B1FFF703F811E079
:103A30000B4800885F2807D209490888411C084ABA
:103A4000118008490C5405E0002005490880012038
:103A50000249087000BFE0E7004800404E00002027
:103A60004C0000207014002010B50022002340F606
:103A70006A14A14200D100BF0A1201249440A3B2EB
:103A8000DC43048010BD21B1828942F4005282815E
:103A900004E082894DF6FF731A40828170471AB1A3
:103AA000838A0B43838202E0838A8B43838270473D
:103AB00070B50246002400230025002040F66A1657
:103AC000B14200D100BFC1F3421501F01F0301262E
:103AD00006FA03F3012D02D19689334006E0022D48
:103AE00002D1168A334001E0968A33400C12012637
:103AF00006FA04F41688344013B10CB1012000E03A
:103B0000002070BDF0B503460024002600250020EB
:103B100040F66A17B94200D100BF1846C1F34214FB
:103B200001F01F06012707FA06F5012C01D10C3020
:103B300004E0022C01D1103000E014301AB1076803
:103B40002F43076002E00768AF430760F0BD000045
:103B50002DE9F04786B005460E460024A24600BF78
:103B6000A1460027B08900B100BF2F462C8A4CF631
:103B7000FF700440F08804432C82AC894EF6F310A9
:103B80000440B08831890843718908430443AC81FB
:103B9000AC8A4FF6FF400440B0890443AC8201A8D0
:103BA000FEF7BCFF1F48874202D1DDF810A001E0FC
:103BB000DDF80CA0A88900F4004040B10AEBCA006F
:103BC00000EB0A1031684900B0FBF1F807E00AEB9E
:103BD000CA0000EB0A1031688900B0FBF1F86420DC
:103BE000B8FBF0F004012009642101FB1089A889C9
:103BF00000F4004040B1322000EBC900B0FBF1F00E
:103C000000F00700044308E0322000EB09106421B3
:103C1000B0FBF1F000F00F0004432C8106B0BDE8CA
:103C2000F08700000038014001468888C0F3080092
:103C30007047C1F30802828070472DE9FC470546B2
:103C40000F4616469846DDF8289001A93046FEF743
:103C5000E7FB824600240CE0CDF800905AF82420BF
:103C600005EB041188B243463946FDF7B5FD601CEB
:103C7000C4B29DF804008442EEDBBDE8FC8700BFBF
:103C8000FEE700000FB41CB50246002007AC002977
:103C90000BD0491ECDE90021054B6A462146069806
:103CA00000F0F4F8009A002111701CBC5DF814FBC0
:103CB000BB4500087CB5044600201D461646002979
:103CC0000BD0491ECDE90041044B6A4629463046D7
:103CD00000F0DCF8009A002111707CBDBB450008A3
:103CE000004870479400002002E008C8121F08C175
:103CF000002AFAD170477047002001E001C1121F6D
:103D0000002AFBD1704700002DE9FF5F82B000213F
:103D1000DDE90430020DDDF840B0034318D044F66D
:103D20001050A2F2FF3242431514119801281FD0FF
:103D3000A5EB0B00401C5FEA000A4FF000064E4F57
:103D4000DFF83891B046504615D5CAF1000413E0AB
:103D5000119801244AA3012801D16FEA0B010298AE
:103D6000119AC0E90031C0E9024206B0BDE8F09FF7
:103D7000CBF10000DFE704460021404A491842EB3E
:103D80000450CDE9001012E0E00707D032463B4670
:103D900040464946FCF768FB8046894632463B462A
:103DA00010461946FCF760FB06460F466410002CCF
:103DB000EAD1DDE90401DDE90023BAF1000F06DAFA
:103DC000FCF752FB42464B46FCF74EFB05E0FCF786
:103DD000BDFB42464B46FCF7B9FB04460E460022AB
:103DE000284BFCF73BFC03D84FF0FF30014607E0BF
:103DF0000022254B20463146FCF78FFAFCF715FCD4
:103E0000102409E0002C0ADB0A220023FCF71CFA2C
:103E1000039B30321A55641E50EA0102F2D1641C31
:103E2000039AC4F111031444119A012A03D0012208
:103E300008430DD10AE0084304D000204FF0110BD5
:103E4000119072E7A3EB0B056D1E0DE05B4504DDE1
:103E50004FF0000205F1010504E003DA4FF0000223
:103E6000A5F10105002AECD002981199C0E90231B0
:103E7000C0E9004579E70000000014400000F03F71
:103E8000300000000000F0430000E03F2DE9FF4F4C
:103E900095B09B468946064600250FE2252877D136
:103EA00000242746F84A0121059400E0044316F84F
:103EB000013F203B01FA03F01042F7D130782A2865
:103EC00011D06FF02F033078A0F13002092A16D8F4
:103ED000059A44F0020402EB820203EB4202104412
:103EE000761C0590EFE759F8042B0592002A03DAB7
:103EF000504244F40054059044F00204761C30789B
:103F00002E2816D116F8010F44F004042A280DD0EB
:103F10006FF02F023078A0F13003092B09D807EB9E
:103F2000870302EB4303C718761CF3E759F8047BB9
:103F3000761C30786C280FD006DC4C2817D0682807
:103F40000DD06A2814D104E0742810D07A280FD13B
:103F50000DE044F400140AE044F4801401E044F459
:103F600040147278824202D104F58014761C761CCB
:103F7000307866280BD013DC582877D009DC00286D
:103F800075D04528F6D04628F4D047281AD19DE1AF
:103F900018E0632835D0642879D0652812D195E1DE
:103FA000702873D008DC6728F1D069286FD06E289C
:103FB0000DD06F2806D1B5E073282CD0752875D0A8
:103FC000782874D05A46179990476D1C75E1C4F350
:103FD0000250022809D003280DD0D9F80010042877
:103FE0000DD00D6009F1040967E1D9F80010EA1756
:103FF000C1E90052F6E7D9F800100D80F2E70D7024
:10400000F0E719F8041B8DF8001000208DF801006E
:10401000EA46012003E059F804AB4FF0FF30610796
:104020004FF0000102D40DE008F101018846B942C9
:104030000FDA8045F8DB1AF808100029F4D108E0FF
:1040400008F1010188468142FADB1AF808100029BC
:10405000F6D105985B46A0EB080721463846179A2B
:1040600000F094FA284400EB080507E04DE029E150
:104070000DE01AF8010B5A4617999047B8F101085C
:10408000F7D25B4621463846179A13E142E00A22EE
:104090000092C4F302524FF0000A022A08D059F8E5
:1040A00004CB032A4FEAEC710AD00DE029E02AE0A4
:1040B00009F1070121F00702F2E802C1914609E087
:1040C0000FFA8CFC4FEAEC71042A03D14FFA8CFCF6
:1040D0004FEAEC71002907DA0A460021DCF1000CF6
:1040E00061EB02012D2202E0220504D52B228DF87E
:1040F0000420012203E0E20701D02022F7E79046E6
:1041000059E00A2102E010220DE010214FF0000AD0
:1041100000910BE010224FF0000A44F0040408273D
:10412000009203E008224FF0000A0092C4F302520A
:10413000022A05D059F804CB0021032A08D009E04F
:1041400009F1070121F00702F2E802C1914605E0FA
:104150001FFA8CFC042A01D10CF0FF0C4FF0000870
:10416000220728D5702806D0009B83F0100353EA5D
:104170000A0305D00EE040228DF80420012208E059
:104180005CEA010206D030228DF804208DF805008B
:1041900002229046009B83F0080353EA0A030AD1E7
:1041A0005CEA010201D1620705D530228DF80420B6
:1041B0004FF001087F1E582804D034A003900EA8A9
:1041C00002900DE036A0F9E753466046009AFCF7EE
:1041D0003BF884460398825C0298401E029002706D
:1041E0005CEA0100F0D1029806A9081A00F1200A41
:1041F000600702D524F4803400E00127574502DD32
:10420000A7EB0A0000E0002000EB0A0100900598EF
:104210004144401A0590E00306D45B462146179AB4
:10422000059800F0B3F90544002706E001A85A46B6
:10423000C05D179990476D1C7F1C4745F6DBE00376
:104240000CD55B462146179A059800F09FF9054466
:1042500004E030205A46179990476D1C0099481E7B
:1042600000900029F5DC08E0029802995A4600788F
:10427000491C0291179990476D1CBAF10001AAF1EF
:10428000010AF1DC65E10000092801003031323318
:104290003435363738396162636465660000000082
:1042A000303132333435363738394142434445466C
:1042B0000000000000F058F90544761C3078002812
:1042C0007FF4ECAD19B02846BDE8F08F620700D44A
:1042D000062709F1070222F0070CFCE80223E14659
:1042E00003F000485FEA080C02D00FF2702C0DE0DA
:1042F0005FEA045C02D50FF2682C07E05FEAC47C39
:1043000002D00FF2602C01E0AFF2700C4FF0FF38DA
:1043100023F00043CDF850C065280CD006DC4528BA
:1043200009D046281DD047283DD13DE0662818D049
:1043300067287ED138E00021112F01DB112000E039
:10434000781CCDE9000106A90EA8FFF7DDFCDDE928
:104350000F010E9A03910021009207F1010A0491C6
:104360004DE04FF000400097CDE9011006A90EA8DE
:10437000FFF7CAFCDDE90F0203920E9B11990022A0
:10438000DDF80CA00093049211B9791C00EB010A2E
:10439000B7EB0A0004D4C0F1FF3007F1010A049022
:1043A000AAEB0700019044E0012F00DA0127002169
:1043B000112F01DD112000E03846CDE9000106A9EA
:1043C0000EA8FFF7A1FCDDE90F010E9A0391002171
:1043D00004910092BA4621070CD40399514500DAA2
:1043E0008A46BAF1010F05DD009AAAF10101515C7C
:1043F000302908D0B84202DA10F1040F06DA0121A0
:10440000CDE9011015E0AAF10101E9E7002805DC7A
:10441000049901440491AAEB000102E0411C5145BA
:1044200000DD8A460499401A401C01904FF000407C
:104430000290200704D40198504501DBCDF8048098
:1044400000208DF84F0002980DF14F07B0F1004F9A
:1044500025D02B200E9002984FF0020800280CDA8D
:10446000404202902D200E9007E00A210298FBF7AF
:10447000D5FE3031029007F8011DB8F10001A8F116
:104480000108F2DC02980028EFD1791E0E9808701E
:10449000307800F0200040F0450007F8020D12A827
:1044A000C01B00F107081498007800B1012000EB50
:1044B0000A01019801EBE07105984144401A401E41
:1044C0000590E00306D45B462146179A059800F054
:1044D0005DF805441498007818B15A46179990472A
:1044E0006D1CE00324D55B462146179A059800F021
:1044F0004DF805441CE00498002807DBDDE90301C2
:10450000884203DD0098405C179901E0179930203C
:104510005A469047049805F10105401C0490019803
:10452000401E019004D12E205A46179990476D1CC9
:10453000BAF10001AAF1010ADDDC05E017F8010B70
:104540005A46179990476D1CB8F10001A8F101086F
:10455000F4DC5B462146179A0598ABE62D00000077
:104560002B000000200000002DE9F041044600254A
:104570001E461746880404D405E039462020B0477B
:104580006D1C641EF9D52846BDE8F0812DE9F04187
:10459000044600251E469046C80301D5302700E09A
:1045A0002027880404D505E041463846B0476D1CF5
:1045B000641EF9D52846BDE8F0814A68002A06D075
:1045C0000A68531C0B6010704868401E48607047B2
:1045D00010B504466FF00400FEF7F4FFE11704EB9A
:1045E0005171C1F3C701074A11701046007800EB02
:1045F0004001C1EBC0104FF6FF7101EAC000024953
:10460000088010BD2C0000202E00002001460D4A1D
:1046100012884A434FF0E0235A6100229A61012236
:104620001A6100BF4FF0E022106900F001021AB1D8
:1046300000F48032002AF5D000224FF0E0231A6106
:104640009A6170472E000020FEF7D2FF4820FFF746
:10465000BFFFFCF783F922E0FFF716F90446FEF7E7
:10466000A1FE21460E48FDF73DFD21460C48FDF711
:10467000EBFFFCF761F9FCF73BF92046FCF7B4FAD5
:104680002046FCF74BFA2046FCF75CFA214604482A
:10469000FCF73EFE024881782046FCF741FBDBE751
:1046A000980000203F065B4F666D7D077F6F12000C
:1046B000340056008400000000003FFC3FFC0180F5
:1046C00001800180018001800180018001800180E2
:1046D0007FFE7FFE0000000000000CC018C01980A3
:1046E00019FE33407640707C504010401040107EE0
:1046F00010401840184010400180018001803FFCAC
:10470000318C2184218421843FFC2184018001801B
:1047100001800180010000000000030003003FFE53
:104720003FFE06400C601C601BFC3BFC7860186080
:1047300018601A661FFE180010C010D83048244CAC
:104740006DF87BC0185E13F0706C7C7800303E70A2
:1047500071DA030E00000000000001807FFE0420DB
:1047600017E033EC16343FFC018003803FFE262621
:104770002FF62F96200E200C00001FFC3F8001809A
:1047800001803FFC018001807FFE0180018001806B
:104790000180038002000000003000307E3000B055
:1047A00000FE7F327F3210221226322667667F4655
:1047B00000C6019C000000000000030003001FF879
:1047C0001FFC100C1FFC1FFC100C1FFC1FFC100C0E
:1047D000100C1FFC100C000001FC3DFC2464244460
:1047E00024CC3D9C24FC24C424843CFC0000244CA8
:1047F0002664626640000000007C7EFE66C666C4D9
:1048000064FC7CC464C464C464FC7E846684618487
:104810000184031C0000000010D810D810D87FDEDF
:1048200078D810D813DE1FDE70D850D813DE13DE10
:1048300010D870D82000000000003FF83018105841
:10484000345836D833983198319833C826482C6A72
:10485000600E400600000000B8460008D846000878
:10486000F84600081847000838470008584700086D
:10487000384700087847000898470008B8470008FC
:1048800098470008D8470008F8470008184800086B
:1048900038480008000000000000005F000000072A
:1048A000000700147F147F14242A7F2A1223130880
:1048B000646236495522500005030000001C224165
:1048C000000041221C0014083E081408083E080895
:1048D0000050300000080808080800606000002050
:1048E000100804023E5149453E00427F40004261AB
:1048F0005149462141454B311814127F1027454537
:1049000045393C4A4949300171090503364949494D
:1049100036064949291E003636000000563600008A
:104920000814224100141414141400412214080223
:1049300001510906324979413E7E1111117E7F49AC
:104940004949363E414141227F4141221C7F49492C
:1049500049417F090909013E4149497A7F08080810
:104960007F00417F41002040413F017F08142241E8
:104970007F404040407F020C027F7F0408107F3E52
:104980004141413E7F090909063E4151215E7F09AF
:10499000192946464949493101017F01013F4040FB
:1049A000403F1F2040201F3F4038403F6314081401
:1049B0006307087008076151494543004040404083
:1049C00040404040404141414141404040404040E2
:1049D00040404040404040404040404005020202CC
:1049E000020202020202020202020202202020202F
:1049F0002020202020200202020202020290909039
:104A00009090901010101010101010101010101026
:104A10001010101010101002020202020288888882
:104A20008888880808080808080808080808080886
:104A3000080808080808080202020240BC490008E9
:104A40005B4150505D20743D256C75206D6F646531
:104A50003D2573206573703D2575207765623D2582
:104A600075206C6F7765723D25752074656D703D9E
:104A70002564206C6F61643D25752C25752C25758A
:104A80002069703D25730D0A000000005354415405
:104A9000207B226677223A222573222C226D6F64B6
:104AA00065223A222573222C226573704F6E6C6941
:104AB0006E65223A25752C227765624F6E6C696EA1
:104AC00065223A25752C226C6F7765724F6E6C6982
:104AD0006E65223A25752C2274656D70223A256424
:104AE0002C2273657454656D70223A25642C2276ED
:104AF000696E223A25752C2270726573656E636546
:104B0000223A7B22656E61626C6564223A25752CBF
:104B1000226465746563746564223A25757D2C2270
:104B200072656C6179223A7B226C69676874223AFB
:104B300025752C2266616E223A25752C22617578C6
:104B4000223A25757D2C2272756E54696D654D7300
:104B5000223A256C752C226970223A222573222C68
:104B6000226465627567223A222573227D0D0A0050
:104B7000904B00080000002098000000E83C00086E
:104B8000284C00089800002040180000F83C00085D
:104B90000000000000000000000000000000FFFF17
:104BA000FFFFFF000000000000000000FFFFFFFF0C
:104BB000FFFFFF00FFFFFFFFFF00000000000000FD
:104BC00000000000000000000000000000000000E5
:104BD00000000000000000000000000000000000D5
:104BE00000000000000000000000000000000000C5
:104BF000302E302E302E300000000000000000006B
:104C000000000000000000000000000000000000A4
:104C10000000000001020304010203040607080962
:084C2000020406080000000078
:04000005080000ED02
:00000001FF
