:020000040000FA
:100000000C9434000C9451000C9451000C94510049
:100010000C9451000C9451000C9451000C9451001C
:100020000C9451000C9451000C9451000C9451000C
:100030000C9451000C9451000C9451000C945100FC
:100040000C945F000C9451000C9451000C945100DE
:100050000C9451000C9451000C9451000C945100DC
:100060000C9451000C94510011241FBECFEFD8E026
:10007000DEBFCDBF11E0A0E0B1E0ECE6F2E002C0EF
:1000800005900D92A631B107D9F721E0A6E1B1E0C4
:1000900001C01D92A332B207E1F70E94A9000C949F
:1000A00034010C940000FC019191992339F0809166
:1000B000C00085FFFCCF9093C600F6CF08951F9235
:1000C0000F920FB60F9211242F933F938F939F930C
:1000D000AF93BF9380911F0190912001A0912101C6
:1000E000B091220130911E0123E0230F2D3758F5E6
:1000F0000196A11DB11D20931E0180931F019093B5
:100100002001A0932101B093220180911A019091C6
:100110001B01A0911C01B0911D010196A11DB11DF3
:1001200080931A0190931B01A0931C01B0931D01B1
:10013000BF91AF919F918F913F912F910F900FBEE3
:100140000F901F90189526E8230F0296A11DB11D50
:10015000D2CF789484B5826084BD84B5816084BD3B
:1001600085B5826085BD85B5816085BD80916E0055
:10017000816080936E001092810080918100826086
:1001800080938100809181008160809381008091C3
:1001900080008160809380008091B10084608093B2
:1001A000B1008091B00081608093B00080917A00AE
:1001B000846080937A0080917A00826080937A00D4
:1001C00080917A00816080937A0080917A008068C3
:1001D00080937A001092C1001092C50087E6809348
:1001E000C4001092C00088E08093C10086E0809334
:1001F000C20080E091E00E94530086E091E00E94FE
:100200005300C0E0D0E02FB7F89480911F01909187
:100210002001A0912101B09122012FBF4091160130
:100220005091170160911801709119018C019D0185
:10023000041B150B260B370BB901A801483E534090
:100240006105710560F08093160190931701A093EA
:100250001801B093190186E091E00E9453002097A5
:1002600091F20E940000CFCFF894FFCF424F4F543D
:100270000A0024542C3939392C3335302C302C4594
:020280000A0072
:107E0000112484B714BE81FFF0D085E080938100F7
:107E100082E08093C00088E18093C10086E0809377
:107E2000C20080E18093C4008EE0C9D0259A86E02C
:107E300020E33CEF91E0309385002093840096BBD3
:107E4000B09BFECF1D9AA8958150A9F7CC24DD24C4
:107E500088248394B5E0AB2EA1E19A2EF3E0BF2EE7
:107E6000A2D0813461F49FD0082FAFD0023811F036
:107E7000013811F484E001C083E08DD089C08234E0
:107E800011F484E103C0853419F485E0A6D080C0E4
:107E9000853579F488D0E82EFF2485D0082F10E0AE
:107EA000102F00270E291F29000F111F8ED06801E7
:107EB0006FC0863521F484E090D080E0DECF843638
:107EC00009F040C070D06FD0082F6DD080E0C81688
:107ED00080E7D80618F4F601B7BEE895C0E0D1E017
:107EE00062D089930C17E1F7F0E0CF16F0E7DF06D8
:107EF00018F0F601B7BEE89568D007B600FCFDCFD4
:107F0000A601A0E0B1E02C9130E011968C91119780
:107F100090E0982F8827822B932B1296FA010C0160
:107F200087BEE89511244E5F5F4FF1E0A038BF0790
:107F300051F7F601A7BEE89507B600FCFDCF97BE46
:107F4000E89526C08437B1F42ED02DD0F82E2BD052
:107F50003CD0F601EF2C8F010F5F1F4F84911BD097
:107F6000EA94F801C1F70894C11CD11CFA94CF0C13
:107F7000D11C0EC0853739F428D08EE10CD085E9AC
:107F80000AD08FE07ACF813511F488E018D01DD067
:107F900080E101D065CF982F8091C00085FFFCCF94
:107FA0009093C60008958091C00087FFFCCF809118
:107FB000C00084FD01C0A8958091C6000895E0E648
:107FC000F0E098E1908380830895EDDF803219F02E
:107FD00088E0F5DFFFCF84E1DECF1F93182FE3DFCA
:107FE0001150E9F7F2DF1F91089580E0E8DFEE27F6
:047FF000FF270994CA
:027FFE00040479
:00000001FF
