:100000000C9434000C9451000C9451000C94510049
:100010000C9451000C9451000C9451000C9451001C
:100020000C9451000C9451000C9451000C9451000C
:100030000C9451000C9451000C9451000C945100FC
:100040000C945F000C9451000C9451000C945100DE
:100050000C9451000C9451000C9451000C945100DC
:100060000C9451000C94510011241FBECFEFD8E026
:10007000DEBFCDBF11E0A0E0B1E0ECE6F2E002C0EF
:1000800005900D92A631B107D9F721E0A6E1B1E0C4
:1000900001C01D92A332B207E1F70E94A9000C949F
:1000A00034010C940000FC019191992339F0809166
:1000B000C00085FFFCCF9093C600F6CF08951F9235
:1000C0000F920FB60F9211242F933F938F939F930C
:1000D000AF93BF9380911F0190912001A0912101C6
:1000E000B091220130911E0123E0230F2D3758F5E6
:1000F0000196A11DB11D20931E0180931F019093B5
:100100002001A0932101B093220180911A019091C6
:100110001B01A0911C01B0911D010196A11DB11DF3
:1001200080931A0190931B01A0931C01B0931D01B1
:10013000BF91AF919F918F913F912F910F900FBEE3
:100140000F901F90189526E8230F0296A11DB11D50
:10015000D2CF789484B5826084BD84B5816084BD3B
:1001600085B5826085BD85B5816085BD80916E0055
:10017000816080936E001092810080918100826086
:1001800080938100809181008160809381008091C3
:1001900080008160809380008091B10084608093B2
:1001A000B1008091B00081608093B00080917A00AE
:1001B000846080937A0080917A00826080937A00D4
:1001C00080917A00816080937A0080917A008068C3
:1001D00080937A001092C1001092C50087E6809348
:1001E000C4001092C00088E08093C10086E0809334
:1001F000C20080E091E00E94530086E091E00E94FE
:100200005300C0E0D0E02FB7F89480911F01909187
:100210002001A0912101B09122012FBF4091160130
:100220005091170160911801709119018C019D0185
:10023000041B150B260B370BB901A801483E534090
:100240006105710560F08093160190931701A093EA
:100250001801B093190186E091E00E9453002097A5
:0C02600091F20E940000CFCFF894FFCF75
:10026C00424F4F540A0024542C3939392C33353031
:06027C002C302C450A00A5
:00000001FF
