:100000000C94E6020C940E030C940E030C949208CC
:100010000C940E030C940E030C940E030C940E031C
:100020000C940E030C940E030C940E030C940E030C
:100030000C940E030C940E030C940E030C940E03FC
:100040000C9448080C940E030C940E030C940E03AD
:100050000C940E030C9469090C940E030C940E037B
:100060000C940E030C940E0301020408102040802F
:1000700000000000003E5B4F5B3E3E6B4F6B3E1C42
:100080003E7C3E1C183C7E3C181C577D571C1C5E59
:100090007F5E1C00183C1800FFE7C3E7FF00182430
:1000A0001800FFE7DBE7FF30483A060E26297929DA
:1000B00026407F050507407F05253F5A3CE73C5A0F
:1000C0007F3E1C1C08081C1C3E7F14227F22145FEC
:1000D0005F005F5F06097F017F006689956A606047
:1000E00060606094A2FFA29408047E040810207E41
:1000F000201008082A1C08081C2A08081E101010C6
:10010000100C1E0C1E0C30383E3830060E3E0E060B
:10011000000000000000005F00000007000700145E
:100120007F147F14242A7F2A12231308646236491D
:100130005620500008070300001C22410000412205
:100140001C002A1C7F1C2A08083E0808008070300A
:100150000008080808080000606000201008040279
:100160003E5149453E00427F40007249494946217F
:1001700041494D331814127F1027454545393C4AF3
:10018000494931412111090736494949364649490A
:10019000291E000014000000403400000008142252
:1001A00041141414141400412214080201590906C0
:1001B0003E415D594E7C1211127C7F494949363EC1
:1001C000414141227F4141413E7F494949417F09A7
:1001D0000909013E414151737F0808087F00417FB2
:1001E00041002040413F017F081422417F404040B0
:1001F000407F021C027F7F0408107F3E4141413E48
:100200007F090909063E4151215E7F0919294626C9
:100210004949493203017F01033F4040403F1F20CD
:1002200040201F3F4038403F6314081463030478A4
:1002300004036159494D43007F41414102040810C4
:1002400020004141417F04020102044040404040FF
:10025000000307080020545478407F28444438386D
:1002600044444428384444287F38545454180008DF
:100270007E090218A4A49C787F0804047800447DB9
:1002800040002040403D007F1028440000417F4056
:10029000007C047804787C080404783844444438AA
:1002A000FC1824241818242418FC7C08040408488A
:1002B0005454542404043F44243C4040207C1C20DB
:1002C00040201C3C4030403C44281028444C909036
:1002D000907C4464544C4400083641000000770090
:1002E00000004136080002010204023C2623263C9D
:1002F0001EA1A161123A4040207A38545455592128
:100300005555794121545478412155547840205411
:100310005579400C1E52721239555555593954545D
:10032000545939555454580000457C410002457DCC
:10033000420001457C40F0292429F0F0282528F0CE
:100340007C545545002054547C547C0A097F493222
:10035000494949323248484832324A4848303A419D
:1003600041217A3A42402078009DA0A07D39444442
:1003700044393D4040403D3C24FF2424487E4943CD
:10038000662B2FFC2F2BFF0929F620C0887E09033E
:1003900020545479410000447D413048484A323865
:1003A0004040227A007A0A0A727D0D19317D262991
:1003B000292F28262929292630484D402038080889
:1003C000080808080808382F10C8ACBA2F102834BD
:1003D000FA00007B000008142A142222142A1408B0
:1003E0009500220095AA005500AAAA55AA55AA0070
:1003F0000000FF00101010FF00141414FF00101074
:10040000FF00FF1010F010F0141414FC001414F787
:1004100000FF0000FF00FF1414F404FC1414171074
:100420001F10101F101F1414141F00101010F000C4
:100430000000001F101010101F10101010F01000FE
:100440000000FF101010101010101010FF1000000E
:1004500000FF140000FF00FF00001F10170000FC49
:1004600004F414141710171414F404F40000FF001B
:10047000F714141414141414F700F71414141714A4
:1004800010101F101F141414F4141010F010F000AA
:10049000001F101F0000001F14000000FC140000CB
:1004A000F010F01010FF10FF141414FF14101010AF
:1004B0001F00000000F010FFFFFFFFFFF0F0F0F062
:1004C000F0FFFFFF0000000000FFFF0F0F0F0F0FF6
:1004D00038444438447C2A2A3E147E02020606022E
:1004E0007E027E0263554941633844443C04407EA9
:1004F000201E2006027E020299A5E7A5991C2A4922
:100500002A1C4C7201724C304A4D4D3030487848AC
:1005100030BC625A463D3E494949007E0101017E98
:100520002A2A2A2A2A44445F444440514A444040EB
:10053000444A51400000FF0103E080FF000008082A
:100540006B6B083612362436060F090F06000018AA
:10055000180000001010003040FF0101001F0101D1
:100560001E00191D1712003C3C3C3C00000000001E
:1005700000000000230026002900000000002400E5
:1005800027002A0000000000250028002B0004049A
:10059000040404040404020202020202030303032B
:1005A0000303010204081020408001020408102007
:1005B00001020408102000000008000201000003EE
:1005C00004070000000000000000681011241FBE96
:1005D000CFEFD8E0DEBFCDBF11E0A0E0B1E0E6E4B0
:1005E000F7E202C005900D92AE39B107D9F726E0C7
:1005F000AEE9B1E001C01D92AF32B207E1F712E0FF
:10060000C6EED2E004C02197FE010E949613C53EBB
:10061000D107C9F70E946A090C94A1130C94000039
:100620004F925F926F927F928F929F92AF92BF9202
:10063000CF92DF92EF92FF920F931F93CF93DF93AE
:1006400000D000D0CDB7DEB74B015C0129013A01E3
:10065000E982FA820B831C83D0920E06C0920D06AB
:1006600081E0CA94CD2809F080E080932E06809224
:10067000F3059092F405A092F505B092F60540922C
:10068000F7055092F8056092F9057092FA05898194
:100690009A81AB81BC818093FB059093FC05A0936C
:1006A000FD05B093FE0560912106709122068091B0
:1006B0002306909124060E94621220E030E04AE76F
:1006C00054E40E94BA116B017C018092FF05909264
:1006D0000006A0920106B0920206AC019B01C30184
:1006E000B2010E9419132B013C0140920306509263
:1006F00004066092050670920606A70196016981BC
:100700007A818B819C810E94BA116B017C01C0921D
:100710000706D0920806E0920906F0920A06809138
:100720000B0690910C06019769F5A501940160E014
:1007300070E0CB010E9448116093FF0570930006A2
:100740008093010690930206A301920160E070E09D
:10075000CB010E94481160930306709304068093B6
:10076000050690930606A701960160E070E0CB01B4
:100770000E9448116093070670930806809309064B
:1007800090930A060F900F900F900F90DF91CF91EA
:100790001F910F91FF90EF90DF90CF90BF90AF909F
:1007A0009F908F907F906F905F904F9008958330CF
:1007B00081F028F4813099F08230A9F008958730D3
:1007C000A9F08830C9F08430B1F4809180008F7D29
:1007D00003C0809180008F7780938000089584B556
:1007E0008F7784BD089584B58F7DFBCF8091B00055
:1007F0008F778093B00008958091B0008F7DF9CFFE
:100800001F93CF93DF93282F30E0F901EA54FA4F7A
:100810008491F901EE55FA4FD491F901E257FA4F5C
:10082000C491CC23A9F0162F81110E94D703EC2F7D
:10083000F0E0EE0FFF1FEC57FA4FA591B4918FB780
:10084000F894EC91111108C0D095DE23DC938FBF92
:10085000DF91CF911F910895DE2BF8CFCF93DF93D7
:1008600090E0FC01EE55FA4F249182579A4FFC011B
:1008700084918823C9F090E0880F991FFC01E65805
:10088000FA4FA591B491FC01EC57FA4FC591D49160
:1008900061110DC09FB7F8948C91209582238C93A1
:1008A0008881282328839FBFDF91CF9108956230EC
:1008B00051F49FB7F8943C91822F809583238C93B9
:1008C000E8812E2BEFCF8FB7F894EC912E2B2C9341
:1008D0008FBFEACFCF93DF93EC0161E089E00E9404
:1008E0002E04209731F460E089E0DF91CF910C94E1
:1008F0000004CF3FD10511F461E0F6CFEFEBF5E056
:10090000E491E33029F140F4E130B1F0E230D9F084
:10091000C038D1058CF7E7CFE73021F1E83051F14D
:10092000E430B1F780918000806280938000D093A2
:100930008B00C0938A0004C084B5806884BDC7BDA5
:10094000DF91CF91089584B5806284BDC8BDF8CF92
:1009500080918000806880938000D0938900C0934C
:100960008800EECF8091B00080688093B000C09383
:10097000B300E6CF8091B00080628093B000C09356
:10098000B400DECF3FB7F8948091EF059091F00569
:10099000A091F105B091F20526B5A89B05C02F3FA7
:1009A00019F00196A11DB11D3FBFBA2FA92F982F95
:1009B0008827BC01CD01620F711D811D911D42E090
:1009C000660F771F881F991F4A95D1F708958F9258
:1009D0009F92AF92BF92CF92DF92EF92FF924B0124
:1009E0005C010E94C2046B017C010E94C2046C196C
:1009F0007D098E099F09683E734081059105A8F322
:100A000021E0821A9108A108B10888EEC80E83E09F
:100A1000D81EE11CF11C81149104A104B10429F732
:100A2000FF90EF90DF90CF90BF90AF909F908F900E
:100A300008952FB7F8946091EB057091EC058091C3
:100A4000ED059091EE052FBF0895AF92BF92CF9222
:100A5000DF92EF92FF920F931F93CF93DF936C017E
:100A60007B018B01040F151FEB015E01AE18BF085F
:100A7000C017D10759F06991D601ED91FC91019011
:100A8000F081E02DC6010995892B79F7C501DF9129
:100A9000CF911F910F91FF90EF90DF90CF90BF907B
:100AA000AF9008952F923F924F925F926F927F92F4
:100AB0008F929F92AF92BF92CF92DF92EF92FF926E
:100AC0000F931F93CF93DF93CDB7DEB728970FB661
:100AD000F894DEBF0FBECDBF9E838D836A3061F573
:100AE000DC0152968C91B8E08B9F90011124ED812E
:100AF000FE8186859785820F931F97878687158647
:100B0000148681E090E028960FB6F894DEBF0FBE01
:100B1000CDBFDF91CF911F910F91FF90EF90DF90AC
:100B2000CF90BF90AF909F908F907F906F905F908D
:100B30004F903F902F9008956D3019F3AD81BE8195
:100B400052967C9152971C962D913C911D97E72EC1
:100B5000F12C203831050CF08DC01E966D907C90E4
:100B6000B0E46B1671040CF085C085E0A901789F94
:100B7000400D511D1124141615060CF07BC0A70161
:100B800013E0440F551F1A95E1F7460D571D141633
:100B900015060CF06FC0ED81FE81F189F983AD81FE
:100BA000BE815096BC91BA83689FC0011124FC019C
:100BB000E059FF4F2F01890160E0F2018491653017
:100BC00009F480E01301B8E09B2EA82EB12CBC8262
:100BD000AB828A8080FF8980811005C0B9804A81FC
:100BE000B41609F435C0A8014F83842F801B8717E2
:100BF00078F5D12CC12CC71640F540385105E0F4EA
:100C0000C601820D931D80349105B0F4E8E6F0E052
:100C1000A0E1AA2EBF80A89ED001A0781124AB0D20
:100C20008770E80FF11DA490A886AE54BE4F8820AF
:100C300039F08C91A82AAC928FEFC81AD80ADBCF72
:100C4000A884A0948C91A822F6CF4F5F5F4FCCCFA1
:100C50008B819C81959587959A942E0C3F1C9110C1
:100C6000B4CF6F5F9FEF491A590A0E0D1F1D6630F2
:100C700009F0A3CFA6E07A9F200D311D1124ED814C
:100C8000FE81358724878389882309F43ACF4AEF88
:100C9000B7014603C001479F900D112480589F4F14
:100CA000821793070CF02DCFCF010190F081E02D3A
:100CB0000190F081E02D6AE0099523CF089590E03E
:100CC00080E0089590917A00906990937A008E5018
:100CD000806480937C0083B7817F826083BF20E241
:100CE00090E080E033B7316033BF889533B73E7F03
:100CF00033BF30917A0036FDFCCF4091780050919F
:100D00007900840F951F215069F720917A002F7781
:100D100020937A0025E0969587952A95E1F7089526
:100D20008FE00E946206A091BA05B091BB059C01BC
:100D30000E9439110E94641228E539E743E353E425
:100D40000E94BA110E943312CB0108950F931F9392
:100D5000CF9380917201882399F0CFEF0FEE11E0CD
:100D600061E085E00E940004C8010197F1F760E0AE
:100D700085E00E940004C8010197F1F7C15081F796
:100D8000CF911F910F9108954F925F926F927F9232
:100D90008F929F92AF92BF92CF92DF92EF92FF928B
:100DA000CF93DF938090CC059090CD05A090CE0599
:100DB000B090CF05C091B605D0E0C501B4010E9446
:100DC0002C126B017C0120E030E048E453E4C501C3
:100DD000B4010E94B51193E0CC0FDD1F9A95E1F7A5
:100DE000C050DF4F87FF31C02881398150E040E09B
:100DF0002551310941095109C701B6010E948613E5
:100E000028EC30E040E050E00E94ED10CA01B9014A
:100E10006B5E7F4F8F4F9F4F0E9464126093DA0585
:100E20007093DB058093DC059093DD05DF91CF9116
:100E3000FF90EF90DF90CF90BF90AF909F908F90FA
:100E40007F906F905F904F9008954A805B80712CE7
:100E5000612C20E030E04CE853E4C501B4010E946D
:100E6000B51187FF1FC088809980B12CA12CA701E4
:100E70009601285C310941095109C301B201681981
:100E800079098A099B090E94861320E530E040E039
:100E900050E00E94ED10CA01B901680D791D8A1D4C
:100EA0009B1DBACF2C813D8150E040E024193509CB
:100EB00046095709C701B601685171408109910976
:100EC0000E94861320E530E040E050E00E94ED10E3
:100ED000CA01B901640D751D861D971D9DCF0E9425
:100EE0009C131F93CF93DF93EC01162F0E94D71012
:100EF000181739F0612FCE01DF91CF911F910C941B
:100F0000DF10DF91CF911F910895AF92BF92CF92E2
:100F1000DF92EF92FF920F931F93CF93DF93609135
:100F2000760182E090E00E9471076091750183E094
:100F300090E00E9471076091800184E090E00E943F
:100F4000710760917F0185E090E00E9471076091D8
:100F50007E0186E090E00E9471076091780187E051
:100F600090E00E9471076091770188E090E00E9414
:100F700071076091740189E090E00E9471076091AF
:100F800073018AE090E00E94710760917D018BE01F
:100F900090E00E947107609172018CE090E00E94E5
:100FA00071076091B6058DE090E00E947107609135
:100FB00071018EE090E00E947107609170018FE0F6
:100FC00090E00E9471076091B50580E190E00E9479
:100FD00071076091B40581E190E00E947107609112
:100FE000B30582E190E00E9471076091B20583E150
:100FF00090E00E94710784E1E82EF12C10E006E0F9
:10100000809171011817B8F5109F60011124D0E08C
:10101000C0E0FE01EC0DFD1DE05CFE4F6081C701EC
:101020008C0F9D1F0E9471072196C630D10589F74C
:10103000670186E0C80ED11C88E0189FE0011124EA
:10104000C050DF4F8EE0E80EF11C69812296C60188
:101050000E947107560182E0A80EB11CFE01329772
:101060006081C60101960E9471076501AE14BF043C
:1010700061F71F5FC5CFDF91CF911F910F91FF9057
:10108000EF90DF90CF90BF90AF9008950C94D71061
:101090001F920F920FB60F9211242F933F938F93AD
:1010A0009F93AF93BF938091EB059091EC05A09136
:1010B000ED05B091EE053091EA0523E0230F2D37C1
:1010C00058F50196A11DB11D2093EA058093EB050B
:1010D0009093EC05A093ED05B093EE058091EF059C
:1010E0009091F005A091F105B091F2050196A11D36
:1010F000B11D8093EF059093F005A093F105B09397
:10110000F205BF91AF919F918F913F912F910F90D9
:101110000FBE0F901F90189526E8230F0296A11D71
:10112000B11DD2CF1F920F920FB60F9211242F93A1
:101130003F934F935F936F937F938F939F93EF931F
:10114000FF9383B1817029B19091B905981709F483
:101150009DC030E0220F232F221F330B922F80934C
:10116000B9054091B805241709F490C02093B8053B
:101170002091C3053091C405981719F03195219538
:1011800031094091C1055091C2056091C705709128
:10119000C805240F351F261737070CF48BC0209184
:1011A000C3053091C405981719F03195219531097F
:1011B0004091C1055091C2056091C5057091C60569
:1011C000240F351F621773070CF46FC04091C305DD
:1011D0005091C405981719F05195419551092091E6
:1011E000C1053091C205240F351F3093C2052093ED
:1011F000C10541E0981340E02091B705421709F47A
:1012000040C02091C3053091C405981719F031955D
:10121000219531096091C1057091C205E091C70522
:10122000F091C805260F371F2E173F070CF44CC04E
:101230002091C3053091C405981719F03195219577
:1012400031096091C1057091C205E091C505F09129
:10125000C605260F371FE217F3078CF12091C3054F
:101260003091C405981719F0319521953109809175
:10127000C1059091C205820F931F9093C205809380
:10128000C1054093B70581E08093D005FF91EF91B0
:101290009F918F917F916F915F914F913F912F918E
:1012A0000F900FBE0F901F9018952091C50530919B
:1012B000C6059BCF2091C7053091C80596CF809178
:1012C000C5059091C605D9CF8091C7059091C805F5
:1012D000D4CF1895CF93DF93CDB7DEB72E970FB647
:1012E000F894DEBF0FBECDBF789484B5826084BD14
:1012F00084B5816084BD85B5826085BD85B581601A
:1013000085BD80916E00816080936E001092810097
:101310008091810082608093810080918100816052
:101320008093810080918000816080938000809113
:10133000B10084608093B1008091B000816080939F
:10134000B00080917A00846080937A0080917A0066
:10135000826080937A0080917A00816080937A0025
:1013600080917A00806880937A001092C10060E0DA
:101370008EE00E942E0460E08FE00E942E0461E067
:1013800085E00E942E0461E089E00E942E0462E064
:1013900087E00E942E0462E088E00E942E0462E052
:1013A00086E00E942E0462E08AE00E942E041092E1
:1013B000C50087E68093C4001092C00088E0809347
:1013C000C10086E08093C2008FEF90E00E946A0423
:1013D00060E085E00E94000480917A00876080933D
:1013E0007A0080917A00886080937A00789481E016
:1013F00080936B00809368008BBB90E080E00E943C
:101400004608898381E090E00E944608C9809C2DAF
:101410008F31984009F0D4C082E090E00E944608E5
:10142000898383E090E00E944608C9809C2D9093B8
:1014300076018093750184E090E00E9446088983DC
:1014400085E090E00E944608D9809D2D9093800110
:1014500080937F0186E090E00E94460880937E01A1
:1014600087E090E00E9446088093780188E090E051
:101470000E9446088093770189E090E00E94460828
:10148000809374018AE090E00E9446088093730183
:101490008BE090E00E94460891E0811101C090E04D
:1014A00090937D018CE090E00E94460891E08111CC
:1014B00001C090E0909372018DE090E00E94460898
:1014C0008093B6058EE090E00E944608482E8093F7
:1014D00071018FE090E00E9446088093700180E1E6
:1014E00090E00E94460891E0811101C090E0909345
:1014F000B50581E190E00E9446088093B40582E141
:1015000090E00E944608898383E190E00E944608AB
:10151000E9809E2D9093B3058093B205A0E0CA2E7A
:10152000A1E0DA2EB0E4EB2EB1E0FB2E04E110E0F6
:10153000512C451409F450C01A82198289819A816C
:10154000800F911F0E944608E981FA81EE0DFF1D70
:10155000808329813A812F5F3F4F3A832983263048
:10156000310561F7480136E0830E911C025F1F4F81
:101570005601C4010E944608A82FB0E0FA2FEE27BA
:10158000FA83E983D501ED93FC933401B2E06B0E4D
:10159000711CC40101960E944608E981FA81E82B7A
:1015A000D501ED93FD935D0143016016710609F7C6
:1015B0005394B8E0CB0ED11CE6E0EE0EF11CB9CF8F
:1015C00068E090E080E00E9471076FE181E090E0C8
:1015D0000E9471070E94850780917A00806980933C
:1015E0007A008EE480937C0061E070E080E090E01F
:1015F0000E94E70483B7817F826083BF80E130E08F
:1016000020E093B7916093BF889593B79E7F93BF77
:1016100090917A0096FDFCCF40917800509179002E
:10162000240F351F815069F780917A008F7780935E
:101630007A00E4E036952795EA95E1F750E040E03E
:1016400064EB7BE281E190E00E94ED103093BB05FA
:101650002093BA050E9490068091750190917601C1
:101660009093DF058093DE058EE00E946206BC0148
:1016700090E080E00E9462126093CC057093CD05EB
:101680008093CE059093CF0580917A0080698093F6
:101690007A0088EC80937C006AE070E080E090E063
:1016A0000E94E70483B7817F826083BF80E293B7A3
:1016B000916093BF889593B79E7F93BF90917A0076
:1016C00096FDFCCF2091780030917900815079F718
:1016D00080917A008F7780937A000E94C406C09030
:1016E0007501D0907601DA82C98220E030E040EACC
:1016F00051E46091DA057091DB058091DC059091F1
:10170000DD050E9449116B017C0129813A81B901F3
:1017100090E080E00E9462129B01AC01C701B6011B
:101720000E94B51187FF04C090E080E00E946A0427
:10173000109225061092260610922706109228066F
:10174000812C912C7FE7A72E73E4B72E8092290677
:1017500090922A06A0922B06B0922C0600911106B8
:101760001091120680912D06D801CD90DD90ED905C
:10177000FC90882309F480C4A5019401C701B60137
:101780000E941413181634F5F80180829182A28207
:10179000B3828090190690901A06A0901B06B09014
:1017A0001C06C0902906D0902A06E0902B06F090E7
:1017B0002C06A7019601C501B4010E941413181646
:1017C000CCF4C0921906D0921A06E0921B06F09251
:1017D0001C0620C020E030E0A901C701B6010E942C
:1017E000B51187FFD6CFD8011D921D921D921C9274
:1017F0001397CFCFC0902506D0902606E0902706FD
:10180000F0902806A7019601C501B4010E94B51108
:1018100087FDD7CF81E080932D0683B181708093BF
:10182000B90589B190E0880F892F881F990B8093A3
:10183000B8052091B9059091B80581E0291380E0A1
:101840008093B7058CE291E09093C8058093C7051B
:1018500080E293E09093C6058093C5058AE090E00E
:101860009093C4058093C305C980DA80CC0CDD1C3D
:10187000D092C205C092C1050E9419056093BD05B2
:101880007093BE058093BF059093C0050E94A60685
:101890000E94A606222423948091D005C090DE05E4
:1018A000D090DF05F12CE12C8823C1F18091E00577
:1018B000882321F120E030E040EA51E46091DA052C
:1018C0007091DB058091DC059091DD050E94491146
:1018D0004B015C01C701B6010E9462129B01AC0181
:1018E000C501B4010E94B51187FF04C090E080E0FB
:1018F0000E946A040E94A60620927A011092D005E6
:101900001092E0051092E5050E9419056093BD054F
:101910007093BE058093BF059093C0050E94190582
:101920000091BD051091BE052091BF053091C00505
:10193000601B710B820B930B20E63AEE40E050E007
:101940000E94171129832093BC058091E005811125
:101950000AC080917801882331F0281720F0209266
:10196000E0050E94A6068091E50581110BC08091DB
:101970007701882339F02981281720F02092E50586
:101980000E94A6068FEF90E00E946A048BEA94E022
:101990000197F1F78EE00E9462069A838983E0EC5A
:1019A000F5E08491ECEAF5E00491E8E9F5E01491C2
:1019B000112379F081110E94D703E12FF0E0EE0F9F
:1019C000FF1FE059FA4FA591B4918C91082381E053
:1019D00009F480E09091D105891721F02092D0057B
:1019E0008093D10580917C019FEF980F90937C01AB
:1019F000811102C00E9490066091D2057091D305BA
:101A00008091D4059091D5050E942C12CB010E94A3
:101A10006A048090CC059090CD05A090CE05B09042
:101A2000CF0529813A81B90190E080E00E946212DD
:101A3000A50194010E9448112DEC3CEC4CE45DE3BF
:101A40000E941913A50194010E9449116093CC05CD
:101A50007093CD058093CE059093CF050E94C40668
:101A60006091CA057091CB0590E080E00E946212FF
:101A70004B015C012091E1053091E2054091E305C5
:101A80005091E4050E94B511811176C22091DA05CA
:101A90003091DB054091DC055091DD05C501B401B5
:101AA0000E9448114B015C0120E030E0A9010E9436
:101AB000141318160CF056C220E030E040EA50E44F
:101AC000C501B4010E94141318160CF455C2C701C5
:101AD000B6010E9462122091DA053091DB05409137
:101AE000DC055091DD050E9448116B017C0120E06E
:101AF00030E0A9010E94141318160CF04CC2C70163
:101B0000B6010E9433126530710508F048C2809119
:101B10007B01811105C080917A0181110E94A60686
:101B200020927B0110927A018091CA059091CB0599
:101B3000853F31E0930710F01092790120917901EF
:101B400021113EC0843F9140D8F58FEF90E00E9474
:101B50006A040E94A606209279010E9485072092BD
:101B6000D0058EE00E946206BC0190E080E00E94F9
:101B700062126093CC057093CD058093CE0590934F
:101B8000CF051092C9058091DE059091DF05ACE28A
:101B9000B1E0B093C805A093C705E0E2F3E0F0938D
:101BA000C605E093C5052AE0C22ED12CD092C4050B
:101BB000C092C305880F991F9093C2058093C105F9
:101BC0008091E505882309F4EDC11092E10510929A
:101BD000E2051092E3051092E4054090E105509073
:101BE000E2056090E3057090E4058090DA0590903E
:101BF000DB05A090DC05B090DD05A5019401C301D3
:101C0000B2010E9448116B017C0120E030E0A90183
:101C10000E94141318160CF0DEC1C701B6010E9411
:101C2000331280917D01882309F4F8C18092D60592
:101C30009092D705A092D805B092D905C0900D0614
:101C4000D0900E06E12CF12C00EA10E420E030E008
:101C500040E450E46E31710540F0E12CF12C00E8D5
:101C60001FE320E030E040E05FE360E070E080E30D
:101C700091E40E94100380912D06882309F426C167
:101C80000E94190569837A838B839C838091150652
:101C900090911606A0911706B091180649815A81B5
:101CA0006B817C81481B590B6A0B7B0B8091210651
:101CB00090912206A0912306B09124064817590757
:101CC0006A077B0708F402C1E0910F06F091100645
:101CD0004080518062807380E0911306F091140679
:101CE000A301920160817181828193810E944811D8
:101CF0006B017C0120911D0630911E0640911F064C
:101D000050912006C301B2010E9448116D837E8369
:101D10008F83988720910306309104064091050631
:101D200050910606C701B6010E94191320911906A9
:101D300030911A0640911B0650911C060E944911D1
:101D40004B015C018092190690921A06A0921B0624
:101D5000B0921C0630902E0631101CC02091FF0559
:101D60003091000640910106509102066D817E81FE
:101D70008F8198850E9419139B01AC01C501B401A4
:101D80000E9448116093190670931A0680931B06EF
:101D900090931C068091190690911A06A0911B063B
:101DA000B0911C0689879A87AB87BC87009129066A
:101DB00010912A0690912B069E87A0912C06AD8744
:101DC0009801492F5A2F69857A858B859C850E94B9
:101DD000141318160CF003C1C801AE85BD8580939D
:101DE000190690931A06A0931B06B0931C06332085
:101DF00009F410C12091FF053091000640910106C1
:101E000050910206C701B6010E9419136B017C01B3
:101E100020910706309108064091090650910A0664
:101E20006D817E818F8198850E9419139B01AC0181
:101E30006091190670911A0680911B0690911C06FC
:101E40000E944811A70196010E9449116B017C0173
:101E50009B01AC01B8018E859D850E94B51187FD5F
:101E600016C00091250610912606B0912706BE8760
:101E7000E0912806ED8798014B2F5E2FB601C70130
:101E80000E94B51187FD03C08601EE86FD86E091B4
:101E90001106F0911206C801AE85BD85808391833D
:101EA000A283B38340921D0650921E0660921F06C5
:101EB00070922006C980DA80EB80FC80C092150603
:101EC000D0921606E0921706F09218066091D2059D
:101ED0007091D3058091D4059091D5050E942C1264
:101EE000CB010E946A040E9419050091E605109139
:101EF000E7052091E8053091E9056B017C01C01AE6
:101F0000D10AE20AF30A97018601083E134021052F
:101F1000310508F4A9C06093E6057093E705809346
:101F2000E8059093E905EDE8F1E08191882309F453
:101F30009BC09091C00095FFFCCF8093C600F5CF69
:101F400020E030E0A901C701B6010E94B51187FF6A
:101F500061CC1092190610921A0610921B0610926C
:101F60001C0658CC20E030E040EA50ECC501B4013A
:101F70000E94B51187FFABCD6091DA057091DB054A
:101F80008091DC059091DD050E9433127093CB05A2
:101F90006093CA059CCDC701B6019058B2CD10928E
:101FA0007B01C2CD8091E00560917F01709180013D
:101FB000811104C06091DE057091DF0590E080E042
:101FC0000E9462126093E1057093E2058093E3053D
:101FD0009093E40502CEC701B601905820CE8090C0
:101FE000250690902606A0902706B0902806A50109
:101FF000940169857A858B859C850E94B51187FF40
:10200000F6CE8092190690921A06A0921B06B09204
:102010001C06EDCEC12CD12C7601FACE20E030E0AA
:1020200040E05FE3C501B4010E9449119B01AC018E
:10203000C301B2010E94141318164CF41092D20579
:102040001092D3051092D4051092D5053FCF80E0B1
:1020500090E0AFE7B3E48093D2059093D305A093CB
:10206000D405B093D50532CF80E090E0892B09F4F8
:1020700013CC0E9400000ECCC0921906D0921A0612
:10208000E0921B06F0921C06E0910F06F0911006FC
:1020900080819181A281B38180931D0690931E0659
:1020A000A0931F06B093200620E030E04FE753E4F2
:1020B000C701B6010E94141318160CF041CF80928C
:1020C000190690921A06A0921B06B0921C06A2CB8B
:1020D000CF92DF92EF92FF920F931F93CF93DF93F4
:1020E000EEE9F1E0138212821682178280E1808786
:1020F00015821482128685E891E09183808315868B
:1021000014861786168681E0808B118A828B138A4B
:10211000C3EFD5E082ED95E09F8F8E8F86ED95E041
:102120009D8F8C8F81EE95E099A388A31AAE1AAA91
:102130001BAA1CAA1DAA80E090E0AFE7B3E48EAB17
:102140009FABA8AFB9AF84E690E0A0E0B0E08EA767
:102150009FA7A8ABB9AB81E090E0998F888FCC2482
:10216000C394D12CE12CF12C00E81FE320E030E0F7
:1021700040E05FE360E070E080E391E40E941003E0
:102180000E9419050EA51FA528A939A9601B710B6E
:10219000820B930B6AA37BA38CA39DA3DF91CF91AA
:1021A0001F910F91FF90EF90DF90CF900895F999D4
:1021B000FECF92BD81BDF89A992780B50895262F4C
:1021C000F999FECF1FBA92BD81BD20BD0FB6F8941C
:1021D000FA9AF99A0FBE01960895052E97FB1EF400
:1021E00000940E94041157FD07D00E94171107FCAC
:1021F00003D04EF40C9404115095409530952195E0
:102200003F4F4F4F5F4F0895909580957095619522
:102210007F4F8F4F9F4F08950E943911A59F900DBA
:10222000B49F900DA49F800D911D11240895A1E2EB
:102230001A2EAA1BBB1BFD010DC0AA1FBB1FEE1F40
:10224000FF1FA217B307E407F50720F0A21BB30B8B
:10225000E40BF50B661F771F881F991F1A9469F707
:1022600060957095809590959B01AC01BD01CF0163
:102270000895A29FB001B39FC001A39F700D811D5F
:102280001124911DB29F700D811D1124911D08957F
:102290005058BB27AA270E9460110C94DA120E94A2
:1022A000CC1238F00E94D31220F039F49F3F19F479
:1022B00026F40C94C9120EF4E095E7FB0C94C312BB
:1022C000E92F0E94EB1258F3BA17620773078407CD
:1022D000950720F079F4A6F50C940D130EF4E09513
:1022E0000B2EBA2FA02D0B01B90190010C01CA01D0
:1022F000A0011124FF27591B99F0593F50F4503E7B
:1023000068F11A16F040A22F232F342F4427585F6C
:10231000F3CF469537952795A795F0405395C9F784
:102320007EF41F16BA0B620B730B840BBAF091503C
:10233000A1F0FF0FBB1F661F771F881FC2F70EC0DB
:10234000BA0F621F731F841F48F4879577956795AE
:10235000B795F7959E3F08F0B0CF9395880F08F09A
:102360009927EE0F9795879508950E949F1208F47C
:1023700081E008950E94CE110C94DA120E94D312CB
:1023800058F00E94CC1240F029F45F3F29F00C94E1
:10239000C31251110C940E130C94C9120E94EB122B
:1023A00068F39923B1F3552391F3951B550BBB2784
:1023B000AA2762177307840738F09F5F5F4F220FC9
:1023C000331F441FAA1FA9F335D00E2E3AF0E0E8C0
:1023D00032D091505040E695001CCAF72BD0FE2F0A
:1023E00029D0660F771F881FBB1F2617370748079E
:1023F000AB07B0E809F0BB0B802DBF01FF27935856
:102400005F4F3AF09E3F510578F00C94C3120C9444
:102410000E135F3FE4F3983ED4F386957795679566
:10242000B795F7959F5FC9F7880F911D969587958A
:1024300097F90895E1E0660F771F881FBB1F6217A9
:1024400073078407BA0720F0621B730B840BBA0B67
:10245000EE1F88F7E09508950E9433126894B11139
:102460000C940E1308950E94F31288F09F5798F071
:10247000B92F9927B751B0F0E1F0660F771F881F89
:10248000991F1AF0BA95C9F714C0B13091F00E94A3
:102490000D13B1E008950C940D13672F782F882742
:1024A000B85F39F0B93FCCF3869577956795B395CA
:1024B000D9F73EF490958095709561957F4F8F4F39
:1024C0009F4F0895E89409C097FB3EF4909580953E
:1024D000709561957F4F8F4F9F4F9923A9F0F92FEA
:1024E00096E9BB279395F695879577956795B79568
:1024F000F111F8CFFAF4BB0F11F460FF1BC06F5F4E
:102500007F4F8F4F9F4F16C0882311F096E911C05F
:10251000772321F09EE8872F762F05C0662371F080
:1025200096E8862F70E060E02AF09A95660F771F94
:10253000881FDAF7880F9695879597F90895990F70
:102540000008550FAA0BE0E8FEEF16161706E8077D
:10255000F907C0F012161306E407F50798F0621B9E
:10256000730B840B950B39F40A2661F0232B242B73
:10257000252B21F408950A2609F4A140A6958FEF92
:10258000811D811D089597F99F6780E870E060E0E4
:1025900008959FEF80EC089500240A9416161706FC
:1025A00018060906089500240A9412161306140644
:1025B00005060895092E0394000C11F4882352F0A7
:1025C000BB0F40F4BF2B11F460FF04C06F5F7F4F5F
:1025D0008F4F9F4F089557FD9058440F551F59F046
:1025E0005F3F71F04795880F97FB991F61F09F3F00
:1025F00079F087950895121613061406551FF2CF29
:102600004695F1DF08C0161617061806991FF1CF78
:1026100086957105610508940895E894BB2766279F
:102620007727CB0197F908950E949F1208F48FEF46
:1026300008950E942C130C94DA120E94CC1238F0E8
:102640000E94D31220F0952311F00C94C3120C9425
:10265000C91211240C940E130E94EB1270F3959F73
:10266000C1F3950F50E0551F629FF001729FBB2789
:10267000F00DB11D639FAA27F00DB11DAA1F649F25
:102680006627B00DA11D661F829F2227B00DA11DD8
:10269000621F739FB00DA11D621F839FA00D611D5E
:1026A000221F749F3327A00D611D231F849F600D7F
:1026B000211D822F762F6A2F11249F5750409AF0A8
:1026C000F1F088234AF0EE0FFF1FBB1F661F771F34
:1026D000881F91505040A9F79E3F510580F00C94FF
:1026E000C3120C940E135F3FE4F3983ED4F3869527
:1026F00077956795B795F795E7959F5FC1F7FE2B9F
:10270000880F911D9695879597F90895DB018F9312
:102710009F930E940C11BF91AF91A29F800D911DBC
:10272000A39F900DB29F900D11240895EE0FFF1FEF
:102730000590F491E02D099481E090E0F8940C94D8
:06274000A113F894FFCF85
:10274600D800340186011E000000000000000000D1
:102756000000000000000000000000000000000073
:102766000000000000000000000000000000000063
:102776000000000000000000000000000000000053
:102786004243312E3500000000000000000000002A
:102796000000000000000000000000000000000033
:1027A6000000000000000000000000000000000023
:1027B600010101012840010F05010101FF013C96BD
:1027C6000000000000520525055F065E0624542C15
:0E27D6003939392C3335302C302C450A0000AF
:00000001FF
