:100000000C94E6020C940E030C940E030C94E70877
:100010000C940E030C940E030C940E030C940E031C
:100020000C940E030C940E030C940E030C940E030C
:100030000C940E030C940E030C940E030C940E03FC
:100040000C949D080C940E030C940E030C940E0358
:100050000C940E030C94BE090C940E030C940E0326
:100060000C940E030C940E0301020408102040802F
:1000700000000000003E5B4F5B3E3E6B4F6B3E1C42
:100080003E7C3E1C183C7E3C181C577D571C1C5E59
:100090007F5E1C00183C1800FFE7C3E7FF00182430
:1000A0001800FFE7DBE7FF30483A060E26297929DA
:1000B00026407F050507407F05253F5A3CE73C5A0F
:1000C0007F3E1C1C08081C1C3E7F14227F22145FEC
:1000D0005F005F5F06097F017F006689956A606047
:1000E00060606094A2FFA29408047E040810207E41
:1000F000201008082A1C08081C2A08081E101010C6
:10010000100C1E0C1E0C30383E3830060E3E0E060B
:10011000000000000000005F00000007000700145E
:100120007F147F14242A7F2A12231308646236491D
:100130005620500008070300001C22410000412205
:100140001C002A1C7F1C2A08083E0808008070300A
:100150000008080808080000606000201008040279
:100160003E5149453E00427F40007249494946217F
:1001700041494D331814127F1027454545393C4AF3
:10018000494931412111090736494949364649490A
:10019000291E000014000000403400000008142252
:1001A00041141414141400412214080201590906C0
:1001B0003E415D594E7C1211127C7F494949363EC1
:1001C000414141227F4141413E7F494949417F09A7
:1001D0000909013E414151737F0808087F00417FB2
:1001E00041002040413F017F081422417F404040B0
:1001F000407F021C027F7F0408107F3E4141413E48
:100200007F090909063E4151215E7F0919294626C9
:100210004949493203017F01033F4040403F1F20CD
:1002200040201F3F4038403F6314081463030478A4
:1002300004036159494D43007F41414102040810C4
:1002400020004141417F04020102044040404040FF
:10025000000307080020545478407F28444438386D
:1002600044444428384444287F38545454180008DF
:100270007E090218A4A49C787F0804047800447DB9
:1002800040002040403D007F1028440000417F4056
:10029000007C047804787C080404783844444438AA
:1002A000FC1824241818242418FC7C08040408488A
:1002B0005454542404043F44243C4040207C1C20DB
:1002C00040201C3C4030403C44281028444C909036
:1002D000907C4464544C4400083641000000770090
:1002E00000004136080002010204023C2623263C9D
:1002F0001EA1A161123A4040207A38545455592128
:100300005555794121545478412155547840205411
:100310005579400C1E52721239555555593954545D
:10032000545939555454580000457C410002457DCC
:10033000420001457C40F0292429F0F0282528F0CE
:100340007C545545002054547C547C0A097F493222
:10035000494949323248484832324A4848303A419D
:1003600041217A3A42402078009DA0A07D39444442
:1003700044393D4040403D3C24FF2424487E4943CD
:10038000662B2FFC2F2BFF0929F620C0887E09033E
:1003900020545479410000447D413048484A323865
:1003A0004040227A007A0A0A727D0D19317D262991
:1003B000292F28262929292630484D402038080889
:1003C000080808080808382F10C8ACBA2F102834BD
:1003D000FA00007B000008142A142222142A1408B0
:1003E0009500220095AA005500AAAA55AA55AA0070
:1003F0000000FF00101010FF00141414FF00101074
:10040000FF00FF1010F010F0141414FC001414F787
:1004100000FF0000FF00FF1414F404FC1414171074
:100420001F10101F101F1414141F00101010F000C4
:100430000000001F101010101F10101010F01000FE
:100440000000FF101010101010101010FF1000000E
:1004500000FF140000FF00FF00001F10170000FC49
:1004600004F414141710171414F404F40000FF001B
:10047000F714141414141414F700F71414141714A4
:1004800010101F101F141414F4141010F010F000AA
:10049000001F101F0000001F14000000FC140000CB
:1004A000F010F01010FF10FF141414FF14101010AF
:1004B0001F00000000F010FFFFFFFFFFF0F0F0F062
:1004C000F0FFFFFF0000000000FFFF0F0F0F0F0FF6
:1004D00038444438447C2A2A3E147E02020606022E
:1004E0007E027E0263554941633844443C04407EA9
:1004F000201E2006027E020299A5E7A5991C2A4922
:100500002A1C4C7201724C304A4D4D3030487848AC
:1005100030BC625A463D3E494949007E0101017E98
:100520002A2A2A2A2A44445F444440514A444040EB
:10053000444A51400000FF0103E080FF000008082A
:100540006B6B083612362436060F090F06000018AA
:10055000180000001010003040FF0101001F0101D1
:100560001E00191D1712003C3C3C3C00000000001E
:1005700000000000230026002900000000002400E5
:1005800027002A0000000000250028002B0004049A
:10059000040404040404020202020202030303032B
:1005A0000303010204081020408001020408102007
:1005B00001020408102000000008000201000003EE
:1005C00004070000000000000000A41111241FBE59
:1005D000CFEFD8E0DEBFCDBF11E0A0E0B1E0E6EEA6
:1005E000F9E202C005900D92AE38B107D9F726E0C6
:1005F000AEE8B1E001C01D92A432B207E1F712E00B
:10060000C6EED2E004C02197FE010E94E614C53E6A
:10061000D107C9F70E94BF090C94F1140C94000093
:100620004F925F926F927F928F929F92AF92BF9202
:10063000CF92DF92EF92FF920F931F93CF93DF93AE
:1006400000D000D0CDB7DEB74B015C0129013A01E3
:10065000E982FA820B831C83D0920306C0920206C1
:1006600081E0CA94CD2809F080E08093230680922F
:10067000E8059092E905A092EA05B092EB05409258
:10068000EC055092ED056092EE057092EF058981C0
:100690009A81AB81BC818093F0059093F105A09382
:1006A000F205B093F30560911606709117068091DC
:1006B0001806909119060E949E1320E030E04AE748
:1006C00054E40E94F6126B017C018092F405909232
:1006D000F505A092F605B092F705AC019B01C301A8
:1006E000B2010E9455142B013C014092F805509232
:1006F000F9056092FA057092FB05A70196016981E0
:100700007A818B819C810E94F6126B017C01C092E0
:10071000FC05D092FD05E092FE05F092FF05809168
:10072000000690910106019769F5A501940160E02A
:1007300070E0CB010E9484126093F4057093F5057C
:100740008093F6059093F705A301920160E070E0B5
:10075000CB010E9484126093F8057093F905809391
:10076000FA059093FB05A701960160E070E0CB01CC
:100770000E9484126093FC057093FD058093FE0532
:100780009093FF050F900F900F900F90DF91CF91F6
:100790001F910F91FF90EF90DF90CF90BF90AF909F
:1007A0009F908F907F906F905F904F9008958330CF
:1007B00081F028F4813099F08230A9F008958730D3
:1007C000A9F08830C9F08430B1F4809180008F7D29
:1007D00003C0809180008F7780938000089584B556
:1007E0008F7784BD089584B58F7DFBCF8091B00055
:1007F0008F778093B00008958091B0008F7DF9CFFE
:100800001F93CF93DF93282F30E0F901EA54FA4F7A
:100810008491F901EE55FA4FD491F901E257FA4F5C
:10082000C491CC23A9F0162F81110E94D703EC2F7D
:10083000F0E0EE0FFF1FEC57FA4FA591B4918FB780
:10084000F894EC91111108C0D095DE23DC938FBF92
:10085000DF91CF911F910895DE2BF8CFCF93DF93D7
:1008600090E0FC01EE55FA4F249182579A4FFC011B
:1008700084918823C9F090E0880F991FFC01E65805
:10088000FA4FA591B491FC01EC57FA4FC591D49160
:1008900061110DC09FB7F8948C91209582238C93A1
:1008A0008881282328839FBFDF91CF9108956230EC
:1008B00051F49FB7F8943C91822F809583238C93B9
:1008C000E8812E2BEFCF8FB7F894EC912E2B2C9341
:1008D0008FBFEACFCF93DF93EC0161E089E00E9404
:1008E0002E04209731F460E089E0DF91CF910C94E1
:1008F0000004CF3FD10511F461E0F6CFEFEBF5E056
:10090000E491E33029F140F4E130B1F0E230D9F084
:10091000C038D1058CF7E7CFE73021F1E83051F14D
:10092000E430B1F780918000806280938000D093A2
:100930008B00C0938A0004C084B5806884BDC7BDA5
:10094000DF91CF91089584B5806284BDC8BDF8CF92
:1009500080918000806880938000D0938900C0934C
:100960008800EECF8091B00080688093B000C09383
:10097000B300E6CF8091B00080628093B000C09356
:10098000B400DECF3FB7F8948091E4059091E5057F
:10099000A091E605B091E70526B5A89B05C02F3FBD
:1009A00019F00196A11DB11D3FBFBA2FA92F982F95
:1009B0008827BC01CD01620F711D811D911D42E090
:1009C000660F771F881F991F4A95D1F708958F9258
:1009D0009F92AF92BF92CF92DF92EF92FF924B0124
:1009E0005C010E94C2046B017C010E94C2046C196C
:1009F0007D098E099F09683E734081059105A8F322
:100A000021E0821A9108A108B10888EEC80E83E09F
:100A1000D81EE11CF11C81149104A104B10429F732
:100A2000FF90EF90DF90CF90BF90AF909F908F900E
:100A300008952FB7F8946091E0057091E1058091D9
:100A4000E2059091E3052FBF0895AF92BF92CF9238
:100A5000DF92EF92FF920F931F93CF93DF936C017E
:100A60007B018B01040F151FEB015E01AE18BF085F
:100A7000C017D10759F06991D601ED91FC91019011
:100A8000F081E02DC6010995892B79F7C501DF9129
:100A9000CF911F910F91FF90EF90DF90CF90BF907B
:100AA000AF9008952F923F924F925F926F927F92F4
:100AB0008F929F92AF92BF92CF92DF92EF92FF926E
:100AC0000F931F93CF93DF93CDB7DEB728970FB661
:100AD000F894DEBF0FBECDBF9E838D836A3061F573
:100AE000DC0152968C91B8E08B9F90011124ED812E
:100AF000FE8186859785820F931F97878687158647
:100B0000148681E090E028960FB6F894DEBF0FBE01
:100B1000CDBFDF91CF911F910F91FF90EF90DF90AC
:100B2000CF90BF90AF909F908F907F906F905F908D
:100B30004F903F902F9008956D3019F3AD81BE8195
:100B400052967C9152971C962D913C911D97E72EC1
:100B5000F12C203831050CF08DC01E966D907C90E4
:100B6000B0E46B1671040CF085C085E0A901789F94
:100B7000400D511D1124141615060CF07BC0A70161
:100B800013E0440F551F1A95E1F7460D571D141633
:100B900015060CF06FC0ED81FE81F189F983AD81FE
:100BA000BE815096BC91BA83689FC0011124FC019C
:100BB000E059FF4F2F01890160E0F2018491653017
:100BC00009F480E01301B8E09B2EA82EB12CBC8262
:100BD000AB828A8080FF8980811005C0B9804A81FC
:100BE000B41609F435C0A8014F83842F801B8717E2
:100BF00078F5D12CC12CC71640F540385105E0F4EA
:100C0000C601820D931D80349105B0F4E8E6F0E052
:100C1000A0E1AA2EBF80A89ED001A0781124AB0D20
:100C20008770E80FF11DA490A886AC55BE4F8820B0
:100C300039F08C91A82AAC928FEFC81AD80ADBCF72
:100C4000A884A0948C91A822F6CF4F5F5F4FCCCFA1
:100C50008B819C81959587959A942E0C3F1C9110C1
:100C6000B4CF6F5F9FEF491A590A0E0D1F1D6630F2
:100C700009F0A3CFA6E07A9F200D311D1124ED814C
:100C8000FE81358724878389882309F43ACF4AEF88
:100C9000B7014603C001479F900D112480589F4F14
:100CA000821793070CF02DCFCF010190F081E02D3A
:100CB0000190F081E02D6AE0099523CF089590E03E
:100CC00080E0089590917A00906990937A008E5018
:100CD000806480937C0083B7817F826083BF20E241
:100CE00090E080E033B7316033BF889533B73E7F03
:100CF00033BF30917A0036FDFCCF4091780050919F
:100D00007900840F951F215069F720917A002F7781
:100D100020937A0025E0969587952A95E1F7089526
:100D20008FE00E946206A091AC05B091AD059C01D8
:100D30000E9475120E94A01328E539E743E353E4AB
:100D40000E94F6120E946F13CB0108950F931F9318
:100D5000CF9380917201882399F0CFEF0FEE11E0CD
:100D600061E085E00E940004C8010197F1F760E0AE
:100D700085E00E940004C8010197F1F7C15081F796
:100D8000CF911F910F9108954F925F926F927F9232
:100D90008F929F92AF92BF92CF92DF92EF92FF928B
:100DA000CF93DF938090BC059090BD05A090BE05C9
:100DB000B090BF05C091A805D0E0C501B4010E9464
:100DC00068136B017C0120E030E048E453E4C50186
:100DD000B4010E94F11293E0CC0FDD1F9A95E1F768
:100DE000C050DF4F87FF31C02881398150E040E09B
:100DF0002551310941095109C701B6010E94C214A8
:100E000028EC30E040E050E00E942912CA01B9010C
:100E10006B5E7F4F8F4F9F4F0E94A0136093C6055C
:100E20007093C7058093C8059093C905DF91CF9152
:100E3000FF90EF90DF90CF90BF90AF909F908F90FA
:100E40007F906F905F904F9008954A805B80712CE7
:100E5000612C20E030E04CE853E4C501B4010E946D
:100E6000F11287FF1FC088809980B12CA12CA701A7
:100E70009601285C310941095109C301B201681981
:100E800079098A099B090E94C21420E530E040E0FC
:100E900050E00E942912CA01B901680D791D8A1D0E
:100EA0009B1DBACF2C813D8150E040E024193509CB
:100EB00046095709C701B601685171408109910976
:100EC0000E94C21420E530E040E050E00E94291268
:100ED000CA01B901640D751D861D971D9DCF9091A6
:100EE000C00095FF04C08093C60081E0089580E0B3
:100EF00008950F931F93CF93DF93FC018091D80542
:100F00009091D905892BA1F4F0938F01E0938E0184
:100F100025E030E080E197E2CAE0D0E021503109DD
:100F200019F0E817F90758F19093D9058093D8057F
:100F30000091D8051091D90580918E0190918F0173
:100F4000B8010E94D214CB01CAE0D0E0BE010E94D9
:100F5000D214805D0E946F07882361F0C801BE0132
:100F60000E94D2147093D9056093D80581E0672B55
:100F700009F080E0DF91CF911F910F910895BE019C
:100F80000E94D214CB01CACF0E94EC141F93CF93BE
:100F9000DF93EC01162F0E941312181739F0612FFE
:100FA000CE01DF91CF911F910C941B12DF91CF9155
:100FB0001F910895AF92BF92CF92DF92EF92FF926E
:100FC0000F931F93CF93DF936091760182E090E0BF
:100FD0000E94C6076091750183E090E00E94C607F9
:100FE00060917F0184E090E00E94C60760917E01DD
:100FF00085E090E00E94C60760917D0186E090E068
:101000000E94C6076091780187E090E00E94C607C1
:101010006091770188E090E00E94C60760917401BA
:1010200089E090E00E94C607609173018AE090E039
:101030000E94C60760917C018BE090E00E94C60789
:10104000609172018CE090E00E94C6076091A80553
:101050008DE090E00E94C607609171018EE090E003
:101060000E94C607609170018FE090E00E94C60761
:101070006091A70580E190E00E94C6076091A605F7
:1010800081E190E00E94C6076091A50582E190E0B1
:101090000E94C6076091A40583E190E00E94C60704
:1010A00084E1E82EF12C10E006E080917101181720
:1010B000B8F5109F60011124D0E0C0E0FE01EC0DF6
:1010C000FD1DE05CFE4F6081C7018C0F9D1F0E94DB
:1010D000C6072196C630D10589F7670186E0C80E9C
:1010E000D11C88E0189FE0011124C050DF4F8EE032
:1010F000E80EF11C69812296C6010E94C6075601BE
:1011000082E0A80EB11CFE0132976081C6010196F3
:101110000E94C6076501AE14BF0461F71F5FC5CF0B
:10112000DF91CF911F910F91FF90EF90DF90CF90C3
:10113000BF90AF9008950C9413121F920F920FB6A8
:101140000F9211242F933F938F939F93AF93BF934D
:101150008091E0059091E105A091E205B091E30551
:101160003091DF0523E0230F2D3758F50196A11D9F
:10117000B11D2093DF058093E0059093E105A093D6
:10118000E205B093E3058091E4059091E505A09117
:10119000E605B091E7050196A11DB11D8093E40518
:1011A0009093E505A093E605B093E705BF91AF9155
:1011B0009F918F913F912F910F900FBE0F901F9095
:1011C000189526E8230F0296A11DB11DD2CF1F92BC
:1011D0000F920FB60F9211242F933F934F935F936B
:1011E0006F937F938F939F93EF93FF9383B181705E
:1011F00029B19091AB05981709F49DC030E0220FFA
:10120000232F221F330B922F8093AB054091AA0509
:10121000241709F490C02093AA052091B5053091B8
:10122000B605981719F03195219531094091B3050C
:101230005091B4056091B9057091BA05240F351F1E
:10124000261737070CF48BC02091B5053091B605F1
:10125000981719F03195219531094091B3055091B6
:10126000B4056091B7057091B805240F351F62175A
:1012700073070CF46FC04091B5055091B6059817EF
:1012800019F05195419551092091B3053091B4055C
:10129000240F351F3093B4052093B30541E0981314
:1012A00040E02091A905421709F440C02091B505FE
:1012B0003091B605981719F0319521953109609153
:1012C000B3057091B405E091B905F091BA05260F08
:1012D000371F2E173F070CF44CC02091B5053091F5
:1012E000B605981719F03195219531096091B3052C
:1012F0007091B405E091B705F091B805260F371F3E
:10130000E217F3078CF12091B5053091B6059817D7
:1013100019F03195219531098091B3059091B4056B
:10132000820F931F9093B4058093B3054093A90552
:1013300081E08093C005FF91EF919F918F917F9104
:101340006F915F914F913F912F910F900FBE0F9032
:101350001F9018952091B7053091B8059BCF20912B
:10136000B9053091BA0596CF8091B7059091B8052F
:10137000D9CF8091B9059091BA05D4CF1895CF9364
:10138000DF93CDB7DEB72E970FB6F894DEBF0FBE52
:10139000CDBF789484B5826084BD84B5816084BDFE
:1013A00085B5826085BD85B5816085BD80916E0003
:1013B000816080936E001092810080918100826034
:1013C0008093810080918100816080938100809171
:1013D00080008160809380008091B1008460809360
:1013E000B1008091B00081608093B00080917A005C
:1013F000846080937A0080917A00826080937A0082
:1014000080917A00816080937A0080917A00806870
:1014100080937A001092C10060E08EE00E942E045A
:1014200060E08FE00E942E0461E085E00E942E04BF
:1014300061E089E00E942E0462E087E00E942E04B1
:1014400062E088E00E942E0462E086E00E942E04A2
:1014500062E08AE00E942E041092C50087E6809325
:10146000C4001092C00088E08093C10086E08093A1
:10147000C2008FEF90E00E946A0460E085E00E9465
:10148000000480917A00876080937A0080917A00CE
:10149000886080937A00789481E080936B008093D9
:1014A00068008BBB90E080E00E949B08898381E00C
:1014B00090E00E949B08C9809C2D8F31984009F0D4
:1014C000D4C082E090E00E949B08898383E090E092
:1014D0000E949B08C9809C2D909376018093750192
:1014E00084E090E00E949B08898385E090E00E9460
:1014F0009B08D9809D2D90937F0180937E0186E08B
:1015000090E00E949B0880937D0187E090E00E941C
:101510009B088093780188E090E00E949B0880936C
:10152000770189E090E00E949B08809374018AE033
:1015300090E00E949B08809373018BE090E00E94F2
:101540009B0891E0811101C090E090937C018CE0B8
:1015500090E00E949B0891E0811101C090E090937F
:1015600072018DE090E00E949B088093A8058EE0B8
:1015700090E00E949B08482E809371018FE090E0DC
:101580000E949B088093700180E190E00E949B087C
:1015900091E0811101C090E09093A70581E190E076
:1015A0000E949B088093A60582E190E00E949B0820
:1015B000898383E190E00E949B08E9809E2D9093AF
:1015C000A5058093A405A0E0CA2EA1E0DA2EB0E420
:1015D000EB2EB1E0FB2E04E110E0512C451409F490
:1015E00050C01A82198289819A81800F911F0E94AE
:1015F0009B08E981FA81EE0DFF1D808329813A81E4
:101600002F5F3F4F3A8329832630310561F7480128
:1016100036E0830E911C025F1F4F5601C4010E94E9
:101620009B08A82FB0E0FA2FEE27FA83E983D501B3
:10163000ED93FC933401B2E06B0E711CC401019672
:101640000E949B08E981FA81E82BD501ED93FD9377
:101650005D0143016016710609F75394B8E0CB0EA3
:10166000D11CE6E0EE0EF11CB9CF68E090E080E01E
:101670000E94C6076FE181E090E00E94C6070E94C9
:10168000DA0780917A00806980937A008EE48093F3
:101690007C0061E070E080E090E00E94E70483B7A6
:1016A000817F826083BF80E130E020E093B791606A
:1016B00093BF889593B79E7F93BF90917A0096FDD4
:1016C000FCCF4091780050917900240F351F815054
:1016D00069F780917A008F7780937A00E4E03695FD
:1016E0002795EA95E1F750E040E064EB7BE281E189
:1016F00090E00E9429123093AD052093AC050E9422
:10170000900680917501909176019093CB0580931E
:10171000CA058EE00E946206BC0190E080E00E9453
:101720009E136093BC057093BD058093BE05909396
:10173000BF0580917A00806980937A0088EC80935D
:101740007C006AE070E080E090E00E94E70483B7EC
:10175000817F826083BF80E293B7916093BF889559
:1017600093B79E7F93BF90917A0096FDFCCF209116
:10177000780030917900815079F780917A008F77E5
:1017800080937A000E94C406C0907501D0907601C3
:10179000DA82C98220E030E040EA51E46091C60577
:1017A0007091C7058091C8059091C9050E94851266
:1017B0006B017C0129813A81B90190E080E00E94AF
:1017C0009E139B01AC01C701B6010E94F11287FF75
:1017D00004C090E080E00E946A0410921A06109201
:1017E0001B0610921C0610921D06812C912C7FE77F
:1017F000A72E73E4B72E80921E0690921F06A09229
:101800002006B092210600910606109107068091ED
:101810002206D801CD90DD90ED90FC90882309F44C
:1018200067C5A5019401C701B6010E94501418169E
:1018300034F5F80180829182A282B38280900E06F4
:1018400090900F06A0901006B0901106C0901E0652
:10185000D0901F06E0902006F0902106A701960187
:10186000C501B4010E9450141816CCF4C0920E06A3
:10187000D0920F06E0921006F092110620C020E0F0
:1018800030E0A901C701B6010E94F11287FFD6CF4F
:10189000D8011D921D921D921C921397CFCFC0901C
:1018A0001A06D0901B06E0901C06F0901D06A701BA
:1018B0009601C501B4010E94F11287FDD7CF81E0E6
:1018C0008093220683B181708093AB0589B190E04B
:1018D000880F892F881F990B8093AA052091AB054B
:1018E0009091AA0581E0291380E08093A9058CE2FC
:1018F00091E09093BA058093B90580E293E09093CC
:10190000B8058093B7058AE090E09093B605809380
:10191000B505C980DA80CC0CDD1CD092B405C0922C
:10192000B3050E9419056093AF057093B0058093CD
:10193000B1059093B2050E94A6060E94A60680916A
:10194000C005C090CA05D090CB05F12CE12C8823AE
:10195000C9F18091D005882329F120E030E040EAE8
:1019600051E46091C6057091C7058091C8059091BA
:10197000C9050E9485124B015C01C701B6010E9496
:101980009E139B01AC01C501B4010E94F11287FFB7
:1019900004C090E080E00E946A040E94A60681E0F4
:1019A00080937A011092C0051092D0051092D10553
:1019B0000E9419056093AF057093B0058093B1053F
:1019C0009093B2050E9419050091AF051091B005E2
:1019D0002091B1053091B205601B710B820B930B06
:1019E00020E63AEE40E050E00E9453122983209313
:1019F000AE058091D00581110BC0809178018823BC
:101A000039F0281728F081E08093D0050E94A606BF
:101A10008091D10581110CC080917701882341F01C
:101A20002981281728F081E08093D1050E94A6061D
:101A30008FEF90E00E946A048BEA94E00197F1F73F
:101A40008EE00E9462069A838983E0ECF5E084913F
:101A5000ECEAF5E00491E8E9F5E01491112379F05E
:101A600081110E94D703E12FF0E0EE0FFF1FE05934
:101A7000FA4FA591B4918C91082381E009F480E09C
:101A80009091C105891729F091E09093C00580934A
:101A9000C10580917B019FEF980F90937B0181118D
:101AA00002C00E9490066091CC057091CD05809196
:101AB000CE059091CF050E946813CB010E946A0465
:101AC0008090BC059090BD05A090BE05B090BF056C
:101AD00029813A81B90190E080E00E949E13A5011E
:101AE00094010E9484122DEC3CEC4CE45DE30E94D6
:101AF0005514A50194010E9485126093BC05709352
:101B0000BD058093BE059093BF050E94C4066091F9
:101B1000D6057091D70590E080E00E949E134B019E
:101B20005C012091D2053091D3054091D4055091AC
:101B3000D5050E94F11281118FC22091C605309106
:101B4000C7054091C8055091C905C501B4010E945F
:101B500084124B015C0120E030E0A9010E94501486
:101B600018160CF06FC220E030E040EA50E4C501E6
:101B7000B4010E94501418160CF46EC2C701B601CD
:101B80000E949E132091C6053091C7054091C8055B
:101B90005091C9050E9484126B017C0120E030E065
:101BA000A9010E94501418160CF065C2C701B601B5
:101BB0000E946F136530710508F061C28091800149
:101BC000811105C080917A0181110E94A60681E0F1
:101BD0008093800110927A018091D6059091D7056B
:101BE000853F31E0930710F010927901209179013F
:101BF000211140C0843F9140E8F58FEF90E00E94B2
:101C00006A040E94A60681E0809379010E94DA07A7
:101C100091E09093C0058EE00E946206BC0190E0C6
:101C200080E00E949E136093BC057093BD05809375
:101C3000BE059093BF051092BB058091CA05909197
:101C4000CB05ACE2B1E0B093BA05A093B905E0E2F0
:101C5000F3E0F093B805E093B7052AE0C22ED12C4B
:101C6000D092B605C092B505880F991F9093B40520
:101C70008093B3058091D105882309F403C21092A3
:101C8000D2051092D3051092D4051092D50540903C
:101C9000D2055090D3056090D4057090D505809002
:101CA000C6059090C705A090C805B090C905A501CC
:101CB0009401C301B2010E9484126B017C0120E0F7
:101CC00030E0A9010E94501418160CF0F4C1C701AD
:101CD000B6010E946F1380917C01882309F40EC223
:101CE0008092C2059092C305A092C405B092C5052A
:101CF000C0900206D0900306E12CF12C00EA10E41B
:101D000020E030E040E450E46E31710540F0E12C19
:101D1000F12C00E81FE320E030E040E05FE360E00A
:101D200070E080E391E40E941003809122068823F2
:101D300009F426C10E94190569837A838B839C83E9
:101D400080910A0690910B06A0910C06B0910D06A9
:101D500049815A816B817C81481B590B6A0B7B0B33
:101D60008091160690911706A0911806B091190659
:101D7000481759076A077B0708F402C1E091040677
:101D8000F09105064080518062807380E0910806E2
:101D9000F0910906A3019201608171818281938192
:101DA0000E9484126B017C0120911206309113066F
:101DB0004091140650911506C301B2010E9484128D
:101DC0006D837E838F8398872091F8053091F90584
:101DD0004091FA055091FB05C701B6010E945514C8
:101DE00020910E0630910F06409110065091110679
:101DF0000E9485124B015C0180920E0690920F06A4
:101E0000A0921006B09211063090230631101CC02B
:101E10002091F4053091F5054091F6055091F705B4
:101E20006D817E818F8198850E9455149B01AC0144
:101E3000C501B4010E94841260930E0670930F06D0
:101E4000809310069093110680910E0690910F06D4
:101E5000A0911006B091110689879A87AB87BC873D
:101E600000911E0610911F06909120069E87A0915A
:101E70002106AD879801492F5A2F69857A858B8570
:101E80009C850E94501418160CF019C1C801AE852B
:101E9000BD8580930E0690930F06A0931006B09315
:101EA0001106332009F426C12091F4053091F5057F
:101EB0004091F6055091F705C701B6010E945514EF
:101EC0006B017C012091FC053091FD054091FE05E0
:101ED0005091FF056D817E818F8198850E945514F8
:101EE0009B01AC0160910E0670910F068091100667
:101EF000909111060E948412A70196010E948512FA
:101F00006B017C019B01AC01B8018E859D850E940F
:101F1000F11287FD16C000911A0610911B06B091B0
:101F20001C06BE87E0911D06ED8798014B2F5E2FA2
:101F3000B601C7010E94F11287FD03C08601EE863B
:101F4000FD86E0910606F0910706C801AE85BD85C5
:101F500080839183A283B38340921206509213062A
:101F60006092140670921506C980DA80EB80FC80BE
:101F7000C0920A06D0920B06E0920C06F0920D0673
:101F80006091CC057091CD058091CE059091CF05E3
:101F90000E946813CB010E946A048091DE058111C2
:101FA00027C00E9419050091DA051091DB052091E8
:101FB000DC053091DD056B017C01C01AD10AE20A13
:101FC000F30A97018601083E13402105310508F404
:101FD000D4C06093DA057093DB058093DC059093A1
:101FE000DD0581E08093DE051092D9051092D805B9
:101FF000C090DE05C982EC2DE150EB3008F0BDC089
:10200000F0E0EB5FFF4E0C94E614A410AD10B4109A
:10201000C510B410D910B410FC10B4103A116F11DF
:1020200020E030E0A901C701B6010E94F11287FF4C
:1020300046CC10920E0610920F06109210061092C7
:1020400011063DCC20E030E040EA50ECC501B4017F
:102050000E94F11287FF92CD6091C6057091C7056D
:102060008091C8059091C9050E946F137093D705A0
:102070006093D60583CDC701B601905899CD1092D3
:102080008001AACD8091D00560917E0170917F0181
:10209000811104C06091CA057091CB0590E080E089
:1020A0000E949E136093D2057093D3058093D4054C
:1020B0009093D505ECCDC701B60190580ACE80901B
:1020C0001A0690901B06A0901C06B0901D06A50154
:1020D000940169857A858B859C850E94F11287FF22
:1020E000E0CE80920E0690920F06A0921006B0925B
:1020F0001106D7CEC12CD12C7601E4CE20E030E001
:1021000040E05FE3C501B4010E9485129B01AC0170
:10211000C301B2010E94501418164CF41092CC0561
:102120001092CD051092CE051092CF0529CF80E0F8
:1021300090E0AFE7B3E48093CC059093CD05A093F6
:10214000CE05B093CF051CCF84E20E946F07882391
:10215000A1F082E08093DE0510C084E50E946F0745
:10216000882359F083E0F6CF8CE20E946F07882322
:1021700021F029812F5F2093DE0580E090E0892BFC
:1021800009F4DDCB0E940000DACB8091D605909156
:10219000D705853F31E0930710F087EE93E00E946A
:1021A0007907882351F31092D9051092D80585E05C
:1021B000D1CFC090D205D090D305E090D405F09057
:1021C000D50520E030E0A901C701B6010E94F11257
:1021D00018167CF4C701B6010E946F13CB010E9450
:1021E0007907882351F21092D9051092D80587E01B
:1021F000B1CF90E080E0F3CFC090CC05D090CD057A
:10220000E090CE05F090CF0520E030E0A901C701B5
:10221000B6010E94F11270E060E0181684F420E02C
:1022200030E04FE753E4C701B6010E94F1126FEFAF
:1022300070E087FF04C0C701B6010E946F132FEF43
:1022400030E0261B370BA4E6B0E00E9475122FEF9A
:1022500030E040E050E00E945312822F90E00E9454
:102260007907882309F489CF1092D9051092D805EF
:1022700089E070CF8091D6059091D705853F914038
:1022800020F58091D105811122C08091D005811166
:1022900020C08091800181111EC020E030E044E325
:1022A00053E46091CC057091CD058091CE0590915D
:1022B000CF050E94F11287FF10C088E40E946F07CB
:1022C000882309F45ACF8BE045CF85E4F7CF8FE41C
:1022D000F5CF83E5F3CF87E5F1CF8CE4EFCF8AE04C
:1022E0000E946F07882309F448CF1092DE0545CF7E
:1022F000C0920E06D0920F06E0921006F0921106E0
:10230000E0910406F091050680819181A281B3815C
:102310008093120690931306A0931406B0931506AB
:1023200020E030E04FE753E4C701B6010E945014AB
:1023300018160CF075CE80920E0690920F06A092A1
:102340001006B0921106BBCACF92DF92EF92FF92B5
:102350000F931F93CF93DF93E0E9F1E01382128292
:102360001682178280E1808715821482128685E8A2
:1023700091E091838083158614861786168681E006
:10238000808B118A828B138AC8EED5E08CEC95E0A5
:102390009F8F8E8F82EC95E09D8F8C8F82ED95E0E4
:1023A00099A388A31AAE1AAA1BAA1CAA1DAA80E088
:1023B00090E0AFE7B3E48EAB9FABA8AFB9AF84E6D4
:1023C00090E0A0E0B0E08EA79FA7A8ABB9AB81E0FA
:1023D00090E0998F888FCC24C394D12CE12CF12CE0
:1023E00000E81FE320E030E040E05FE360E070E001
:1023F00080E391E40E9410030E9419050EA51FA519
:1024000028A939A9601B710B820B930B6AA37BA3CC
:102410008CA39DA3DF91CF911F910F91FF90EF901F
:10242000DF90CF900895F999FECF92BD81BDF89AC3
:10243000992780B50895262FF999FECF1FBA92BD2E
:1024400081BD20BD0FB6F894FA9AF99A0FBE019695
:102450000895052E97FB1EF400940E94401257FD2C
:1024600007D00E94531207FC03D04EF40C94401284
:1024700050954095309521953F4F4F4F5F4F0895B0
:1024800090958095709561957F4F8F4F9F4F0895E0
:102490000E947512A59F900DB49F900DA49F800D72
:1024A000911D11240895A1E21A2EAA1BBB1BFD0148
:1024B0000DC0AA1FBB1FEE1FFF1FA217B307E40723
:1024C000F50720F0A21BB30BE40BF50B661F771F7B
:1024D000881F991F1A9469F760957095809590955B
:1024E0009B01AC01BD01CF010895A29FB001B39F34
:1024F000C001A39F700D811D1124911DB29F700D0D
:10250000811D1124911D08955058BB27AA270E94B0
:102510009C120C9416140E94081438F00E940F1498
:1025200020F039F49F3F19F426F40C9405140EF4AE
:10253000E095E7FB0C94FF13E92F0E94271458F352
:10254000BA17620773078407950720F079F4A6F598
:102550000C9449140EF4E0950B2EBA2FA02D0B010C
:10256000B90190010C01CA01A0011124FF27591BD8
:1025700099F0593F50F4503E68F11A16F040A22FDE
:10258000232F342F4427585FF3CF4695379527954F
:10259000A795F0405395C9F77EF41F16BA0B620B4E
:1025A000730B840BBAF09150A1F0FF0FBB1F661F95
:1025B000771F881FC2F70EC0BA0F621F731F841FD8
:1025C00048F4879577956795B795F7959E3F08F0FE
:1025D000B0CF9395880F08F09927EE0F97958795C0
:1025E00008950E94DB1308F481E008950E940A1305
:1025F0000C9416140E940F1458F00E94081440F016
:1026000029F45F3F29F00C94FF1351110C944A14E4
:102610000C9405140E94271468F39923B1F35523F1
:1026200091F3951B550BBB27AA27621773078407E5
:1026300038F09F5F5F4F220F331F441FAA1FA9F37B
:1026400035D00E2E3AF0E0E832D091505040E69569
:10265000001CCAF72BD0FE2F29D0660F771F881FCA
:10266000BB1F261737074807AB07B0E809F0BB0BBD
:10267000802DBF01FF2793585F4F3AF09E3F5105D1
:1026800078F00C94FF130C944A145F3FE4F3983EE7
:10269000D4F3869577956795B795F7959F5FC9F7BA
:1026A000880F911D9695879597F90895E1E0660F3B
:1026B000771F881FBB1F621773078407BA0720F0B4
:1026C000621B730B840BBA0BEE1F88F7E09508951D
:1026D0000E946F136894B1110C944A1408950E94DB
:1026E0002F1488F09F5798F0B92F9927B751B0F061
:1026F000E1F0660F771F881F991F1AF0BA95C9F786
:1027000014C0B13091F00E944914B1E008950C94C6
:102710004914672F782F8827B85F39F0B93FCCF379
:10272000869577956795B395D9F73EF49095809502
:10273000709561957F4F8F4F9F4F0895E89409C022
:1027400097FB3EF490958095709561957F4F8F4FE4
:102750009F4F9923A9F0F92F96E9BB279395F695FA
:10276000879577956795B795F111F8CFFAF4BB0F78
:1027700011F460FF1BC06F5F7F4F8F4F9F4F16C0DC
:10278000882311F096E911C0772321F09EE8872F66
:10279000762F05C0662371F096E8862F70E060E022
:1027A0002AF09A95660F771F881FDAF7880F96959B
:1027B000879597F90895990F0008550FAA0BE0E83F
:1027C000FEEF16161706E807F907C0F012161306F3
:1027D000E407F50798F0621B730B840B950B39F433
:1027E0000A2661F0232B242B252B21F408950A2699
:1027F00009F4A140A6958FEF811D811D089597F9D9
:102800009F6780E870E060E008959FEF80EC089596
:1028100000240A94161617061806090608950024BF
:102820000A9412161306140605060895092E039439
:10283000000C11F4882352F0BB0F40F4BF2B11F4AD
:1028400060FF04C06F5F7F4F8F4F9F4F089557FD0C
:102850009058440F551F59F05F3F71F04795880F0E
:1028600097FB991F61F09F3F79F0879508951216A5
:1028700013061406551FF2CF4695F1DF08C0161651
:1028800017061806991FF1CF869571056105089402
:102890000895E894BB2766277727CB0197F9089519
:1028A0000E94DB1308F48FEF08950E9468140C94C3
:1028B00016140E94081438F00E940F1420F095237B
:1028C00011F00C94FF130C94051411240C944A1469
:1028D0000E94271470F3959FC1F3950F50E0551F88
:1028E000629FF001729FBB27F00DB11D639FAA2765
:1028F000F00DB11DAA1F649F6627B00DA11D661FB4
:10290000829F2227B00DA11D621F739FB00DA11DD4
:10291000621F839FA00D611D221F749F3327A00D8E
:10292000611D231F849F600D211D822F762F6A2F2A
:1029300011249F5750409AF0F1F088234AF0EE0F8F
:10294000FF1FBB1F661F771F881F91505040A9F7BC
:102950009E3F510580F00C94FF130C944A145F3F86
:10296000E4F3983ED4F3869577956795B795F795F8
:10297000E7959F5FC1F7FE2B880F911D9695879570
:1029800097F90895DB018F939F930E944812BF919E
:10299000AF91A29F800D911DA39F900DB29F900DAE
:1029A00011240895AA1BBB1B51E107C0AA1FBB1F1E
:1029B000A617B70710F0A61BB70B881F991F5A95CB
:1029C000A9F780959095BC01CD010895EE0FFF1FEA
:1029D0000590F491E02D099481E090E0F8940C9436
:0629E000F114F894FFCF92
:1029E600D800340186011E0000000000000000002F
:1029F60000000000000000000000000000000000D1
:102A060000000000000000000000000000000000C0
:102A160000000000000000000000000000000000B0
:102A26004243312E35000000000000000000000087
:102A36000000000000000000000000000000000090
:102A46000000000000000000000000000000000080
:102A5600010101012840010F050101FF013C96001B
:0E2A66000100000000520525055F065E060017
:00000001FF
