:100000000C94E6020C940E030C940E030C94380925
:100010000C940E030C940E030C940E030C940E031C
:100020000C940E030C940E030C940E030C940E030C
:100030000C940E030C940E030C940E030C940E03FC
:100040000C94EE080C940E030C940E030C940E0307
:100050000C940E030C940F0A0C940E030C940E03D4
:100060000C940E030C940E0301020408102040802F
:1000700000000000003E5B4F5B3E3E6B4F6B3E1C42
:100080003E7C3E1C183C7E3C181C577D571C1C5E59
:100090007F5E1C00183C1800FFE7C3E7FF00182430
:1000A0001800FFE7DBE7FF30483A060E26297929DA
:1000B00026407F050507407F05253F5A3CE73C5A0F
:1000C0007F3E1C1C08081C1C3E7F14227F22145FEC
:1000D0005F005F5F06097F017F006689956A606047
:1000E00060606094A2FFA29408047E040810207E41
:1000F000201008082A1C08081C2A08081E101010C6
:10010000100C1E0C1E0C30383E3830060E3E0E060B
:10011000000000000000005F00000007000700145E
:100120007F147F14242A7F2A12231308646236491D
:100130005620500008070300001C22410000412205
:100140001C002A1C7F1C2A08083E0808008070300A
:100150000008080808080000606000201008040279
:100160003E5149453E00427F40007249494946217F
:1001700041494D331814127F1027454545393C4AF3
:10018000494931412111090736494949364649490A
:10019000291E000014000000403400000008142252
:1001A00041141414141400412214080201590906C0
:1001B0003E415D594E7C1211127C7F494949363EC1
:1001C000414141227F4141413E7F494949417F09A7
:1001D0000909013E414151737F0808087F00417FB2
:1001E00041002040413F017F081422417F404040B0
:1001F000407F021C027F7F0408107F3E4141413E48
:100200007F090909063E4151215E7F0919294626C9
:100210004949493203017F01033F4040403F1F20CD
:1002200040201F3F4038403F6314081463030478A4
:1002300004036159494D43007F41414102040810C4
:1002400020004141417F04020102044040404040FF
:10025000000307080020545478407F28444438386D
:1002600044444428384444287F38545454180008DF
:100270007E090218A4A49C787F0804047800447DB9
:1002800040002040403D007F1028440000417F4056
:10029000007C047804787C080404783844444438AA
:1002A000FC1824241818242418FC7C08040408488A
:1002B0005454542404043F44243C4040207C1C20DB
:1002C00040201C3C4030403C44281028444C909036
:1002D000907C4464544C4400083641000000770090
:1002E00000004136080002010204023C2623263C9D
:1002F0001EA1A161123A4040207A38545455592128
:100300005555794121545478412155547840205411
:100310005579400C1E52721239555555593954545D
:10032000545939555454580000457C410002457DCC
:10033000420001457C40F0292429F0F0282528F0CE
:100340007C545545002054547C547C0A097F493222
:10035000494949323248484832324A4848303A419D
:1003600041217A3A42402078009DA0A07D39444442
:1003700044393D4040403D3C24FF2424487E4943CD
:10038000662B2FFC2F2BFF0929F620C0887E09033E
:1003900020545479410000447D413048484A323865
:1003A0004040227A007A0A0A727D0D19317D262991
:1003B000292F28262929292630484D402038080889
:1003C000080808080808382F10C8ACBA2F102834BD
:1003D000FA00007B000008142A142222142A1408B0
:1003E0009500220095AA005500AAAA55AA55AA0070
:1003F0000000FF00101010FF00141414FF00101074
:10040000FF00FF1010F010F0141414FC001414F787
:1004100000FF0000FF00FF1414F404FC1414171074
:100420001F10101F101F1414141F00101010F000C4
:100430000000001F101010101F10101010F01000FE
:100440000000FF101010101010101010FF1000000E
:1004500000FF140000FF00FF00001F10170000FC49
:1004600004F414141710171414F404F40000FF001B
:10047000F714141414141414F700F71414141714A4
:1004800010101F101F141414F4141010F010F000AA
:10049000001F101F0000001F14000000FC140000CB
:1004A000F010F01010FF10FF141414FF14101010AF
:1004B0001F00000000F010FFFFFFFFFFF0F0F0F062
:1004C000F0FFFFFF0000000000FFFF0F0F0F0F0FF6
:1004D00038444438447C2A2A3E147E02020606022E
:1004E0007E027E0263554941633844443C04407EA9
:1004F000201E2006027E020299A5E7A5991C2A4922
:100500002A1C4C7201724C304A4D4D3030487848AC
:1005100030BC625A463D3E494949007E0101017E98
:100520002A2A2A2A2A44445F444440514A444040EB
:10053000444A51400000FF0103E080FF000008082A
:100540006B6B083612362436060F090F06000018AA
:10055000180000001010003040FF0101001F0101D1
:100560001E00191D1712003C3C3C3C00000000001E
:1005700000000000230026002900000000002400E5
:1005800027002A0000000000250028002B0004049A
:10059000040404040404020202020202030303032B
:1005A0000303010204081020408001020408102007
:1005B00001020408102000000008000201000003EE
:1005C00004070000000000000000151111241FBEE8
:1005D000CFEFD8E0DEBFCDBF11E0A0E0B1E0E0EAB0
:1005E000F8E202C005900D92A43AB107D9F726E0CF
:1005F000A4EAB1E001C01D92A533B207E1F712E011
:10060000C6EED2E004C02197FE010E944314C53E0D
:10061000D107C9F70E94100A0C944E140C940000E4
:100620004F925F926F927F928F929F92AF92BF9202
:10063000CF92DF92EF92FF920F931F93CF93DF93AE
:1006400000D000D0CDB7DEB74B015C0129013A01E3
:10065000E982FA820B831C83D0921406C09213069F
:1006600081E0CA94CD2809F080E08093340680921E
:10067000F9059092FA05A092FB05B092FC05409214
:10068000FD055092FE056092FF057092000689817B
:100690009A81AB81BC818093010690930206A0935E
:1006A0000306B09304066091270670912806809196
:1006B000290690912A060E940F1320E030E04AE7B5
:1006C00054E40E9467126B017C01809205069092AF
:1006D0000606A0920706B0920806AC019B01C30172
:1006E000B2010E94C6132B013C01409209065092B0
:1006F0000A0660920B0670920C06A70196016981AA
:100700007A818B819C810E9467126B017C01C0926F
:100710000D06D0920E06E0920F06F0921006809120
:10072000110690911206019769F5A501940160E008
:1007300070E0CB010E94F5116093050670930606E8
:100740008093070690930806A301920160E070E091
:10075000CB010E94F5116093090670930A068093FD
:100760000B0690930C06A701960160E070E0CB01A8
:100770000E94F51160930D0670930E0680930F068C
:10078000909310060F900F900F900F90DF91CF91E4
:100790001F910F91FF90EF90DF90CF90BF90AF909F
:1007A0009F908F907F906F905F904F9008958330CF
:1007B00081F028F4813099F08230A9F008958730D3
:1007C000A9F08830C9F08430B1F4809180008F7D29
:1007D00003C0809180008F7780938000089584B556
:1007E0008F7784BD089584B58F7DFBCF8091B00055
:1007F0008F778093B00008958091B0008F7DF9CFFE
:100800001F93CF93DF93282F30E0F901EA54FA4F7A
:100810008491F901EE55FA4FD491F901E257FA4F5C
:10082000C491CC23A9F0162F81110E94D703EC2F7D
:10083000F0E0EE0FFF1FEC57FA4FA591B4918FB780
:10084000F894EC91111108C0D095DE23DC938FBF92
:10085000DF91CF911F910895DE2BF8CFCF93DF93D7
:1008600090E0FC01EE55FA4F249182579A4FFC011B
:1008700084918823C9F090E0880F991FFC01E65805
:10088000FA4FA591B491FC01EC57FA4FC591D49160
:1008900061110DC09FB7F8948C91209582238C93A1
:1008A0008881282328839FBFDF91CF9108956230EC
:1008B00051F49FB7F8943C91822F809583238C93B9
:1008C000E8812E2BEFCF8FB7F894EC912E2B2C9341
:1008D0008FBFEACFCF93DF93EC0161E089E00E9404
:1008E0002E04209731F460E089E0DF91CF910C94E1
:1008F0000004CF3FD10511F461E0F6CFEFEBF5E056
:10090000E491E33029F140F4E130B1F0E230D9F084
:10091000C038D1058CF7E7CFE73021F1E83051F14D
:10092000E430B1F780918000806280938000D093A2
:100930008B00C0938A0004C084B5806884BDC7BDA5
:10094000DF91CF91089584B5806284BDC8BDF8CF92
:1009500080918000806880938000D0938900C0934C
:100960008800EECF8091B00080688093B000C09383
:10097000B300E6CF8091B00080628093B000C09356
:10098000B400DECF3FB7F8948091F5059091F6055D
:10099000A091F705B091F80526B5A89B05C02F3F9B
:1009A00019F00196A11DB11D3FBFBA2FA92F982F95
:1009B0008827BC01CD01620F711D811D911D42E090
:1009C000660F771F881F991F4A95D1F708958F9258
:1009D0009F92AF92BF92CF92DF92EF92FF924B0124
:1009E0005C010E94C2046B017C010E94C2046C196C
:1009F0007D098E099F09683E734081059105A8F322
:100A000021E0821A9108A108B10888EEC80E83E09F
:100A1000D81EE11CF11C81149104A104B10429F732
:100A2000FF90EF90DF90CF90BF90AF909F908F900E
:100A300008952FB7F8946091F1057091F2058091B7
:100A4000F3059091F4052FBF0895AF92BF92CF9216
:100A5000DF92EF92FF920F931F93CF93DF936C017E
:100A60007B018B01040F151FEB015E01AE18BF085F
:100A7000C017D10759F06991D601ED91FC91019011
:100A8000F081E02DC6010995892B79F7C501DF9129
:100A9000CF911F910F91FF90EF90DF90CF90BF907B
:100AA000AF9008952F923F924F925F926F927F92F4
:100AB0008F929F92AF92BF92CF92DF92EF92FF926E
:100AC0000F931F93CF93DF93CDB7DEB728970FB661
:100AD000F894DEBF0FBECDBF9E838D836A3061F573
:100AE000DC0152968C91B8E08B9F90011124ED812E
:100AF000FE8186859785820F931F97878687158647
:100B0000148681E090E028960FB6F894DEBF0FBE01
:100B1000CDBFDF91CF911F910F91FF90EF90DF90AC
:100B2000CF90BF90AF909F908F907F906F905F908D
:100B30004F903F902F9008956D3019F3AD81BE8195
:100B400052967C9152971C962D913C911D97E72EC1
:100B5000F12C203831050CF08DC01E966D907C90E4
:100B6000B0E46B1671040CF085C085E0A901789F94
:100B7000400D511D1124141615060CF07BC0A70161
:100B800013E0440F551F1A95E1F7460D571D141633
:100B900015060CF06FC0ED81FE81F189F983AD81FE
:100BA000BE815096BC91BA83689FC0011124FC019C
:100BB000E059FF4F2F01890160E0F2018491653017
:100BC00009F480E01301B8E09B2EA82EB12CBC8262
:100BD000AB828A8080FF8980811005C0B9804A81FC
:100BE000B41609F435C0A8014F83842F801B8717E2
:100BF00078F5D12CC12CC71640F540385105E0F4EA
:100C0000C601820D931D80349105B0F4E8E6F0E052
:100C1000A0E1AA2EBF80A89ED001A0781124AB0D20
:100C20008770E80FF11DA490A886A854BE4F8820B5
:100C300039F08C91A82AAC928FEFC81AD80ADBCF72
:100C4000A884A0948C91A822F6CF4F5F5F4FCCCFA1
:100C50008B819C81959587959A942E0C3F1C9110C1
:100C6000B4CF6F5F9FEF491A590A0E0D1F1D6630F2
:100C700009F0A3CFA6E07A9F200D311D1124ED814C
:100C8000FE81358724878389882309F43ACF4AEF88
:100C9000B7014603C001479F900D112480589F4F14
:100CA000821793070CF02DCFCF010190F081E02D3A
:100CB0000190F081E02D6AE0099523CF089590E03E
:100CC00080E0089590917A00906990937A008E5018
:100CD000806480937C0083B7817F826083BF20E241
:100CE00090E080E033B7316033BF889533B73E7F03
:100CF00033BF30917A0036FDFCCF4091780050919F
:100D00007900840F951F215069F720917A002F7781
:100D100020937A0025E0969587952A95E1F7089526
:100D20008FE00E946206A091C005B091C1059C01B0
:100D30000E94E6110E94111328E539E743E353E4CA
:100D40000E9467120E94E012CB0108950F931F9337
:100D5000CF9380917201882399F0CFEF0FEE11E0CD
:100D600061E085E00E940004C8010197F1F760E0AE
:100D700085E00E940004C8010197F1F7C15081F796
:100D8000CF911F910F9108954F925F926F927F9232
:100D90008F929F92AF92BF92CF92DF92EF92FF928B
:100DA000CF93DF938090D2059090D305A090D40587
:100DB000B090D505C091BC05D0E0C501B4010E943A
:100DC000D9126B017C0120E030E048E453E4C50116
:100DD000B4010E94621293E0CC0FDD1F9A95E1F7F7
:100DE000C050DF4F87FF31C02881398150E040E09B
:100DF0002551310941095109C701B6010E94331437
:100E000028EC30E040E050E00E949A11CA01B9019C
:100E10006B5E7F4F8F4F9F4F0E9411136093E005D1
:100E20007093E1058093E2059093E305DF91CF9104
:100E3000FF90EF90DF90CF90BF90AF909F908F90FA
:100E40007F906F905F904F9008954A805B80712CE7
:100E5000612C20E030E04CE853E4C501B4010E946D
:100E6000621287FF1FC088809980B12CA12CA70136
:100E70009601285C310941095109C301B201681981
:100E800079098A099B090E94331420E530E040E08B
:100E900050E00E949A11CA01B901680D791D8A1D9E
:100EA0009B1DBACF2C813D8150E040E024193509CB
:100EB00046095709C701B601685171408109910976
:100EC0000E94331420E530E040E050E00E949A1187
:100ED000CA01B901640D751D861D971D9DCF0E9425
:100EE00049141F93CF93DF93EC01162F0E948411B6
:100EF000181739F0612FCE01DF91CF911F910C941B
:100F00008C11DF91CF911F910895AF92BF92CF9234
:100F1000DF92EF92FF920F931F93CF93DF93809115
:100F20007101811103C081E0809371018091710191
:100F3000893018F088E0809371019091BC05809110
:100F40007101981710F01092BC056091760182E053
:100F500090E00E9471076091750183E090E00E942B
:100F600071076091800184E090E00E9471076091B8
:100F70007F0185E090E00E94710760917E0186E02C
:100F800090E00E9471076091780187E090E00E94F4
:100F900071076091770188E090E00E94710760918D
:100FA000740189E090E00E947107609173018AE00A
:100FB00090E00E94710760917D018BE090E00E94BB
:100FC0007107609172018CE090E00E94710760915E
:100FD000BC058DE090E00E947107609171018EE088
:100FE00090E00E947107609170018FE090E00E9494
:100FF00071076091BB0580E190E00E9471076091EC
:10100000BA0581E190E00E9471076091B90582E123
:1010100090E00E9471076091B80583E190E00E9422
:10102000710784E1E82EF12C10E006E08091710157
:101030001817B8F5109F60011124D0E0C0E0FE0140
:10104000EC0DFD1DE05CFE4F6081C7018C0F9D1F04
:101050000E9471072196C630D10589F7670186E0A5
:10106000C80ED11C88E0189FE0011124C050DF4F4A
:101070008EE0E80EF11C69812296C6010E9471077C
:10108000560182E0A80EB11CFE0132976081C601B4
:1010900001960E9471076501AE14BF0461F71F5FDE
:1010A000C5CFDF91CF911F910F91FF90EF90DF900F
:1010B000CF90BF90AF900895EF92FF920F931F9340
:1010C000CF93DF9300D000D000D0CDB7DEB780E45F
:1010D00091E0909376018093750186E990E090937A
:1010E000800180937F018CE380937E0185E0809373
:1010F00078018FE08093770188E28093740181E02A
:101100008093730180937D01809372011092BC05DE
:1011100080937101809370011092BB051092BA0503
:101120001092B9051092B805A0E0B1E080E491E01A
:10113000FC0108ED10E064E371E046E851E02EE1C7
:10114000E22EF12C11961C930E9313967C936E93C2
:10115000129715965C934E9314971796FC92EE9205
:1011600016971082118212821382148215821896A9
:10117000369621E0E037F20729F726E0EDE8F1E0C6
:10118000DE01119601900D922A95E1F7FE0131964C
:10119000AE014A5F5F4F2191222331F0DC012D9394
:1011A000CD01E417F507B9F768E090E080E00E9410
:1011B00071076FE181E090E00E94710726960FB6FB
:1011C000F894DEBF0FBECDBFDF91CF911F910F917D
:1011D000FF90EF900C9485070C9484111F920F924E
:1011E0000FB60F9211242F933F938F939F93AF933A
:1011F000BF938091F1059091F205A091F305B09114
:10120000F4053091F00523E0230F2D3758F50196B2
:10121000A11DB11D2093F0058093F1059093F20577
:10122000A093F305B093F4058091F5059091F60530
:10123000A091F705B091F8050196A11DB11D80930D
:10124000F5059093F605A093F705B093F805BF91C7
:10125000AF919F918F913F912F910F900FBE0F9063
:101260001F90189526E8230F0296A11DB11DD2CF1D
:101270001F920F920FB60F9211242F933F934F930B
:101280005F936F937F938F939F93EF93FF9383B1BC
:10129000817029B19091BF05981709F49DC030E085
:1012A000220F232F221F330B922F8093BF054091D3
:1012B000BE05241709F490C02093BE052091C905EE
:1012C0003091CA05981719F031952195310940914F
:1012D000C7055091C8056091CD057091CE05240FCA
:1012E000351F261737070CF48BC02091C9053091A4
:1012F000CA05981719F03195219531094091C70514
:101300005091C8056091CB057091CC05240F351F15
:10131000621773070CF46FC04091C9055091CA055C
:10132000981719F05195419551092091C7053091B1
:10133000C805240F351F3093C8052093C70541E029
:10134000981340E02091BD05421709F440C0209158
:10135000C9053091CA05981719F0319521953109C1
:101360006091C7057091C805E091CD05F091CE055B
:10137000260F371F2E173F070CF44CC02091C905CC
:101380003091CA05981719F031952195310960916E
:10139000C7057091C805E091CB05F091CC05260FEB
:1013A000371FE217F3078CF12091C9053091CA0568
:1013B000981719F03195219531098091C7059091C1
:1013C000C805820F931F9093C8058093C70540936B
:1013D000BD0581E08093D605FF91EF919F918F919C
:1013E0007F916F915F914F913F912F910F900FBE21
:1013F0000F901F9018952091CB053091CC059BCF75
:101400002091CD053091CE0596CF8091CB0590915E
:10141000CC05D9CF8091CD059091CE05D4CF18952C
:10142000CF93DF93CDB7DEB72E970FB6F894DEBF1C
:101430000FBECDBF789484B5826084BD84B58160D1
:1014400084BD85B5826085BD85B5816085BD80918F
:101450006E00816080936E00109281008091810007
:1014600082608093810080918100816080938100FF
:10147000809180008160809380008091B1008460C1
:101480008093B1008091B00081608093B000809122
:101490007A00846080937A0080917A0082608093E1
:1014A0007A0080917A00816080937A0080917A003E
:1014B000806880937A001092C10060E08EE00E9404
:1014C0002E0460E08FE00E942E0461E085E00E941F
:1014D0002E0461E089E00E942E0462E087E00E9411
:1014E0002E0462E088E00E942E0462E086E00E9402
:1014F0002E0462E08AE00E942E041092C50087E666
:101500008093C4001092C00088E08093C10086E000
:101510008093C2008FEF90E00E946A0460E085E053
:101520000E94000480917A00876080937A00809105
:101530007A00886080937A00789481E080936B00D1
:10154000809368008BBB90E080E00E94EC08898368
:1015500081E090E00E94EC08C9809C2D8F3198407A
:1015600009F091C082E090E00E94EC08898383E05A
:1015700090E00E94EC08C9809C2D909376018093A6
:10158000750184E090E00E94EC08898385E090E09A
:101590000E94EC08D9809D2D9093800180937F015B
:1015A00086E090E00E94EC0880937E0187E090E066
:1015B0000E94EC088093780188E090E00E94EC089B
:1015C0008093770189E090E00E94EC088093740199
:1015D0008AE090E00E94EC08182F809373018BE062
:1015E00090E00E94EC0891E0811101C090E090939E
:1015F0007D018CE090E00E94EC0891E0811101C037
:1016000090E0909372018DE090E00E94EC08082F2A
:101610008093BC058EE090E00E94EC08582E8093E9
:1016200071018FE090E00E94EC088D83809370013F
:1016300080E190E00E94EC0891E0811101C090E00F
:101640009093BB0581E190E00E94EC088093BA057D
:1016500082E190E00E94EC08898383E190E00E949F
:10166000EC08E9809E2D9093B9058093B8058FEF23
:10167000850D883040F4051530F4123020F42D81AA
:10168000233008F402C10E945C0880917A008069CE
:1016900080937A008EE480937C0061E070E080E0CB
:1016A00090E00E94E70483B7817F826083BF80E17E
:1016B00030E020E093B7916093BF889593B79E7F09
:1016C00093BF90917A0096FDFCCF409178005091A5
:1016D0007900240F351F815069F780917A008F7748
:1016E00080937A00E4E036952795EA95E1F750E09B
:1016F00040E064EB7BE281E190E00E949A1130933C
:10170000C1052093C0050E949006809175019091BB
:1017100076019093E5058093E4058EE00E946206D1
:10172000BC0190E080E00E940F136093D20570939B
:10173000D3058093D4059093D50580917A00806974
:1017400080937A0088EC80937C006AE070E080E00F
:1017500090E00E94E70483B7817F826083BF80E2CC
:1017600093B7916093BF889593B79E7F93BF9091F5
:101770007A0096FDFCCF209178003091790081505D
:1017800079F780917A008F7780937A000E94C4065F
:10179000C0907501D0907601DA82C98220E030E0F5
:1017A00040EA51E46091E0057091E1058091E20525
:1017B0009091E3050E94F6116B017C0129813A8129
:1017C000B90190E080E00E940F139B01AC01C701BA
:1017D000B6010E94621287FF04C090E080E00E9480
:1017E0006A0410922B0610922C0610922D0610926D
:1017F0002E06812C912C7FE7A72E73E4B72E8092C2
:101800002F0690923006A0923106B09232060091D7
:1018100017061091180680913306D801CD90DD90FF
:10182000ED90FC90882309F4D4C4A5019401C7016C
:10183000B6010E94C11318160CF079C0F80180821D
:101840009182A282B38280901F0690902006A09081
:101850002106B0902206C0902F06D0903006E0906E
:101860003106F0903206A7019601C501B4010E942D
:10187000C11318160CF06BC0C0921F06D092200640
:10188000E0922106F092220672C0B0E0CB2EB1E0C9
:10189000DB2E10E4E12E11E0F12E04E110E0412CEA
:1018A0001A82198289819A81800F911F0E94EC0807
:1018B000E981FA81EE0DFF1D808389819A8101966D
:1018C0009A838983069771F7480196E0890E911CE7
:1018D000D70115961C92025F1F4F5601C4010E944A
:1018E000EC08E82FF0E03E2F22273A832983D50128
:1018F0002D933C933401B2E06B0E711CC401019630
:101900000E94EC08E981FA81E82BD501ED93FD9363
:101910005D0143016016710609F74394B8E0CB0EF0
:10192000D11CE6E0EE0EF11C5410BACFAECE20E092
:1019300030E0A901C701B6010E94621287FF83CF80
:10194000D8011D921D921D921C9213977CCFC090BE
:101950002B06D0902C06E0902D06F0902E06A701C5
:101960009601C501B4010E94621287FD85CF81E016
:101970008093330683B181708093BF0589B190E075
:10198000880F892F881F990B8093BE052091BF0572
:101990009091BE0581E0291380E08093BD058CE223
:1019A00091E09093CE058093CD0580E293E09093F3
:1019B000CC058093CB058AE090E09093CA05809394
:1019C000C905C980DA80CC0CDD1CD092C805C09254
:1019D000C7050E9419056093C3057093C4058093E1
:1019E000C5059093C6050E94A6060E94A60622245D
:1019F00023948091D605C090E405D090E505F12CA4
:101A0000E12C8823C1F18091E605882321F120E0B3
:101A100030E040EA51E46091E0057091E105809189
:101A2000E2059091E3050E94F6114B015C01C701AC
:101A3000B6010E940F139B01AC01C501B4010E94C5
:101A4000621287FF04C090E080E00E946A040E9456
:101A5000A60620927A011092D6051092E605109201
:101A6000EB050E9419056093C3057093C40580932C
:101A7000C5059093C6050E9419050091C3051091F4
:101A8000C4052091C5053091C605601B710B820B02
:101A9000930B20E63AEE40E050E00E94C411298307
:101AA0002093C2058091E60581110AC080917801DA
:101AB000882331F0281720F02092E6050E94A60620
:101AC0008091EB0581110BC080917701882339F05B
:101AD0002981281720F02092EB050E94A6068FEF9F
:101AE00090E00E946A048BEA94E00197F1F78EE09F
:101AF0000E9462069A838983E0ECF5E08491ECEA27
:101B0000F5E00491E8E9F5E01491112379F08111F1
:101B10000E94D703E12FF0E0EE0FFF1FE059FA4FCC
:101B2000A591B4918C91082381E009F480E0909113
:101B3000D705891721F02092D6058093D70580918B
:101B40007C019FEF980F90937C01811102C00E944D
:101B500090066091D8057091D9058091DA05909131
:101B6000DB050E94D912CB010E946A048090D20545
:101B70009090D305A090D405B090D50529813A81E5
:101B8000B90190E080E00E940F13A50194010E942A
:101B9000F5112DEC3CEC4CE45DE30E94C613A5016D
:101BA00094010E94F6116093D2057093D30580933F
:101BB000D4059093D5050E94C4066091D00570911C
:101BC000D10590E080E00E940F134B015C01209151
:101BD000E7053091E8054091E9055091EA050E943A
:101BE0006212811176C22091E0053091E1054091A9
:101BF000E2055091E305C501B4010E94F5114B01C6
:101C00005C0120E030E0A9010E94C11318160CF01D
:101C100056C220E030E040EA50E4C501B4010E9421
:101C2000C11318160CF455C2C701B6010E940F1358
:101C30002091E0053091E1054091E2055091E305E6
:101C40000E94F5116B017C0120E030E0A9010E94A7
:101C5000C11318160CF04CC2C701B6010E94E01265
:101C60006530710508F048C280917B01811105C083
:101C700080917A0181110E94A60620927B01109228
:101C80007A018091D0059091D105853F31E093078D
:101C900010F0109279012091790121113EC0843F0A
:101CA0009140D8F58FEF90E00E946A040E94A6064A
:101CB000209279010E9485072092D6058EE00E942D
:101CC0006206BC0190E080E00E940F136093D20591
:101CD0007093D3058093D4059093D5051092CF05CA
:101CE0008091E4059091E505ACE2B1E0B093CE05BA
:101CF000A093CD05E0E2F3E0F093CC05E093CB05B3
:101D00002AE0C22ED12CD092CA05C092C905880FF4
:101D1000991F9093C8058093C7058091EB05882390
:101D200009F4EDC11092E7051092E8051092E9055B
:101D30001092EA054090E7055090E8056090E905AB
:101D40007090EA058090E0059090E105A090E20592
:101D5000B090E305A5019401C301B2010E94F51101
:101D60006B017C0120E030E0A9010E94C11318162C
:101D70000CF0DEC1C701B6010E94E01280917D0126
:101D8000882309F4F8C18092DC059092DD05A092C9
:101D9000DE05B092DF05C0901306D0901406E12C4A
:101DA000F12C00EA10E420E030E040E450E46E3131
:101DB000710540F0E12CF12C00E81FE320E030E059
:101DC00040E05FE360E070E080E391E40E94100394
:101DD00080913306882309F426C10E94190569837E
:101DE0007A838B839C8380911B0690911C06A09123
:101DF0001D06B0911E0649815A816B817C81481B6A
:101E0000590B6A0B7B0B8091270690912806A091B5
:101E10002906B0912A06481759076A077B0708F474
:101E200002C1E0911506F091160640805180628053
:101E30007380E0911906F0911A06A3019201608166
:101E40007181828193810E94F5116B017C01209147
:101E50002306309124064091250650912606C301A1
:101E6000B2010E94F5116D837E838F839887209144
:101E7000090630910A0640910B0650910C06C701E5
:101E8000B6010E94C61320911F0630912006409192
:101E90002106509122060E94F6114B015C018092AE
:101EA0001F0690922006A0922106B0922206309042
:101EB000340631101CC02091050630910606409171
:101EC0000706509108066D817E818F8198850E945A
:101ED000C6139B01AC01C501B4010E94F5116093CA
:101EE0001F0670932006809321069093220680910E
:101EF0001F0690912006A0912106B09122068987A5
:101F00009A87AB87BC8700912F061091300690917D
:101F100031069E87A0913206AD879801492F5A2F2E
:101F200069857A858B859C850E94C11318160CF0F3
:101F300003C1C801AE85BD8580931F06909320061E
:101F4000A0932106B0932206332009F410C12091FA
:101F50000506309106064091070650910806C70114
:101F6000B6010E94C6136B017C0120910D063091D1
:101F70000E0640910F06509110066D817E818F8173
:101F800098850E94C6139B01AC0160911F06709159
:101F9000200680912106909122060E94F511A7014A
:101FA00096010E94F6116B017C019B01AC01B80106
:101FB0008E859D850E94621287FD16C000912B06BA
:101FC00010912C06B0912D06BE87E0912E06ED876C
:101FD00098014B2F5E2FB601C7010E94621287FD48
:101FE00003C08601EE86FD86E0911706F091180683
:101FF000C801AE85BD8580839183A283B38340925F
:102000002306509224066092250670922606C98007
:10201000DA80EB80FC80C0921B06D0921C06E09216
:102020001D06F0921E066091D8057091D905809129
:10203000DA059091DB050E94D912CB010E946A0457
:102040000E9419050091EC051091ED052091EE0517
:102050003091EF056B017C01C01AD10AE20AF30A44
:1020600097018601083E13402105310508F4A9C0F7
:102070006093EC057093ED058093EE059093EF056A
:10208000E3E9F1E08191882309F49BC09091C000BD
:1020900095FFFCCF8093C600F5CF20E030E0A9018A
:1020A000C701B6010E94621287FF61CC10921F0621
:1020B00010922006109221061092220658CC20E0A1
:1020C00030E040EA50ECC501B4010E94621287FF83
:1020D000ABCD6091E0057091E1058091E2059091B2
:1020E000E3050E94E0127093D1056093D0059CCD6A
:1020F000C701B6019058B2CD10927B01C2CD80913C
:10210000E60560917F0170918001811104C06091AA
:10211000E4057091E50590E080E00E940F13609364
:10212000E7057093E8058093E9059093EA0502CEF0
:10213000C701B601905820CE80902B0690902C06B7
:10214000A0902D06B0902E06A501940169857A8590
:102150008B859C850E94621287FFF6CE80921F06B7
:1021600090922006A0922106B0922206EDCEC12CBC
:10217000D12C7601FACE20E030E040E05FE3C501EB
:10218000B4010E94F6119B01AC01C301B2010E948F
:10219000C11318164CF41092D8051092D90510925C
:1021A000DA051092DB053FCF80E090E0AFE7B3E4C3
:1021B0008093D8059093D905A093DA05B093DB05F9
:1021C00032CF80E090E0892B09F413CC0E9400000C
:1021D0000ECCC0921F06D0922006E0922106F0920B
:1021E0002206E0911506F091160680819181A28168
:1021F000B3818093230690932406A0932506B09381
:10220000260620E030E04FE753E4C701B6010E9404
:10221000C11318160CF041CF80921F069092200631
:10222000A0922106B0922206A2CBCF92DF92EF922B
:10223000FF920F931F93CF93DF93E4EAF1E01382B1
:1022400012821682178280E180871582148212869C
:1022500085E891E09183808315861486178616861B
:1022600081E0808B118A828B138AC9EFD5E088EDDB
:1022700095E09F8F8E8F8CED95E09D8F8C8F87EEF4
:1022800095E099A388A31AAE1AAA1BAA1CAA1DAA94
:1022900080E090E0AFE7B3E48EAB9FABA8AFB9AFFF
:1022A00084E690E0A0E0B0E08EA79FA7A8ABB9AB12
:1022B00081E090E0998F888FCC24C394D12CE12CBD
:1022C000F12C00E81FE320E030E040E05FE360E055
:1022D00070E080E391E40E9410030E9419050EA5AE
:1022E0001FA528A939A9601B710B820B930B6AA348
:1022F0007BA38CA39DA3DF91CF911F910F91FF90A2
:10230000EF90DF90CF900895F999FECF92BD81BDF7
:10231000F89A992780B50895262FF999FECF1FBA0C
:1023200092BD81BD20BD0FB6F894FA9AF99A0FBEFE
:1023300001960895052E97FB1EF400940E94B1119A
:1023400057FD07D00E94C41107FC03D04EF40C9433
:10235000B11150954095309521953F4F4F4F5F4FAC
:10236000089590958095709561957F4F8F4F9F4F01
:1023700008950E94E611A59F900DB49F900DA49F13
:10238000800D911D11240895A1E21A2EAA1BBB1BDA
:10239000FD010DC0AA1FBB1FEE1FFF1FA217B30731
:1023A000E407F50720F0A21BB30BE40BF50B661F47
:1023B000771F881F991F1A9469F76095709580950B
:1023C00090959B01AC01BD01CF010895A29FB00182
:1023D000B39FC001A39F700D811D1124911DB29F59
:1023E000700D811D1124911D08955058BB27AA27F7
:1023F0000E940D120C9487130E94791338F00E94EA
:10240000801320F039F49F3F19F426F40C947613CE
:102410000EF4E095E7FB0C947013E92F0E949813DB
:1024200058F3BA17620773078407950720F079F409
:10243000A6F50C94BA130EF4E0950B2EBA2FA02D2E
:102440000B01B90190010C01CA01A0011124FF2761
:10245000591B99F0593F50F4503E68F11A16F0405C
:10246000A22F232F342F4427585FF3CF469537955B
:102470002795A795F0405395C9F77EF41F16BA0B20
:10248000620B730B840BBAF09150A1F0FF0FBB1FCE
:10249000661F771F881FC2F70EC0BA0F621F731F17
:1024A000841F48F4879577956795B795F7959E3F74
:1024B00008F0B0CF9395880F08F09927EE0F979505
:1024C000879508950E944C1308F481E008950E94B6
:1024D0007B120C9487130E94801358F00E9479138A
:1024E00040F029F45F3F29F00C94701351110C94C3
:1024F000BB130C9476130E94981368F39923B1F3DD
:10250000552391F3951B550BBB27AA276217730719
:10251000840738F09F5F5F4F220F331F441FAA1FAD
:10252000A9F335D00E2E3AF0E0E832D09150504069
:10253000E695001CCAF72BD0FE2F29D0660F771F17
:10254000881FBB1F261737074807AB07B0E809F0FD
:10255000BB0B802DBF01FF2793585F4F3AF09E3F82
:10256000510578F00C9470130C94BB135F3FE4F3A7
:10257000983ED4F3869577956795B795F7959F5FC5
:10258000C9F7880F911D9695879597F90895E1E011
:10259000660F771F881FBB1F621773078407BA0770
:1025A00020F0621B730B840BBA0BEE1F88F7E095CB
:1025B00008950E94E0126894B1110C94BB13089521
:1025C0000E94A01388F09F5798F0B92F9927B75110
:1025D000B0F0E1F0660F771F881F991F1AF0BA95C7
:1025E000C9F714C0B13091F00E94BA13B1E0089558
:1025F0000C94BA13672F782F8827B85F39F0B93F4A
:10260000CCF3869577956795B395D9F73EF4909579
:102610008095709561957F4F8F4F9F4F0895E894F7
:1026200009C097FB3EF490958095709561957F4F1A
:102630008F4F9F4F9923A9F0F92F96E9BB279395C8
:10264000F695879577956795B795F111F8CFFAF4D8
:10265000BB0F11F460FF1BC06F5F7F4F8F4F9F4F09
:1026600016C0882311F096E911C0772321F09EE867
:10267000872F762F05C0662371F096E8862F70E0CD
:1026800060E02AF09A95660F771F881FDAF7880FA7
:102690009695879597F90895990F0008550FAA0BFD
:1026A000E0E8FEEF16161706E807F907C0F0121665
:1026B0001306E407F50798F0621B730B840B950B68
:1026C00039F40A2661F0232B242B252B21F40895BD
:1026D0000A2609F4A140A6958FEF811D811D08955A
:1026E00097F99F6780E870E060E008959FEF80ECC5
:1026F000089500240A941616170618060906089568
:1027000000240A9412161306140605060895092ECD
:102710000394000C11F4882352F0BB0F40F4BF2B3C
:1027200011F460FF04C06F5F7F4F8F4F9F4F08957C
:1027300057FD9058440F551F59F05F3F71F0479572
:10274000880F97FB991F61F09F3F79F08795089557
:10275000121613061406551FF2CF4695F1DF08C076
:10276000161617061806991FF1CF86957105610593
:1027700008940895E894BB2766277727CB0197F93B
:1027800008950E944C1308F48FEF08950E94D91306
:102790000C9487130E94791338F00E94801320F064
:1027A000952311F00C9470130C94761311240C944F
:1027B000BB130E94981370F3959FC1F3950F50E0DF
:1027C000551F629FF001729FBB27F00DB11D639FE3
:1027D000AA27F00DB11DAA1F649F6627B00DA11D89
:1027E000661F829F2227B00DA11D621F739FB00D2F
:1027F000A11D621F839FA00D611D221F749F33279F
:10280000A00D611D231F849F600D211D822F762F37
:102810006A2F11249F5750409AF0F1F088234AF014
:10282000EE0FFF1FBB1F661F771F881F9150504080
:10283000A9F79E3F510580F00C9470130C94BB13C4
:102840005F3FE4F3983ED4F3869577956795B79507
:10285000F795E7959F5FC1F7FE2B880F911D969521
:10286000879597F90895DB018F939F930E94B91183
:10287000BF91AF91A29F800D911DA39F900DB29F1C
:10288000900D11240895EE0FFF1F0590F491E02D97
:10289000099481E090E0F8940C944E14F894FFCFE2
:1028A000D800340186011E00000000000000000076
:1028B0000000000000000000000000000000000018
:1028C0000000000000000000000000000000000008
:1028D00000000000000000000000000000000000F8
:1028E0004243312E350000000000000000000000CF
:1028F00000000000000000000000000000000000D8
:1029000000000000000000000000000000000000C7
:10291000010101012840010F05010101FF013C9661
:102920000000000000520525055F065E06424331A7
:102930002E350024542C3939392C3335302C302C99
:04294000450A000044
:00000001FF
