:100000000C943F120C9467120C9467120C945C27AA
:100010000C9467120C9467120C9467120C9467127C
:100020000C9467120C9467120C9467120C9467126C
:100030000C9467120C9467120C9467120C9467125C
:100040000C9412270C9467120C9467120C9467128C
:100050000C9467120C9433280C9467120C9467125A
:100060000C9467120C94671207634236B79BD8A7AB
:100070001A39685618AEBAAB558C1D3CB7CC5763CD
:10008000BD6DEDFD753EF6177231BF000000803F7B
:1000900005A84CCDB2D44EB93836A9020C50B9914E
:1000A0008688083CA6AAAA2ABE000000803F080055
:1000B0000000BE922449123EABAAAA2ABECDCCCCE7
:1000C0004C3E00000080BEABAAAAAA3E0000000081
:1000D000BF000000803F0000000000084178D3BB53
:1000E0004387D1133D190E3CC3BD4282AD2B3E6800
:1000F000EC8276BED98FE1A93E4C80EFFFBE01C4F1
:10010000FF7F3F0000000000800400003FF0383017
:1001100033103F90381033902790261030903FF0E6
:1001200000008004800400003FF03DF020103BF010
:100130003B7030302B502AD031B03FF000008004AB
:10014000800400003FF038703030231027902010DA
:100150002010279027903FF00000800480040000CA
:100160003FF03CF03CF020102490249020103CF014
:100170003CF03FF000008004800400003FF037B006
:1001800023103030387038703030231037B03FF0E3
:1001900000008004FCF4F860E044C08CC11CC22C58
:1001A000C44CC88CD10CA204C4048FFC187CBCFCC9
:1001B0008000BFF81FF8B0281FF8B4081FF8B10876
:1001C0001FF8B048BFF8B288BFF880008000BFF8C1
:1001D0001FF8B0081808B9E819B8B8381838B9B80D
:1001E000B9F8B0F8BFF8800015543FF815503FF04B
:1001F0001550387010203104138C22A817FC2AA83F
:100200000000000015543FFC15543FFC15543C04FD
:1002100014043CFC14543CFC005400A800000000F2
:10022000800400003FF03CF034B0249024902790EC
:100230002310303038703FF000008004FF7CFE7CDB
:10024000FCECE8DCC84C984C882408200000000036
:10025000000000008004E01CF3FCE7FCCE0C8E1CC8
:100260009F9C1F3C1F0C0E0C0FFC87F881E4C00CF8
:10027000E01CF87C000458085808580840087FF82B
:1002800060185FE85B685FE85B681CE85FE8000097
:10029000800400003FF03CF03CF03CF020102010C7
:1002A0003CF03CF03CF03FF000008004F87CF7BCF0
:1002B00000007FF80000BFF4AB54AB54AB54AB5418
:1002C000AB54AB54BFF4C00CF03CCE0CBF04B30431
:1002D00073007F007E007C007C007C60BC64BE04F8
:1002E000CF0CF03C81DC559C29045500299055D059
:1002F00003FCFF002E00267002508270E600EE0420
:10030000800C001C3FF43FE03FC4378C2318303092
:1003100038703CF03FF03FF000008004058074B876
:1003200057A876B80580F97C4694AAA8F97C068877
:1003300074A8578C75740698F03CCE4CBC34B81435
:10034000188010804230607860F844C08004B8841F
:10035000CFCCF03CE01CC00C8FC49FE49FE49FE432
:1003600000000300030003000780078003008004EF
:10037000F87CE01CC00CCFCCCFCCCFCCCFCCCFCC3A
:10038000CFCCCFCCC84CCFCCC00CE01CFCFCF87C54
:10039000E01CC00CC00CC00CC00CC00CC00C800415
:1003A0008004FFFCF87CFCFC8004000020001000AE
:1003B00008001000270000000000000000000000FE
:1003C00000008004C3FC18001800C3FCFFFCFF0CF5
:1003D00000600060FF0CFFFCF0FC06000600F0FC73
:1003E0008FC4102020104CC89FE43DF03DF01DE06C
:1003F0003EF03F709FE48CC400003030F87CF33C4A
:10040000F4BCF6BCF4BCF6BCF4BCE49CC84CD02CE8
:10041000D02CC84CE79CF03C882408203830383079
:10042000383038303830383039303BB03FF03FF07A
:1004300000008004F21415F0CADFB8CCF0D699E8B9
:10044000AEA4DFEEE8F21D1E08F21C08F21A1B082B
:10045000F0714601F046464A01F219F051F218F0E7
:100460005A8DF0C0DAEEAEF0C8B8A5F1302924F00C
:10047000B599E1A4BDF21415F0CBEEAEBDF218F0C3
:100480005A8DF21617F21415F0CBEEAEBDF2161718
:10049000F0BCCA9EE0BDF21415F21213F21011F274
:1004A0000C0DF094F20E0FF0A2D8DFCBE1EEACDC35
:1004B000E8F20AF08CF20BF04A8DF209F08DF09719
:1004C000C59BBDF20708F21F20F2040506F097DE77
:1004D000EED5F0CBABEEF0AEA4DFEEE8F0A8E8BDD1
:1004E000E2EEE0F0B499D3EEF200010203F0CCDFCB
:1004F000B0B8BD5361766500466C6970004D6169A6
:100500006E2053637265656E004A5000454E00438D
:100510004E00594553004E4F004F4E004F46460087
:10052000496E666F73004269670050494400446930
:1005300072656374005361766500426F6F73740077
:100540004F666600536C65657000536176650042C6
:100550006F6F737400536C656570004465666175F8
:100560006C740053617665004164640044656C6599
:1005700074650052656E616D650043616C696272FD
:10058000617465004368616E6765005265747572D9
:100590006E0041626F7574004C616E67004C6F6352
:1005A0006B004C4F5720566F6C0042757A7A65721B
:1005B0000053637265656E00436F6E74726F6C00FA
:1005C00054696D65720054656D7000546970000067
:1005D000000000000F1DC20800054442080003840B
:1005E0005FBF000FE44410000115451000054CC921
:1005F0007F8009244F900007C4C11000054D413F82
:1006000000055443810007C44D0200054441140015
:10061000055541080007C8810400000000000000E3
:100620000000000001083FFE001FFF8100000040A5
:1006300002000007FE0FF800040208080004020888
:10064000880007FE08880004020888000402088861
:100650000007FE0888000402094800040202300076
:1006600007FE040C00040218040000000000000053
:100670000000000007FE13FE000402084000040210
:10068000084000040201FC0004023884000402084F
:10069000840007FE0FFF000402080000040209FEA8
:1006A00000040209020004020B020004020D020011
:1006B00007FE09FE00040201020000000000000025
:1006C0000000000001100080001FFF80800001106A
:1006D0003FFF00004004080007FC04080004440435
:1006E0001000044402100004440220001FFF812077
:1006F00000004000C00000A001300001100208000E
:10070000060C0C07001803B00200000000000000F7
:1007100000000000004000800000400080000FFF4B
:100720003FFF000841040800084104080008410494
:10073000100008410210000FFF02200008410120B4
:1007400000004000C00000400130000040020800EE
:1007500000400C07000040300200000000000000D4
:10076000000000001FDF10200002120C20000224F5
:10077000042000047F8020000424B820000FA488F7
:10078000500014BF88500004A488500004A4884876
:100790000004BF88880004A48A880007A48C840011
:1007A0000444890700008186020000000000000068
:1007B000000000000FF00491000440025200047F8A
:1007C000905400045088FF0007D084810004510039
:1007D0008100044901FF0007CA028100044404812A
:1007E00000044A1CFF0007EA0481000C5104810048
:1007F0000061C4850000408082000000000000000D
:100800000000000007FF802000008407FF00008434
:10081000040100008404010000840401000FFFC7EC
:10082000FF0000840400000084040000008405FF31
:100830000000840501000104090100010409010010
:10084000020411FF00040401010000000000000088
:1008500000000000008204FF00004402010007FFC6
:100860009021000010102100001017FD0000101052
:1008700021000FFFD06100001010A10000281121FD
:100880000000281221000044142100008210A10061
:100890000301D045000C00900200000000000000A1
:1008A00000000000084410FE00042810920005FF1C
:1008B00022920000103C920000100892001CFE10D2
:1008C0009200041020FE0004103E920005FF80926A
:1008D00000041000920005100E92000610309200E5
:1008E000041000FE00001000820000000000000064
:1008F0000000000007DF8840000A24104000114279
:1009000010FE00040022820002FF3D020008010ADE
:10091000420009F9103200090920120009F93E02CB
:1009200000090900020009090E020009F93022003D
:100930000805001400080200080000000000000084
:10094000000000000FC3F1E0000FE3F1F8000C70AD
:10095000C19E000C30C186000C30C183000C30C138
:1009600083000C60C183000C60C183000FC0C18391
:10097000000FC0C186000C00C186000C00C19800A9
:100980000C03F1F8000C03F1E0000000000000008F
:100990000000000000200820000FFF09FC000020DC
:1009A00008000000203E880003FE08500002020BF1
:1009B000FE0003FE0C4000020218400003FE2BFE66
:1009C00000020208480003FE0888000202085000E6
:1009D00002022830001FFF91CC000000000000013F
:1009E00004047C0000880444000FFF3F4400002002
:1009F00004440000200C440000200E44001FFF951A
:100A000044000020144400005024440000500444DA
:100A100000008804450001040485000603850300E6
:100A200018010400000000000000000000000000A9
:100A300000000000047E21FC0004421104001F7E1F
:100A4000090400044221FC000542110400067E1145
:100A500004000C0005FC0015FF880000040813FECC
:100A6000000448325200044F12520004481252004F
:100A700014A8125200091F97FF0000000000000098
:100A80000000000002103DFC0002102504000410CC
:100A900025040005FFBDFC000C102520000C3825A6
:100AA0002000143825FE0004543D20000454251075
:100AB0000004922510000511A5090006113D45000E
:100AC0000410258300041001010000000000000054
:100AD000000000001FC8102000124A0C20001AC994
:100AE00004200017480020001FFFB820000208085B
:100AF00050001FC8085000020808500003C80848EA
:100B0000001E1408880001540A880015220C840075
:100B10001443890700008106020000000000000263
:100B2000FE01000002823FFF00048202000004FE7A
:100B30000200000C1004FC00141004080005FF8CD7
:100B400010000410141000043825FF0004340410B1
:100B50000004520410000491841000051004500099
:100B6000041004200000000000000000000000004D
:100B70000000000002030010001FDC3EFE00089091
:100B8000021200051004FF001FDF84120002120C85
:100B9000FE001FD2021000021222FE000A92141060
:100BA000000A5214100012220DFF00022208100049
:100BB0000A42141000040223FF000000000000009D
:100BC000000000000F78BC20000948A45000094A2A
:100BD000A85000094AA88800094AB104001FFEAACB
:100BE000FB00094AA42000094AA42000094AA7FEE4
:100BF00000094AB420000948A924000B48A2220099
:100C0000088AA4A200111920400000000000000082
:100C1000000000000020008000005001FC0000885F
:100C2000010400010403080006FB0490000800C052
:100C3000600007DF018000045106000004511BFE24
:100C400000045102020007D9020200045602020009
:100C5000001003FE0000100202000000000000006F
:100C6000000000000208209000027F9890001F8082
:100C700009FF00022201100006218B100007628D7F
:100C8000FE000AA20910000A14111000121431FE0D
:100C900000020811100002141110000222111000AD
:100CA000024391FF000281110000000000000000DB
:100CB00000000000100700000008F83FFE0004805C
:100CC000200200008020020000BE23E2001C8222DD
:100CD000220004A42222000494222200048822225A
:100CE00000049423E20005222002000542200200B5
:100CF0000A003FFE0011FFA00200000000000000FB
:100D00000000000000820FFE00004400400007FFCA
:100D10008040000010004000001000400000101F44
:100D2000FF800FFFC040000010004000002800407E
:100D30000000280040000044004000008200400005
:100D40000301C140000C0080800000000000000989
:100D5000FF00400004203FFF00042000000000FED0
:100D60000000001C420FFC00044200000007FF804E
:100D7000000004000FFC0004FF00000004810000DC
:100D80000005810FFC00068108040004FF08040030
:100D900000810FFC000000000000000000000000C7
:100DA0000000000000401F7E001FFF840200108032
:100DB0008442000A4A0442000A3108420012C50F68
:100DC00042000304197F001DF829010000400901B9
:100DD00000084209FD00084209010008420F010015
:100DE0000FFE0905000002000200000000000000E4
:100DF0000000000001000FFE00010008200003FFBA
:100E00000820000201082000042208200008200B0E
:100E1000FE00102008200000500828000050082480
:100E20000000880822000088102000010410200023
:100E30000203A7FF000C01000000000000000000FA
:100E40000000000000400080001FFF9FFC000040E9
:100E50000410000FFF02200000003FFF000FFE0003
:100E6000000008420FF80008420808000FFE0808BA
:100E70000008020FF8000800080800080008080031
:100E800008000FF800100008080000000000000033
:100E90000000000007FE0FF800040200000004023A
:100EA00000000007FE00000004023FFE00040200F4
:100EB000800007FE008000009004900008910C88DC
:100EC00000069310860002942082000090008000AB
:100ED00000900280001FFF81000000000000000061
:100EE00000000000041012020005FF9FD200050060
:100EF0009212001E28A2120004443FF20004820253
:100F0000120006000212000CFE1FD2001410125232
:100F10000004101242000410134200041012820058
:100F200015FF820A00080002040000000000000013
:100F300000000000002000000000203E04001FFF11
:100F4000A204001000A2FF0000012204000FFE22F4
:100F5000040000403E4400004022240004402224BB
:100F600000047C22040004402204000A403E0400E5
:100F7000094022240010FF80140000000008000037
:100F80000000000010FE08200008820BFF00048211
:100F90000A010010FE3C51000882088800088209FE
:100FA000040002FE0C0000040019FC0009FF2820C8
:100FB0000019290820000929082000092908200013
:100FC00009292BFF000BFF9000000000000000002B
:100FD000000000001F7F90F80001080888000A1038
:100FE000088800047F0107001FC13A000005490975
:100FF000FC000449088400044908880004490848A2
:1010000000044908500004490A200004160C580046
:10101000142189870008C086020000000000001F1C
:10102000E03FF07038601860186018FFFCFCFCFCB2
:10103000FCFCFCF87CF87CFCFC7FF81E1033382D9F
:101040007C25382D3825382D386D80DEC0BF40BF57
:1010500040DEC061803F007FF0FFE0C008C01CC0E0
:1010600038C870DCE4CFCCC78CC30CC00CC00CFFFC
:10107000FC7FF8000006000C0018F838F0303070E3
:1010800060707878F878003C023F0C1FF80FF0038E
:10109000C000007FF8FFFCC00CC30CCB4CDB6CDB4A
:1010A0006CD86CDCECCFCCC78CC00CFFFC7FF80399
:1010B0000007800FC00CC01CE01CE03CF03CF07F3F
:1010C000F87FF8FCFCFCFCFFFC7FF811408200215B
:1010D000208FE023FC82004A23E200FE209FF013D1
:1010E000F880802220C0804221BFF0FBFA88800275
:1010F000208480022084801A208080E3FE82800287
:101100000101000F421FC078411040084090400884
:10111000421FC008411040FFFD104008405FC0085A
:1011200040800008413FE008432520104125201061
:101130004125202041252040417FF07FF848800252
:101140000049000201FFF00201001002027F20228C
:1011500000410023F07F00220008002200FF8022CF
:101160000088802200888022008A8022008900FF77
:10117000FC080023F21FC022111040FBF090402217
:10118000121FC02A11104033F1104060005FC0AF41
:10119000FC800020413FE0224325202279252022A7
:1011A000412520A541252048FD7FF01083DFC01098
:1011B000825040208250402FFFDFC0608252006189
:1011C000C25200A1C25FE022A3D20022A251002499
:1011D000925100288E5090308BD45020825830206D
:1011E000801010104047C017FC44402003F44023F7
:1011F000F844406208C440A3F8E440200154402F62
:10120000FD44402806444023F844402040445020F8
:10121000404850214050302080400020921FC03D67
:10122000F990402090904040901FC07BFF0000A0AC
:10123000013FE021F90200FD09020021097FF021B0
:10124000F90500210945002909888031F91070212C
:1012500008202025004300202070F8754077557540
:101260007740403E4A5E2B5E4A6B627F352F357F6A
:101270007C5B5E247B0E3A047E017E4A5E69063A00
:101280002F3F6B7E46403F41497F494102626B6B75
:101290006B62026A6B147D577D10413F55553D5777
:1012A00051213F2D7F2A122E0A775A505A770A2051
:1012B00024137D5553707A2A7B021A437A4A525E70
:1012C0002B5E424A415F353F555F417D14577D0E8D
:1012D000407F7F1B54167D1654493A407E57567600
:1012E000423F427E7E427E047E51377D3750127AE5
:1012F0001752761E127F557F145D7F557F557F7F75
:10130000553D577F55377817457F7F2B7B287B2BA3
:101310007F1E12127F12121E7F416B7F6B517F5214
:101320005A573A575A52007F494949497F22122A4F
:101330007F2A1222166A5E735662160937315F15CC
:101340005F7500000000002F000300033F123F16EE
:101350003F1A120824323D2A020100003E41413E5C
:10136000000A070A083E084020000808080020007C
:101370001008041C2A1C243E20322A24222A141875
:10138000143E2E2A121C2A12023A06142A14242A67
:101390001C002400402400081422141414221408F1
:1013A00002290612291E3E093E3F251A1E21213F11
:1013B000211E3F25213F05011E21393F083F213FC6
:1013C0002110201F3F043B3F20203F063F3F013EAE
:1013D0001E211E3F09061E215E3F093622251901E6
:1013E0003F013F203F3F100F3F183F330C33033C7A
:1013F00003312D23007F41153E15417F000201027C
:1014000040404000010218243C3F241818242418AE
:10141000243F182C2C043F0548543C3F0438003D21
:1014200000403D003F0834013F003C1C383C04387C
:101430001824187C241818247C3C0804283C140424
:101440003E243C203C3C100C3C303C2418244C50A6
:101450003C24342C083641007F004136080101014C
:101460001028101F010120203E1020000008002538
:10147000150F241C0C103804180C3828382828188C
:101480003C083C18283820242C3C2C2C1C04080830
:10149000211D07083C0306231E223E22120A3F326A
:1014A0000F3E0A3F0A24130E271E0222223E271255
:1014B0000F2525102119273F222E21160F241B0E40
:1014C000251F0526261E251D053F0408241F042070
:1014D0002222251927123B1620100F3C013E1F2403
:1014E0002421110F0C031C1A3F1A091927222A2A3A
:1014F000382730320C13053F25023F0E213F2025AF
:10150000253F25251D07201F3C3F203F20103E2260
:101510003E23110F212118010001020502000000E5
:1015200000000000002040000000000000205020CB
:10153000000000000050300000000000006060006B
:101540000000000000000018180000000000003635
:1015500036000000000000563600000000000201C6
:1015600051090906000000005F00000000000000B3
:10157000007F41410041417F000000000000000069
:101580003F010101004040407E0000000000003F9C
:10159000213D05070070505E427E00000000000003
:1015A000007F63410041637F0000000000080808DD
:1015B0007F08080800080808080808080044444490
:1015C0005F444444004122140814224100080808E2
:1015D0002A080808001414141414141400143414E1
:1015E0001C141614000808141414222200222214B9
:1015F00014140808000205023C42422400002B2C6F
:10160000782C2B000000242A7A2F2A1200001C625A
:10161000322E23140020545E254142200042251220
:10162000082452210020623E633E230200205649D6
:1016300055225840000022147F142200001C225919
:10164000554D120C0000004A555529000004643C19
:10165000173C64040004643C1F3C6404001C2241E9
:101660004141221C001C3E7F7F7F3E1C001C225DEE
:10167000555D221C000814224122140800081C3E5B
:101680007F3E1C08007F41414141417F007F7F7FB9
:101690007F7F7F7F0040704C434C70400040707CE7
:1016A0007F7C704000010719611907010001071FC5
:1016B0007F1F07010049221449142249000505052E
:1016C0007D05050500080808082A1C0800081C2AD2
:1016D00008080808000004027F020400000010202F
:1016E0007F20100000003E414141413E0000004289
:1016F0007F400000000062515149494600002241EC
:10170000494949360000302824227F2000002F4517
:101710004545453900003E4949494932000001012B
:101720006119050300003649494949360000264938
:101730004949493E000020547E3414600020527F05
:101740002A1A4A3000003C4020041800001E2040A5
:10175000200204180000104A4A2A10000000084520
:10176000454525180000482A3A4A40000000442513
:10177000153D45400000247E145024000022527F75
:101780000A484A340044344F443804180044344F63
:101790004439041900002A5A4B4E5A0800002A5AAC
:1017A0004B4E5B080000081414224100000008148E
:1017B00014224504003F0004443F0404003F000499
:1017C000443F0405000020524242424000002052A3
:1017D000424342410000245444475C040000245426
:1017E00044475C050000003F404040200000003FAF
:1017F000404140210002020A563F02020002020A52
:10180000563F02030004043F44545F440004043F75
:1018100044545F45000008093D4B49080000080991
:101820003D4B490A00423A072254444400423A07D9
:1018300022554445000002124E4B4A32000002126B
:101840004E4B4A3300001010484830000004040298
:101850002222221C000404022223221D0000020274
:101860001A254341000002021A2543450000205773
:1018700048484444000020574849444500120A277C
:1018800052503A24007F00205242424000304E38ED
:10189000540F64780024147F0422523C0018241250
:1018A0004E422418007F002454543F44007F0024FB
:1018B00054543F45007F002454563D4600023A47A9
:1018C00040413E0400023A4740413E0500023A478B
:1018D00040433D06004030404D32106000403040F3
:1018E0004D321161004030404D3215620008040253
:1018F0000408101000080402040910110008040272
:10190000040A1512007F006A6A7E2A4A007F006A74
:101910006A7F2A4B007F006A6A7E2D4A00006A6A4D
:101920006A7F2A4A0030291D4B483C1000122A7F4A
:101930004240422400304E38540F443800000A3EE2
:101940004B4A4A300000080E384614080004071CB1
:1019500062030A0400001C483E241800001E0452C2
:101960003F12120C00002050503E48000000205052
:10197000503F244400001C51494A483000000F42A7
:1019800041211E00000010696D4B49300024147F76
:1019900004023E40000010494D4B49300000281819
:1019A0007E0844380024147F0442423C003049251C
:1019B0001F245438004028255735284000100A2E8F
:1019C0005B724A480040300C334040200000044421
:1019D0003C140C00000001413D09050300002020DB
:1019E0001078040000001010087C02010000184864
:1019F0004C281800000006424322120E0000404806
:101A000078484000002022223E2222200000282880
:101A1000587C0800002222124A7F02020000422263
:101A20001F02427E000042221F02427F000012126B
:101A30001F721210000012121F72131000000844CF
:101A40004322120E000008444322120F00080742EE
:101A5000221E020200080742221F02030000424227
:101A60004242427E000042424243427F0002024F15
:101A700042221F020002024F42231E030000454A79
:101A80004020100C0000454A4021100D0040422229
:101A9000221A264000404222221B26410004043F15
:101AA0004444544C0004043F4445544D0000014656
:101AB0004020100F000001464020110F0000084494
:101AC0004B2A120E000008444B2A120F00080A4A43
:101AD0003E09090800080A4A3E09080900001840A2
:101AE0005820180000020C424C20100E00020C423C
:101AF0004C21100D000405453D0505040004054575
:101B00003D0504050000007F080810000000007F6C
:101B100008091001000444241F04040400202222A8
:101B200022222220004041251519270000202212E0
:101B30007B06122000404020100807000040300EB5
:101B400000020C700040300E00020D710040300E9B
:101B500000020D7200003F484848444400003F48DE
:101B60004849444500003F48484A45460000024273
:101B70004222120E000002424223120F00000242D3
:101B80004222150E00080402040810200008040276
:101B90000409102100080402040A15220024144438
:101BA0007F041424002414447F05142500241444C5
:101BB0007F0615220002021222520A060000212589
:101BC000294A42000040704C4350204000404424C9
:101BD00014083700000008093F4949480000101C5C
:101BE000680818000004040F74020A060000404848
:101BF0004878400000202222223E2020000000449D
:101C000054547C000000424A4A4A4A7E000004457F
:101C10004525150C00000F4040201F000040201EED
:101C2000007F20100000007F4020100800007E424E
:101C30004242427E00000C4444241C000000064244
:101C40004222120E0010121E12127F1200202222B7
:101C50003A262220000001454525150F000041428B
:101C60004020100C000006424322120F00004828BA
:101C70001C4878000000100C4838080000080404D4
:101C800008101008000800000800000800040808F8
:101C900008080808000808080808080808060505D4
:101CA0000706040903030504090A080303030603DE
:101CB00005030305050306040405050405040403E0
:101CC00004090503CB05C605C005B805B105AA057D
:101CD000A2059D05980592058B0584057A05730577
:101CE0006C05680563055B0555054F054A05440508
:101CF00040053A0535052E052A05260520051C0553
:101D00001905160512050F050C050905FD04F80453
:101D1000F3043E0053656C656374205469700000E1
:101D2000000000003E5B4F5B3E3E6B4F6B3E1C3E37
:101D30007C3E1C183C7E3C181C577D571C1C5E7F4B
:101D40005E1C00183C1800FFE7C3E7FF00182418CA
:101D500000FFE7DBE7FF30483A060E2629792926FF
:101D6000407F050507407F05253F5A3CE73C5A7FE9
:101D70003E1C1C08081C1C3E7F14227F22145F5F3F
:101D8000005F5F06097F017F006689956A60606079
:101D9000606094A2FFA29408047E040810207E20B4
:101DA0001008082A1C08081C2A08081E1010101009
:101DB0000C1E0C1E0C30383E3830060E3E0E06004F
:101DC0000000000000005F00000007000700147F13
:101DD000147F14242A7F2A1223130864623649567A
:101DE00020500008070300001C2241000041221C73
:101DF000002A1C7F1C2A08083E080800807030005A
:101E00000808080808000060600020100804023E6E
:101E10005149453E00427F400072494949462141AF
:101E2000494D331814127F1027454545393C4A491E
:101E3000493141211109073649494936464949295D
:101E40001E0000140000004034000000081422416D
:101E50001414141414004122140802015909063EF6
:101E6000415D594E7C1211127C7F494949363E41F1
:101E70004141227F4141413E7F494949417F090912
:101E800009013E414151737F0808087F00417F41AD
:101E9000002040413F017F081422417F40404040E4
:101EA0007F021C027F7F0408107F3E4141413E7F3C
:101EB000090909063E4151215E7F09192946264933
:101EC00049493203017F01033F4040403F1F20400A
:101ED000201F3F4038403F63140814630304780414
:101EE000036159494D43007F4141410204081020DC
:101EF000004141417F040201020440404040400053
:101F00000307080020545478407F2844443838445C
:101F1000444428384444287F385454541800087ED8
:101F2000090218A4A49C787F0804047800447D402A
:101F3000002040403D007F1028440000417F4000C9
:101F40007C047804787C080404783844444438FCE1
:101F50001824241818242418FC7C08040408485465
:101F600054542404043F44243C4040207C1C204022
:101F7000201C3C4030403C44281028444C90909019
:101F80007C4464544C440008364100000077000053
:101F9000004136080002010204023C2623263C1EB2
:101FA000A1A161123A4040207A3854545559215524
:101FB0005579412154547841215554784020545545
:101FC00079400C1E52721239555555593954545492
:101FD0005939555454580000457C410002457D4212
:101FE0000001457C40F0292429F0F0282528F07CC8
:101FF000545545002054547C547C0A097F49324989
:102000004949323248484832324A4848303A4141D8
:10201000217A3A42402078009DA0A07D3944444472
:10202000393D4040403D3C24FF2424487E494366DE
:102030002B2FFC2F2BFF0929F620C0887E090320B7
:10204000545479410000447D413048484A32384078
:1020500040227A007A0A0A727D0D19317D262929DB
:102060002F28262929292630484D402038080808DD
:102070000808080808382F10C8ACBA2F102834FAFE
:1020800000007B000008142A142222142A14089548
:1020900000220095AA005500AAAA55AA55AA000038
:1020A00000FF00101010FF00141414FF001010FFA8
:1020B00000FF1010F010F0141414FC001414F700BA
:1020C000FF0000FF00FF1414F404FC141417101F89
:1020D00010101F101F1414141F00101010F0000017
:1020E00000001F101010101F10101010F010000032
:1020F00000FF101010101010101010FF1000000042
:10210000FF140000FF00FF00001F10170000FC0478
:10211000F414141710171414F404F40000FF00F75B
:1021200014141414141414F700F7141414171410BE
:10213000101F101F141414F4141010F010F00000ED
:102140001F101F0000001F14000000FC140000F00E
:1021500010F01010FF10FF141414FF141010101FB3
:1021600000000000F010FFFFFFFFFFF0F0F0F0F0C4
:10217000FFFFFF0000000000FFFF0F0F0F0F0F38E1
:10218000444438447C2A2A3E147E02020606027E1B
:10219000027E0263554941633844443C04407E203A
:1021A0001E2006027E020299A5E7A5991C2A492A4B
:1021B0001C4C7201724C304A4D4D303048784830DA
:1021C000BC625A463D3E494949007E0101017E2AD2
:1021D0002A2A2A2A44445F444440514A4440404405
:1021E0004A51400000FF0103E080FF000008086B37
:1021F0006B083612362436060F090F060000181831
:102200000000001010003040FF0101001F01011EFE
:1022100000191D1712003C3C3C3C0000000000AEC1
:10222000D5F0A83FD300408D14A1C8DA1281CFD9D0
:10223000F1DB40A4A6AF200021007F220007506CF4
:10224000656173652077616974004144433A2000F9
:1022500074656D703A2000536574206D6561737507
:1022600072656400537465703A2000FFFFFFFFFF42
:10227000FF8003867080038003867080039FF3E1F4
:10228000309FF39FF3E1309FF3983301CC9833985C
:102290003301CC9833983387C098339833E1C09892
:1022A000339833E1C098339FF398C09FF39FF3981E
:1022B000C09FF3800366CC8003800366CC8003FF5D
:1022C000FF010CFFFFFFFF01001FFF810061301FB6
:1022D0003F873CE6FC8733873CE6FC87F3F8039EA8
:1022E0000F1F03F8039E0F1F03E13CFE0C07CFE115
:1022F0003CFE0C07CF99033E3086C3E6CF380F9ED5
:10230000F3E6CF380F9EF39E0327CC81039E03276D
:10231000CC8103E0FFE10CE6CFE0FFE10CE6CF98D3
:1023200003060000FF9803060000FFFFFF1EF0F801
:10233000038003663099C38003663099C39FF3011D
:102340000CF8FF9FF3010CF8FF9833393C01CF984C
:1023500033393C01CF9833FF0C793F98333ECCE0C2
:10236000F398333ECCE0F39FF33E0098CF9FF33ECB
:102370000098CF80033E30E7C380033E30E7C3FFC1
:10238000FFFFFFFFFFFFFFFFFFFFFF303030007652
:10239000312E372B005600560043000FE01FC01FA0
:1023A000C03F803FF87FF07FE007C007800F000E3E
:1023B000001C001800100014A03FF07FF8E01C6E15
:1023C00018EC1C68186018E01C6058E01C7FF83F8F
:1023D000F014A04552524F5200484F4C440048451B
:1023E000415400574F524B5900424F4F53540053E2
:1023F0004C454550004F46460000003BEC7BEE63E9
:10240000E663E663E663E663E663E66366622660C8
:102410000660067FFE3FFC0000000000002400274D
:10242000002A0000000000250028002B000000000A
:102430000023002600290004040404040404040208
:102440000202020202030303030303010204081051
:10245000204080010204081020010204081020001E
:102460000000080002010000030407000000000053
:1024700000000001020408102040800044341124B0
:102480001FBECFEFD8E0DEBFCDBF12E0A0E0B1E0CD
:10249000E2EBF4E702C005900D92A03BB107D9F73B
:1024A00027E0A0EBB2E001C01D92AB36B207E1F726
:1024B00012E1CFE3D2E104C02197FE010E944C3A21
:1024C000CE33D107C9F70E9434280C94573A0C94A4
:1024D00000004F925F926F927F928F929F92AF9285
:1024E000BF92CF92DF92EF92FF920F931F93CF9301
:1024F000DF9300D000D0CDB7DEB74B015C012901DE
:102500003A016701780120E030E0A9010E945E36BF
:1025100087FDA6C020E030E0A901C301B2010E94FE
:102520005E3687FD9DC020E030E0A901C801B601FC
:102530000E945E3687FD94C081E02091490730916A
:102540004A072130310509F080E080936A078092C4
:102550002F0790923007A0923107B0923207409235
:102560003307509234076092350770923607C09255
:102570003707D0923807E0923907F0923A07609116
:102580005D0770915E0780915F07909160070E94E0
:102590000B3720E030E04AE754E40E946336698359
:1025A0007A838B839C8380923B0790923C07A09216
:1025B0003D07B0923E079B01AC01C301B2010E94EE
:1025C000C2372B013C0140923F0750924007609276
:1025D00041077092420729813A814B815C81C70192
:1025E000B6010E9463366B017C01C0924307D09212
:1025F0004407E0924507F092460780914707909183
:102600004807019769F5A501940160E070E0CB01EE
:102610000E94F13560933B0770933C0780933D0720
:1026200090933E07A301920160E070E0CB010E940D
:10263000F13560933F077093400780934107909373
:102640004207A701960160E070E0CB010E94F135DE
:102650006093430770934407809345079093460720
:102660000F900F900F900F90DF91CF911F910F91CE
:10267000FF90EF90DF90CF90BF90AF909F908F90A2
:102680007F906F905F904F90089580389105B0F4DF
:102690006034710598F4E3E7F4E290E1969FD0018D
:1026A000A0781124A80F6770E60FF11D9491A55E24
:1026B000BC4F442321F08C91982B9C9308959095C6
:1026C0008C919823FACFDF92EF92FF920F931F9392
:1026D000CF93DF937C01D22E8B01040F111DEB01F0
:1026E00077FF02C0D0E0C0E0C8010134110514F04A
:1026F00080E490E0C817D9073CF44D2DBE01C70116
:102700000E9445132196F0CFDF91CF911F910F9139
:10271000FF90EF90DF900895CF92DF92EF92FF92BB
:102720000F931F93CF93DF936B01122FEC017C016A
:10273000E40EF11CCE15DF0544F4202F412FB60125
:10274000CE010E9463132196F5CFDF91CF911F91A7
:102750000F91FF90EF90DF90CF9008952F923F92CE
:102760004F925F926F927F928F929F92AF92BF92A1
:10277000CF92DF92EF92FF920F931F93CF93DF934D
:1027800000D01F92CDB7DEB7C22ED12C9601280FF4
:10279000391F37FD4FC0803891050CF04BC0E982DE
:1027A0004A017B013C01402E512C160127E0220EEC
:1027B000311C93E0359427949A95E1F78B01B12C65
:1027C000A12C1B821A82EA81FB8183E0F595E795B3
:1027D0008A95E1F7EA0DFB1DE80DF91DE4918A8168
:1027E0009B818770992720E830E002C035952795B6
:1027F0008A95E2F7C901F0E0E223F923EF2B41F0DB
:102800004981B8018A819B81860D971D0E944513DD
:102810008A819B8101969B838A838C159D059CF2FE
:10282000A20CB31C0F5F1F4FC8018E199F0984159E
:1028300095053CF20F900F900F90DF91CF911F9173
:102840000F91FF90EF90DF90CF90BF90AF909F904F
:102850008F907F906F905F904F903F902F90089552
:102860000F931F93CF93DF93EC018B0140E0019610
:102870000E94451340E0B801CE0101970E94451324
:10288000B8016F5F7F4F40E0CE010E944513B80151
:102890006150710940E0CE010E94451340E0B8014B
:1028A000CE01DF91CF911F910F910C94451380E0E1
:1028B000EBE1F3E081118FEF002481938193819309
:1028C00081930394D1F7EBE1F7E01786168615861E
:1028D000148608956F927F928F929F92AF92BF92CB
:1028E000CF92DF92EF92FF920F931F93CF93DF93DC
:1028F000803891050CF057C0603471050CF053C05E
:102900007B0137E0E322FF2433E0759567953A9524
:10291000E1F7DB01B695BA2FAA27B795A7955D0118
:10292000C0E8AC0EB11CA80EB91EA80FB91FA55E59
:10293000BC4F00E810E0081B190B90E080E0E8E0D5
:10294000F0E04F018E189F0830E0FA01E80FF91F00
:10295000C4917D906D01D1E0CD1AD1080E2C01C03B
:10296000CC0F0A94EAF77C2AE6017882E114F1049C
:1029700099F06730710581F0E491EC01CA0DDB1D1F
:10298000C55EDC4FF0E0082C02C0F595E7950A948F
:10299000E2F7F881EF2BE8830196821793071CF486
:1029A0000817190791F6DF91CF911F910F91FF90B2
:1029B000EF90DF90CF90BF90AF909F908F907F90DF
:1029C0006F900895833081F028F4813099F082303F
:1029D000A9F008958730A9F08830C9F08430B1F4A7
:1029E000809180008F7D03C0809180008F778093DD
:1029F0008000089584B58F7784BD089584B58F7D58
:102A0000FBCF8091B0008F778093B00008958091C4
:102A1000B0008F7DF9CFCF93DF93282F30E0F901FD
:102A2000E15AFB4D8491F901E55BFB4DD491F9012D
:102A3000E95CFB4DC491CC23A1F081110E94E2140A
:102A4000EC2FF0E0EE0FFF1FE35DFB4DA591B4917D
:102A5000EC91ED2381E090E009F480E0DF91CF91EB
:102A6000089580E090E0FACF1F93CF93DF93282F53
:102A700030E0F901E15AFB4D8491F901E55BFB4D32
:102A8000D491F901E95CFB4DC491CC23A9F0162F38
:102A900081110E94E214EC2FF0E0EE0FFF1FED5DBC
:102AA000FB4DA591B4918FB7F894EC91111108C02A
:102AB000D095DE23DC938FBFDF91CF911F910895D6
:102AC000DE2BF8CFCF93DF9390E0FC01E55BFB4D6D
:102AD0002491895C9B4DFC0184918823C9F090E08E
:102AE000880F991FFC01E75EFB4DA591B491FC0195
:102AF000ED5DFB4DC591D49161110DC09FB7F89468
:102B00008C91209582238C938881282328839FBFD2
:102B1000DF91CF910895623051F49FB7F8943C91C2
:102B2000822F809583238C93E8812E2BEFCF8FB754
:102B3000F894EC912E2B2C938FBFEACF1F93CF9359
:102B4000DF93182FEB0161E00E946215209739F4A2
:102B500060E0812FDF91CF911F910C943415CF3F0E
:102B6000D10511F461E0F5CFE12FF0E0E15AFB4D22
:102B7000E491E33031F140F4E130B1F0E230E1F0E2
:102B8000C038D1057CF7E4CFE73029F1E83059F1BE
:102B9000E430B1F780918000806280938000D09310
:102BA0008B00C0938A0004C084B5806884BDC7BD13
:102BB000DF91CF911F91089584B5806284BDC8BD17
:102BC000F7CF80918000806880938000D093890047
:102BD000C0938800EDCF8091B00080688093B000F2
:102BE000C093B300E5CF8091B00080628093B000C5
:102BF000C093B400DDCF3FB7F89480910F0390915C
:102C00001003A0911103B091120326B5A89B05C033
:102C10002F3F19F00196A11DB11D3FBFBA2FA92F5B
:102C2000982F8827BC01CD01620F711D811D911D58
:102C300042E0660F771F881F991F4A95D1F70895C4
:102C40008F929F92AF92BF92CF92DF92EF92FF92BC
:102C50004B015C010E94FB156B017C010E94FB157E
:102C60006C197D098E099F09683E734081059105A5
:102C7000A8F321E0821A9108A108B10888EEC80ED5
:102C800083E0D81EE11CF11C81149104A104B1045D
:102C900029F7FF90EF90DF90CF90BF90AF909F907B
:102CA0008F9008952FB7F89460910B0370910C03E7
:102CB00080910D0390910E032FBF0895AF92BF92A4
:102CC000CF92DF92EF92FF920F931F93CF93DF93F8
:102CD0006C017B018B01040F151FEB015E01AE1827
:102CE000BF08C017D10759F06991D601ED91FC9149
:102CF0000190F081E02DC6010995892B79F7C50176
:102D0000DF91CF911F910F91FF90EF90DF90CF90C7
:102D1000BF90AF90089584E98093BC008091BC007F
:102D200084FDFCCF08958093BB0084E88093BC00B1
:102D30008091BC0087FFFCCF089584EA8093BC009B
:102D40008091BC0087FFFCCF88E70C9493160E940B
:102D50009D1680E48093BB0084E88093BC00EBE187
:102D6000F3E09091BC0097FFFCCF91919093BB0052
:102D70008093BC0097E0EB31F90799F78091BC0094
:102D800087FFFCCF0C948B16CF93C82F0E949D1603
:102D900080E00E9493168C2F0E949316CF910C9482
:102DA0008B16480F592F511D4138510514F040E83A
:102DB00050E0481BFB0177FD379633E0F595E7952A
:102DC0003A95E1F7F695FE2FEE27F795E795E80F90
:102DD000F91FE55EFC4F6770772781E090E001C046
:102DE000880F6A95EAF7382F213041F4415078F086
:102DF0008191DF011197832B8C93F8CF80954150FF
:102E000030F09191DF01119798239C93F8CF0895AA
:102E1000CF92DF92EF92FF920F93CF93DF936C01EB
:102E20007B01C42FD22F202F0E94D116B7016D0F26
:102E3000711D61507109603471052CF4202F4C2FE5
:102E4000C6010E94D116202F4D2FB701C6010E9446
:102E50006313C6018C0F911D202F4D2FB7010197D1
:102E6000DF91CF910F91FF90EF90DF90CF900C9476
:102E700063132F923F924F925F926F927F928F9245
:102E80009F92AF92BF92CF92DF92EF92FF920F93F9
:102E90001F93CF93DF93CDB7DEB72A970FB6F89481
:102EA000DEBF0FBECDBF9A8389836A3061F5DC0136
:102EB00052968C91B8E08B9F90011124E981FA81A0
:102EC00086859785820F931F978786871586148638
:102ED00081E090E02A960FB6F894DEBF0FBECDBF1A
:102EE000DF91CF911F910F91FF90EF90DF90CF90E6
:102EF000BF90AF909F908F907F906F905F904F901A
:102F00003F902F9008956D3019F329813A813A87C7
:102F10002987D9011C96AD90BC90B0E8AB16B104DE
:102F20000CF07BC0F901C684D784F0E4CF16D1043D
:102F30000CF073C0D90152966C90529745E0950100
:102F4000649E200D311D1124121613060CF065C06D
:102F5000262C312C910153E0220F331F5A95E1F7B3
:102F60002C0D3D1D121613060CF057C05196BC9146
:102F7000BB83E985FA85F089FC83649FB001112445
:102F80009B01215E324E3A832983712CE981FA81BB
:102F90008491F5E07F1201C080E0460138E0532EB5
:102FA000282F30E03E832D834C8080FF4B804110E2
:102FB00004C03B818C813817E1F010E000E0061579
:102FC000C0F4D501A00FB11FB887AF83F12CE12C5D
:102FD000E61460F4B701680D791D442D8F81988542
:102FE0000E944513BFEFEB1AFB0AF2CF0F5F1F4F92
:102FF000E6CF8D819E81959587955A94820C931C7E
:103000005110CECF7394E981FA813196FA83E98326
:10301000A20CB31CF6E07F12B9CFA985BA855296EF
:103020002C915297422F50E01C968D919C91B6E0C6
:103030002B9F800D911D1124E985FA859587848742
:103040002389222309F444CF6AEF64039001659F2A
:10305000300D112420583F4F281739070CF038CF76
:10306000DF010190F081E02D0190F081E02D6AE018
:10307000CD0109952DCF0F931F93CF93DF938C0133
:10308000D0E0C0E0F801EC0FFD1F6491662341F031
:103090008BE197E00E943917892B11F02196F2CF2E
:1030A000CE01DF91CF911F910F910895682F8BE191
:1030B00097E00C943917089590E080E0089580918E
:1030C0007A00806980937A008EE480937C0061E0CE
:1030D00070E080E090E00E94201683B7817F8260DC
:1030E00083BF80E130E020E093B7916093BF889583
:1030F00093B79E7F93BF90917A0096FDFCCF40914D
:10310000780050917900240F351F815069F7809124
:103110007A008F7780937A0084E0369527958A9598
:10312000E1F750E040E064EB7BE281E190E00E9457
:103130008E35C901089580917A00806980937A0064
:1031400088EC80937C006AE070E080E090E00E9470
:10315000201683B7817F826083BF80E270E060E0E9
:1031600093B7916093BF889593B79E7F93BF9091DB
:103170007A0096FDFCCF2091780030917900620FA3
:10318000731F815069F780917A008F7780937A005E
:10319000769567957695679562527A4090E080E0E3
:1031A0000E940B3726EF38E24CE151E40E9463366F
:1031B000089590917A00906990937A008E5080647F
:1031C00080937C0083B7817F826083BF20E290E0A0
:1031D00080E033B7316033BF889533B73E7F33BF6C
:1031E00030917A0036FDFCCF409178005091790003
:1031F000840F951F215069F720917A002F77209333
:103200007A0025E0969587952A95E1F708958FE055
:103210000E94D918A091CE02B091CF029C010E94C9
:10322000E2350E940D3728E539E743E353E40E9475
:1032300063360E94DC36CB0108958091D702882343
:1032400069F086E00E940B15892B41F06AE070E07E
:1032500080E090E00E9420161092D70208956F92AD
:103260007F928F929F92AF92BF92CF92DF92EF9216
:10327000FF920F93CF93DF937C01C62F01E020E3F1
:1032800040E370E060E00E948C13570123E0A20E3F
:10329000B11C00E02AE24AE263E070E0C5010E944E
:1032A0008C1370E060E0C7010E94301467013FE2B8
:1032B000C30ED11C70E060E0C6010E9430146FE2C2
:1032C00070E0C7010E9430146FE270E0C6010E94F6
:1032D0003014EC2FF0E0EE0FFF1FE157FE4F80801F
:1032E000918053E0E52EF12CD12CC12C60E8662EA4
:1032F000712CD0E0C0E0FE0133E0F595E7953A95FA
:10330000E1F7EC0DFD1DE80DF91DE491CE0187708C
:103310009927930102C0359527958A95E2F7C9014F
:10332000F0E0E223F923EF2B69F0CE01880F991F1B
:103330008C0F9D1F01E023E043E0B7018A0D9B1D28
:103340000E948C132196CE30D105A9F632E0C30E2F
:10335000D11C83E0E80EF11C2DE2E216F10449F6DF
:10336000DF91CF910F91FF90EF90DF90CF90BF90C2
:10337000AF909F908F907F906F9008950F931F93C1
:10338000CF9380914D01882399F0CFEF0FEE11E09C
:1033900061E085E00E943415C8010197F1F760E013
:1033A00085E00E943415C8010197F1F7C15081F7FB
:1033B000CF911F910F9108952F923F924F925F925C
:1033C0006F927F928F929F92AF92BF92CF92DF9235
:1033D000EF92FF920F931F93CF93DF9310E000E0E3
:1033E000D0E0C0E03EE3E32EF12C40ECC42ED12C23
:1033F000AA24A394B12C60E2662E712C70E4272ECF
:10340000312C4C2E86E00E940B1521E0892B09F00F
:1034100020E02093D702F0921A03E0921903D09291
:103420001803C0921703B0921603A092150382E806
:1034300090E0909314038093130380911303909171
:10344000140395958795582E9FE1591243C0F09229
:103450001A03E0921903D0921803C0921703B09296
:103460001603A0921503EEEBF0E0F0931403E09343
:1034700013039FE5592E0E94571482E080932D0775
:103480001093280700932707E0E3F0E0F0932A0762
:10349000E09329078EE50E94561810922807109293
:1034A000270770922A0760922907912C812C841497
:1034B00038F580910003F40196E0989FE00DF11D2E
:1034C0001124E15BFE4F80810E945618EFEF8E1AA7
:1034D0009E0AEDCFF0E65F12CECFF0921A03E09293
:1034E0001903D0921803C0921703B0921603A0924A
:1034F0001503309214032092130380E2582EBBCFA1
:10350000109328070093270770922A0760922907D3
:10351000852D0E9456180E941D190E94A71686E04C
:103520000E940B15892B09F088CF8091D702811159
:1035300084CF80900003F6E08F9E40011124C401E7
:10354000815B9E4F4C01FC01EC0FFD1F50820E94DD
:10355000BE196AE070E080E090E00E94201621969B
:10356000005F1F4FC530D10509F04BCFF401158224
:10357000DF91CF911F910F91FF90EF90DF90CF904F
:10358000BF90AF909F908F907F906F905F904F9083
:103590003F902F9008953F924F925F926F927F924B
:1035A0008F929F92AF92BF92CF92DF92EF92FF9253
:1035B0000F931F93CF93DF93CDB7DEB72E970FB640
:1035C000F894DEBF0FBECDBF80910703882309F4B6
:1035D000A5C11092EE021092EF021092F00210922A
:1035E000F1028090EE029090EF02A090F002B09075
:1035F000F102C090E902D090EA02E090EB02F09074
:10360000EC02A7019601C501B4010E94F1352B011E
:103610003C0120E030E0A9010E94BD3718160CF0F3
:10362000A0C1C301B2010E94DC3680914801882309
:1036300009F4B8C1C092C702D092C802E092C90290
:10364000F092CA02E12CF12C00EA10E420E030E014
:1036500040E450E46E31710540F0E12CF12C00E8BB
:103660001FE320E030E040E05FE360E070E080E3F3
:1036700091E40E94691280916907882309F42AC1A4
:103680000E9452166D837E838F83988780915107A5
:1036900090915207A0915307B09154074D815E81DC
:1036A0006F817885481B590B6A0B7B0B80915D07F6
:1036B00090915E07A0915F07B09160074817590786
:1036C0006A077B0708F406C1E0914B07F0914C07AD
:1036D00080819181A281B38189839A83AB83BC83EA
:1036E000E0914F07F09150079C01AD01608171811D
:1036F000828193810E94F1354B015C012091590731
:1037000030915A0740915B0750915C0769817A813B
:103710008B819C810E94F1356B017C0120913F07D8
:10372000309140074091410750914207C501B401D3
:103730000E94C23720915507309156074091570794
:10374000509158070E94F2352B013C0140925507D9
:1037500050925607609257077092580730906A0748
:1037600031101AC020913B0730913C0740913D0732
:1037700050913E07C701B6010E94C2379B01AC01C0
:10378000C301B2010E94F13560935507709356074B
:1037900080935707909358074090550750905607CD
:1037A00060905707709058071091650790916607D1
:1037B0009E87A0916707AD8700916807212F392F59
:1037C0004A2F502FC301B2010E94BD3718160CF0CA
:1037D000CCC0812F9E85AD85B02F809355079093E7
:1037E0005607A0935707B0935807332009F4D6C063
:1037F00020913B0730913C0740913D0750913E0797
:10380000C501B4010E94C2374B015C0120914307FE
:10381000309144074091450750914607C701B601D2
:103820000E94C2379B01AC01609155077091560709
:1038300080915707909158070E94F135A501940196
:103840000E94F2356B017C019B01AC01612F7E85EA
:103850008D85902F0E945E3687FD18C010916107FC
:10386000909162079E87A0916307AD8700916407DE
:10387000212F392F4A2F502FB601C7010E945E36E3
:1038800087FD04C01C2DDE86ED860F2DE0914D07CF
:10389000F0914E07812F9E85AD85B02F8083918357
:1038A000A283B38389819A81AB81BC8180935907BC
:1038B00090935A07A0935B07B0935C078D819E811C
:1038C000AF81B8858093510790935207A093530717
:1038D000B093540760910103709102038091030338
:1038E000909104030E94D53689E02E960FB6F89485
:1038F000DEBF0FBECDBFDF91CF911F910F91FF9023
:10390000EF90DF90CF90BF90AF909F908F907F907F
:103910006F905F904F903F900C949E15809106039E
:10392000609144017091450181110EC08091E702C0
:103930009091E80220910503BC01222329F06091B7
:103940004301680F792F711D90E080E00E940B37D2
:103950006093EE027093EF028093F0029093F10275
:1039600040CEC301B20190585ECE80916107909124
:103970006207A0916307B091640789879A87AB8734
:10398000BC879C01AD01C301B2010E945E3687FF76
:103990002CCF89859A85AB85BC851FCF812C912C36
:1039A000540134CF20E030E040E05FE3C701B601CE
:1039B0000E94F2359B01AC01C501B4010E94BD37E4
:1039C00018164CF410920103109202031092030394
:1039D000109204037FCF80E090E0AFE7B3E48093E0
:1039E000010390930203A0930303B093040372CFE7
:1039F0004F925F926F927F928F929F92AF92BF92FF
:103A0000CF92DF92EF92FF92CF93DF938090D0021C
:103A10009090D102A090D202B090D302C091000346
:103A2000D0E0C501B4010E94D5366B017C0120E0D5
:103A300030E048E453E4C501B4010E945E3693E0EF
:103A4000CC0FDD1F9A95E1F7CE5FDE4F87FF31C0C7
:103A50002881398150E040E025513109410951095F
:103A6000C701B6010E94143A28EC30E040E050E073
:103A70000E948E35CA01B9016B5E7F4F8F4F9F4FF9
:103A80000E940D376093E9027093EA028093EB0283
:103A90009093EC02DF91CF91FF90EF90DF90CF9069
:103AA000BF90AF909F908F907F906F905F904F905E
:103AB00008954A805B80712C612C20E030E04CE856
:103AC00053E4C501B4010E945E3687FF1FC08880A1
:103AD0009980B12CA12CA7019601285C31094109DC
:103AE0005109C301B201681979098A099B090E9429
:103AF000143A20E530E040E050E00E948E35CA01E3
:103B0000B901680D791D8A1D9B1DBACF2C813D819D
:103B100050E040E02419350946095709C701B601AC
:103B200068517140810991090E94143A20E530E002
:103B300040E050E00E948E35CA01B901640D751D48
:103B4000861D971D9DCF9091C00095FF04C0809366
:103B5000C60081E0089580E008950F931F93CF93EE
:103B6000DF93FC018091F2029091F302892BA1F482
:103B7000F093B102E093B00225E030E080E197E2FB
:103B8000CAE0D0E02150310919F0E817F90758F1DF
:103B90009093F3028093F2020091F2021091F302EB
:103BA0008091B0029091B102B8010E94243ACB01F9
:103BB000CAE0D0E0BE010E94243A805D0E94A31DAD
:103BC000882361F0C801BE010E94243A7093F30279
:103BD0006093F20281E0672B09F080E0DF91CF91E2
:103BE0001F910F910895BE010E94243ACB01CACFC4
:103BF000FC0101900020E9F73197AF01481B590BF8
:103C0000BC018BE197E00C945E168F929F92AF926D
:103C1000BF920F931F93CF93DF93CDB7DEB7A197DA
:103C20000FB6F894DEBF0FBECDBF19A2423008F424
:103C30004AE08E010F5D1F4F842E912CB12CA12CD8
:103C4000A50194010E94C035E62FB901CA01EA30EE
:103C5000F4F4E05DD801EE938D01232B242B252B6A
:103C600079F790E080E0109719F0CD010E94F81DDF
:103C7000A1960FB6F894DEBF0FBECDBFDF91CF91F6
:103C80001F910F91BF90AF909F908F900895E95C26
:103C9000E1CF6F927F928F929F92AF92BF92CF921D
:103CA000DF92EF92FF920F931F93CF93DF93B09029
:103CB000000377247394B11001C0712C80914201EC
:103CC0008150990B10921A0310921903880F991FB3
:103CD000909318038093170381E090E0909316036C
:103CE000809315038B2D90E0880F991F90931403F8
:103CF0008093130386E00E940B1521E0892B09F0C5
:103D000020E02093D702FF24F39472E0972EE6E0A0
:103D10008E2EFCE0CF2ED12C0E945714C09113039D
:103D2000D0911403D595C795EC2E8E011127C801AB
:103D3000870D911D77FC9A958B199109712C97FD30
:103D400006C08330910514F082E090E0782EF09266
:103D50002C0710922B0790922D0710922807109293
:103D6000270710922A071092290784E19DE10E94FB
:103D70003B1810922C07F0922B07109228071092F4
:103D80002707A72C072C000CBB08C501019654E09F
:103D9000880F991F5A95E1F790932A078093290776
:103DA00082E19DE10E943B186C2E671890E080E054
:103DB00098012A193B095901209142018C010F5F9A
:103DC0001F4F6216D0F4D0922807C092270798019F
:103DD00044E0220F331F4A95E1F730932A072093DE
:103DE00029078A0D9B1D889E9001899E300D112404
:103DF000C901815B9E4F0E94F81DC8016394033086
:103E00001105D1F60E941D190E94A71686E00E9496
:103E10000B15892BB9F48091D702811113C00E9430
:103E2000BE19E0920003DF91CF911F910F91FF9097
:103E3000EF90DF90CF90BF90AF909F908F907F904A
:103E40006F900895BC2E68CFCF92DF92EF92FF92D1
:103E5000CF93DF9397FF19C06B017C018DE20E9425
:103E60005618EC0166277727CB016C197D098E095E
:103E70009F094AE00E94051E8C0F9D1FDF91CF9184
:103E8000FF90EF90DF90CF9008954AE0DF91CF91BF
:103E9000FF90EF90DF90CF900C94051E4F925F92B1
:103EA0006F927F928F929F92AF92BF92CF92DF924A
:103EB000EF92FF920F931F93CF936B017C01742EAF
:103EC000AC019B010E948738882399F081EA92E037
:103ED000CF911F910F91FF90EF90DF90CF90BF9007
:103EE000AF909F908F907F906F905F904F900C94C9
:103EF000F81D46015701E894B7F82FEF3FEF4FE761
:103F00005FE7C501B4010E94873881110DC02FEF12
:103F10003FEF4FE75FE7C501B4010E945E36181618
:103F20001CF485EA92E0D4CF2FEF3FEF4FE75FE438
:103F3000C701B6010E94BD3718161CF489EA92E049
:103F4000C7CF2FEF3FEF4FE75FECC701B6010E94ED
:103F50005E3687FDF3CF20E030E0A901C701B6014E
:103F60000E945E3610E000E087FF08C08DE20E94EC
:103F700056188C01F7FAF094F7F8F094C0E060E07E
:103F800070E080E09FE37C1641F020E030E040E20A
:103F900051E40E946336CF5FF6CFA70196010E94DD
:103FA000F2352B013C010E94DC364B015C014AE0FA
:103FB0000E94051E7C01E00EF11ECC23B1F1C5016B
:103FC000B4010E940B379B01AC01C301B2010E94F6
:103FD000F1354B015C018EE20E945618E80EF91E85
:103FE000C15018F120E030E040E251E4C501B401D5
:103FF0000E94C2372B013C010E94DC364B01B12CE0
:10400000A12C4AE0C501B4010E94051EE80EF91E6C
:10401000C501B4010E940B379B01AC01C301B20181
:104020000E94F1354B015C01DBCFC701CF911F919D
:104030000F91FF90EF90DF90CF90BF90AF909F9047
:104040008F907F906F905F904F900895CF92DF9206
:10405000EF92FF920F931F93CF93DF93C82F81E0CE
:10406000DC2FD827D0932C07C0932B0780932D07E4
:104070000C2F2EE046E661E370E081E090E00E94C4
:1040800008172091080330910903253F81E0380784
:10409000B8F4A4E6B0E00E94E23524EF31E040E05D
:1040A00050E00E948E35BA01A9014E5F5F4F6F4FFD
:1040B0007F4F2EE061E370E081E090E00E948C137E
:1040C0006091EE027091EF028091F0029091F10206
:1040D0000E94D5369B01AC01A4E6B0E00E94AD354C
:1040E00034EFC32EDD24D394E12CF12CA7019601EB
:1040F0000E948E35DA01C9010296A11DB11D0297F9
:104100000C2F2DE043E062E370E00E948C1360917D
:10411000EE027091EF028091F0029091F1020E9404
:10412000D5369B01AC01A4E6B0E00E94AD35A701F5
:1041300096010E948E35DA01C9010296A11DB11DBA
:10414000039724E045E06CE370E00E948C136091DB
:10415000EE027091EF028091F0029091F1020E94C4
:10416000D5369B01AC01A4E6B0E00E94AD35A701B5
:1041700096010E948E3589019A010E5F1F4F2F4FC5
:104180003F4F0150110941E3E42EF12C4D2FB701AF
:10419000C8010E9445138FEFE81AF80A8DE3E8166C
:1041A000F104A1F76091EE027091EF028091F002AC
:1041B0009091F1020E94D5369B01AC01A4E6B0E0DB
:1041C0000E94AD3524EF31E040E050E00E948E3592
:1041D000DA01C9010296A11DB11D0397ED2E04E07D
:1041E00025E047E552E16BE370E00E94AE130C2F2F
:1041F0002EE047E161E370E088E690E00E94081756
:104200006091010370910203809103039091040374
:104210000E94D5369B01AC012F5F3109410951093C
:10422000A7E1B0E00E94AD35CC24C394DD24DA943C
:10423000ED2CFD2CA70196010E948E35422F2EE019
:1042400061E370E088E690E00E948C13C0932C0735
:10425000D0932B0782E090E0909328078093270764
:1042600007E310E010932A07009329076091EE02FC
:104270007091EF028091F0029091F10240E00E9473
:104280004E1F88EF0E94561885E592E10E943B1868
:1042900089E690E0909328078093270710932A07D8
:1042A0000093290760910103709102038091030339
:1042B000909104030E94D5369B01AC012F5F310918
:1042C00041095109A4E6B0E00E94AD35A70196016D
:1042D0000E948E35CA01B9010E94241F83E592E134
:1042E0000E943B18D0932C07C0932B07DF91CF91EE
:1042F0001F910F91FF90EF90DF90CF9008950E9453
:10430000523A1F93CF93DF93EC01162F0E9478351A
:10431000181739F0612FCE01DF91CF911F910C94C6
:104320008035DF91CF911F910895AF92BF92CF92C8
:10433000DF92EF92FF920F931F93CF93DF936091E1
:10434000470182E090E00E9481216091460183E074
:1043500090E00E9481216091450184E090E00E94FC
:1043600081216091440185E090E00E94812160916B
:10437000430186E090E00E94812160914B0187E03B
:1043800090E00E94812160914A0188E090E00E94C3
:1043900081216091490189E090E00E948121609132
:1043A0007F018AE090E00E948121609148018BE0CA
:1043B00090E00E94812160914D018CE090E00E948C
:1043C0008121609100038DE090E00E948121609145
:1043D00042018EE090E00E94812160914E018FE0C9
:1043E00090E00E9481216091D40280E190E00E94DF
:1043F00081216091FD0281E190E00E948121609124
:10440000D60282E190E00E9481216091D50283E191
:1044100090E00E94812184E1E82EF12C10E006E07A
:10442000809142011817B8F5109F60011124D0E067
:10443000C0E0FE01EC0DFD1DE15BFE4F6081C70198
:104440008C0F9D1F0E9481212196C630D10589F7CE
:10445000670186E0C80ED11C88E0189FE001112496
:10446000CE5FDE4F8EE0E80EF11C69812296C60118
:104470000E948121560182E0A80EB11CFE013297F4
:104480006081C60101960E9481216501AE14BF04BE
:1044900061F71F5FC5CFDF91CF911F910F91FF9003
:1044A000EF90DF90CF90BF90AF9008958F929F9242
:1044B000AF92BF92CF92DF92EF92FF92CF936FEFC6
:1044C00070E089E00E949E158BEA94E00197F1F775
:1044D0008EE00E94D9187C018AE00E940B15909111
:1044E000B202981729F091E09093ED028093B20206
:1044F000809101019FEF980F90930101811106C0F7
:104500000E9407199093FF028093FE0260910103BD
:104510007091020380910303909104030E94D536A9
:1045200089E00E949E158090D0029090D102A090C8
:10453000D202B090D302B70190E080E00E940B3726
:10454000A50194010E94F1352DEC3CEC4CE45DE3B7
:104550000E94C237A50194010E94F2356093D002F7
:104560007093D1028093D2029093D3020E94F81CE0
:10457000609108037091090390E080E00E940B377E
:104580006B017C012091EE023091EF024091F0022C
:104590005091F1020E945E368111B6C02091E9026D
:1045A0003091EA024091EB025091EC02C701B60152
:1045B0000E94F1356B017C0120E030E0A9010E94EE
:1045C000BD3718160CF096C020E030E040EA50E409
:1045D000C701B6010E94BD3718160CF495C0609152
:1045E000E7027091E80290E080E00E940B37209192
:1045F000E9023091EA024091EB025091EC020E94F4
:10460000F1356B017C0120E030E0A9010E94BD374B
:1046100018160CF088C0C701B6010E94DC36653060
:10462000710508F084C080918001811105C08091DE
:104630004C0181110E94BE1981E08093800110928B
:104640004C018091080390910903853F21E0920776
:1046500010F01092000120910001211141C0843F0F
:104660009140F0F56FEF70E089E00E949E150E9486
:10467000BE19C1E0C09300010E94491E0E9495210D
:10468000C093ED028EE00E94D918BC0190E080E05A
:104690000E940B376093D0027093D1028093D202B4
:1046A0009093D3021092E1028091E7029091E80288
:1046B0002CE231E030931A032093190320E233E017
:1046C00030931803209317032AE030E03093160349
:1046D00020931503880F991F90931403809313035D
:1046E000CF91FF90EF90DF90CF90BF90AF909F90D1
:1046F0008F90089520E030E040EA50ECC701B60109
:104700000E945E3687FF6BCF6091E9027091EA02EA
:104710008091EB029091EC020E94DC3670930903C9
:10472000609308035CCFC701B601905876CF109212
:10473000800187CF0C9478352F923F924F925F92F1
:104740006F927F928F929F92AF92BF92CF92DF92A1
:10475000EF92FF920F931F93CF93DF938C0186E02C
:1047600080932D0781E080932C0710922B07609196
:10477000C5027091C602072E000C880B990B0E948F
:104780000D372B013C014FEBC42E42E0D42E7601B5
:10479000C2E0D0E05AE0A52EB12CBE010D2E000CD7
:1047A000880B990B0E940D379B01AC0160E070E013
:1047B00080E291E40E942F389B01AC01C301B20159
:1047C0000E9463360E94D536CB01B5010E94383A6B
:1047D000F701819391937F012197F8F61093C60218
:1047E0000093C502C3EBD2E094E0E92EF12C22E065
:1047F000822E912C3AE0232E312CB401092C000C8E
:10480000880B990B0E940D379B01AC0160E070E0B2
:1048100080E291E40E942F382B013C016091C50297
:104820007091C602072E000C880B990B0E940D3761
:10483000A30192010E9463360E94D536CB01B101DB
:104840000E94383AF60120813181821B930BF2E3FA
:10485000F89FB001F99F700D1124072E000C880BF2
:10486000990B0E940D37288139814A815B810E9412
:10487000F2352B013C0120E030E0A9010E945E36B8
:1048800081117CC0488259826A827B8201E022E3E6
:1048900046E270E060E0C70104970E948C138EEC42
:1048A000A82EBB24BA940FEF1FEF288139814A81CB
:1048B0005B8160E070E080E890E40E94F1352B01BC
:1048C0003C01B5010B2C000C880B990B0E940D3795
:1048D0009B01AC01C301B2010E94F2350E94D536A2
:1048E000F0922807E092270770932A076093290720
:1048F000F60160817181600F711F072E000C880B1B
:10490000990B0E94241F0F5F1F4FF2E3AF0EB11CE3
:104910000230110551F6249621E0821A910882E0B6
:10492000C80ED11CECE2EE0EF11CF8E8EF16F10413
:1049300009F063CF00E022E040E870E060E090E042
:1049400080E00E948C1320E140E860E370E090E09A
:1049500080E00E948C13DF91CF911F910F91FF9007
:10496000EF90DF90CF90BF90AF909F908F907F900F
:104970006F905F904F903F902F900895C301B201C8
:1049800090582DEC3CEC4CE45FE30E94C237A3014D
:1049900092010E94F235688379838A839B8376CF64
:1049A0004F925F926F927F928F929F92AF92BF923F
:1049B000CF92DF92EF92FF920F931F93CF93DF93EB
:1049C000CDB7DEB72B970FB6F894DEBF0FBECDBFC5
:1049D00090914E01E82FF0E09F01220F331F9111BB
:1049E00026C0F901E55DFD4F40815181EE24E3943D
:1049F00000E124E260E370E080E390E00E94AE1307
:104A00002B960FB6F894DEBF0FBECDBFDF91CF91CE
:104A10001F910F91FF90EF90DF90CF90BF90AF90DC
:104A20009F908F907F906F905F904F9008959230FD
:104A300009F079C0E356F34E4490F901E352FE4F7A
:104A4000A080B180F12CE12C04E310E393E0592E17
:104A500027E0622EE414A0F6F501EE0DFF1D44914F
:104A600080E1840F833008F45CC081EF7816D1F0C8
:104A700082EF7816C1F1403F90F4193710F0085FCB
:104A800010E088E0489FA0011124435E5A4E602F39
:104A900070E028E0812F90E00E946A14185F80EF98
:104AA000782E1DC04E39D8F41D3710F0085F10E085
:104AB000C02ED12C812E912C459DA00111244D5B3F
:104AC0005C4E23E0B601C4010E946A1421E042E476
:104AD00053E1B601C40103960E946A141C5F8FEF74
:104AE000E81AF80AB7CF4132D0F7193710F0085F4B
:104AF00010E0C02ED12C812E912C469DA0011124B6
:104B0000455A5D4E27E0B601C4010E946A1421E0B7
:104B100042E453E1B601C40107960E946A14185F8B
:104B2000DECF742EDCCF80E390E090932807809353
:104B3000270784E390E090932A078093290781E078
:104B400080932D07F901EC53F34E65917491CE01DA
:104B500001960E947135CE0101960E94F81D50CF3A
:104B6000CF93C82F86E00E940B1521E0892B09F016
:104B700020E02093D7020E94571480911303909154
:104B80001403959587950E949C238C2F0E94D02416
:104B90000E94A7160E941D1986E00E940B15892B02
:104BA00051F78091D7028111E6CF0E94BE19809102
:104BB000C5029091C602CF91089510921A031092E7
:104BC000190328E037E0309318032093170324E6F5
:104BD00030E03093160320931503880F991F9093AC
:104BE00014038093130387E00E94B0259C01220FD9
:104BF000331F30931A0320931903865A9F4F880F4F
:104C0000991F90931803809317038AE090E0909384
:104C1000160380931503309314032093130387E046
:104C20000E94B0259C01220F331F30931A0320935A
:104C300019030996880F991F9093180380931703FF
:104C400081E090E090931603809315033093140352
:104C50002093130387E00C94B0252F923F924F923C
:104C60005F926F927F928F929F92AF92BF92CF92FC
:104C7000DF92EF92FF920F931F93CF93DF93182F42
:104C8000E091D802F0E0EB57FE4F80818150990B04
:104C900010921A0310921903880F991F909318030A
:104CA0008093170381E090E090931603809315039F
:104CB000812F90E0880F991F909314038093130322
:104CC00086E00E940B1521E0892B09F020E020935B
:104CD000D70210922C0781E080932B0738E3632ED4
:104CE000E0901303F0901403F594E794AE2C670161
:104CF000DD249601211B3109629EC001639E900D47
:104D00001124C80FD91F209709F1662777276C1B3C
:104D10007D0B072E000C880B990B0E940D372AE99A
:104D200039E949E15FE30E94C2371B012C01BE0152
:104D3000DD0F880B990B0E940D379B01AC01C2015E
:104D4000B1010E94F2350E94D536EB010E94571442
:104D50008601025011094E0185E0B82E93E0792EAC
:104D60007A0CC090D802D12C17FD20C0F601EB5769
:104D7000FE4F808180171106C9F0C4F0E5E8F1E02C
:104D800070E060E0CF01855891408C159D0534F4AA
:104D90008191680F711DF6CF1E2DA2CF872D8B1923
:104DA000680FC401885491090E942F19BA940F5FAB
:104DB0001F4F88E3880E911CB110D3CFE5E8F1E0D6
:104DC00090E080E09F01255831402C153D0524F4EA
:104DD0002191820F911DF6CF8E0D0E94D0240E944A
:104DE000A7160E941D1986E00E940B15892BA1F6BB
:104DF0008091D7028111D0CF0E94BE198A2DDF91F8
:104E0000CF911F910F91FF90EF90DF90CF90BF90C7
:104E1000AF909F908F907F906F905F904F903F905A
:104E20002F9008951F920F920FB60F9211242F9377
:104E30003F938F939F93AF93BF9380910B03909178
:104E40000C03A0910D03B0910E0330910A0323E0EF
:104E5000230F2D3758F50196A11DB11D20930A038C
:104E600080930B0390930C03A0930D03B0930E0358
:104E700080910F0390911003A0911103B091120340
:104E80000196A11DB11D80930F0390931003A09371
:104E90001103B0931203BF91AF919F918F913F91F6
:104EA0002F910F900FBE0F901F90189526E8230F9B
:104EB0000296A11DB11DD2CF1F920F920FB60F9275
:104EC00011242F933F934F935F936F937F938F930F
:104ED0009F93EF93FF9383B1817029B19091CD029D
:104EE000981709F49DC030E0220F232F221F330BA7
:104EF000922F8093CD024091CC02241709F490C0E8
:104F00002093CC022091150330911603981719F0C5
:104F1000319521953109409113035091140360910B
:104F2000190370911A03240F351F261737070CF445
:104F30008BC02091150330911603981719F0319505
:104F40002195310940911303509114036091170387
:104F500070911803240F351F621773070CF46FC08C
:104F60004091150350911603981719F051954195EA
:104F700051092091130330911403240F351F3093EE
:104F800014032093130341E0981340E02091CB02D7
:104F9000421709F440C02091150330911603981769
:104FA00019F0319521953109609113037091140323
:104FB000E0911903F0911A03260F371F2E173F07B0
:104FC0000CF44CC02091150330911603981719F07A
:104FD0003195219531096091130370911403E0918B
:104FE0001703F0911803260F371FE217F3078CF110
:104FF0002091150330911603981719F031952195DA
:1050000031098091130390911403820F931F9093A1
:105010001403809313034093CB0281E08093ED024D
:10502000FF91EF919F918F917F916F915F914F9140
:105030003F912F910F900FBE0F901F9018952091C8
:105040001703309118039BCF2091190330911A0355
:1050500096CF8091170390911803D9CF80911903AF
:1050600090911A03D4CF1895CF93DF93CDB7DEB7C5
:105070002C970FB6F894DEBF0FBECDBF789484B5E1
:10508000826084BD84B5816084BD85B5826085BD44
:1050900085B5816085BD80916E00816080936E00D2
:1050A00010928100809181008260809381008091C4
:1050B0008100816080938100809180008160809375
:1050C00080008091B10084608093B1008091B00035
:1050D00081608093B00080917A00846080937A0030
:1050E00080917A00826080937A0080917A0081605A
:1050F00080937A0080917A00806880937A00109281
:10510000C1001092B90088E48093B8000E949D16F7
:1051100080E00E9493160FE112E28EE3E82E82E215
:10512000F82EF80184910E9493160F5F1F4FE0162E
:10513000F106B9F70E948B1611E01093B8000E9497
:10514000A71681E28093230760E08EE00E9462153B
:1051500060E08FE00E94621561E085E00E946215C8
:1051600061E089E00E94621562E087E00E946215BA
:1051700062E088E00E94621562E086E00E946215AB
:1051800062E08AE00E9462151092C50087E6809373
:10519000C4001092C00088E08093C10086E0809334
:1051A000C2006FEF70E089E00E949E1560E085E02C
:1051B0000E94341580917A00876080937A008091F4
:1051C0007A00886080937A00789410936B00109333
:1051D00068001BBB90E080E00E949A23182F81E0BA
:1051E00090E00E949A23912F8F31984009F0C9C016
:1051F00082E090E00E949A23182F83E090E00E94C2
:105200009A23912F909347018093460184E090E088
:105210000E949A23182F85E090E00E949A23912FF4
:10522000909345018093440186E090E00E949A2388
:105230008093430187E090E00E949A2380934B0182
:1052400088E090E00E949A2380934A0189E090E0F0
:105250000E949A23809349018AE090E00E949A2359
:1052600080937F018BE090E00E949A2391E081116E
:1052700001C090E0909348018CE090E00E949A2356
:1052800091E0811101C090E090934D018DE090E09C
:105290000E949A23809300038EE090E00E949A235C
:1052A000282E809342018FE090E00E949A23809301
:1052B0004E0180E190E00E949A2391E0811101C0AB
:1052C00090E09093D40281E190E00E949A23809331
:1052D000FD0282E190E00E949A23182F83E190E082
:1052E0000E949A23912F9093D6028093D502A2E038
:1052F0008A2EA1E09A2EBFE4AB2EB1E0BB2E14E1C2
:10530000E12EF12C312C231409F447C010E000E009
:10531000C701800F911F0E949A23F501E00FF11F32
:1053200080830F5F1F4F0630110591F7670126E05C
:10533000C20ED11C3EE0E30EF11C3401C6010E94F6
:105340009A23082F10E0102F0027D3010D931C93F0
:105350002601B2E04B0E511CC60101960E949A2311
:10536000082BF301019311933F0162014E145F0476
:1053700029F73394F8E08F0E911C26E0A20EB11CA1
:10538000C2CF68E090E080E00E9481216FE181E07F
:1053900090E00E9481210E9495211091D40280EC1E
:1053A000111101C088EC0E94C41680EA111101C0DD
:1053B00081EA0E94C4161092F90280E28093FA02F8
:1053C00080E48093FB0280E68093FC028091D5020A
:1053D0009091D602892B19F10E94571467E088E258
:1053E00090E00E942F1987E00E94D0240E94A71607
:1053F00068EE73E080E090E00E9420160E94BE19E3
:105400000E94BE190E94BE1990E080E00E94DD2536
:105410002091D5023091D60282179307E9F60E94B7
:105420005F189093CF028093CE020E940719909349
:10543000FF028093FE0200914601109147011093F4
:10544000E8020093E7028EE00E94D918BC0190E0C8
:1054500080E00E940B376093D0027093D10280935A
:10546000D2029093D3020E949B180E94F81C20E065
:1054700030E040EA51E46091E9027091EA028091E3
:10548000EB029091EC020E94F2356B017C01B801B5
:1054900090E080E00E940B379B01AC01C701B60190
:1054A0000E945E3687FF05C070E060E089E00E94E0
:1054B0009E15109261071092620710926307109276
:1054C0006407412C512CEFE76E2EE3E47E2E4092D0
:1054D0006507509266076092670770926807A09010
:1054E0004D07B0904E0780916907D501CD90DD90B2
:1054F000ED90FC90882311F40C941634A3019201D2
:10550000C701B6010E94BD37181634F5F501408277
:105510005182628273828090550790905607A090C6
:105520005707B0905807C0906507D0906607E09085
:105530006707F0906807A7019601C501B4010E94B2
:10554000BD371816CCF4C0925507D0925607E0929A
:105550005707F092580720C020E030E0A901C701AA
:10556000B6010E945E3687FFD6CFD5011D921D92EF
:105570001D921C921397CFCFC0906107D090620705
:10558000E0906307F0906407A7019601C501B4019C
:105590000E945E3687FDD7CF81E08093690783B193
:1055A00081708093CD0289B190E0880F892F881F88
:1055B000990B8093CC022091CD029091CC0281E096
:1055C000291380E08093CB028CE291E090931A0340
:1055D0008093190380E293E090931803809317035C
:1055E0008AE090E09093160380931503000F111F3B
:1055F00010931403009313030E9452166093E30266
:105600007093E4028093E5029093E6020E94BE1933
:105610000E94BE1920901303309014036101D594A9
:10562000C794DA86C986D092E802C092E70286E083
:105630000E940B15482E8111A0C08091E1028823A1
:1056400009F49BC00E94BE190E9452166B017C0196
:10565000C092DD02D092DE02E092DF02F092E00220
:1056600086E00E940B15892B59F40E9452166C1982
:105670007D098E099F09643F71408105910580F382
:105680000E9452166C197D098E099F09643F714072
:105690008105910508F496C46FEF70E089E00E94DF
:1056A0009E150E94BE19512C4AE0642E712C109256
:1056B000D802852D0E942D26582E49E0481708F45F
:1056C00039C0E82FF0E0E959F44D0C944C3A832BA3
:1056D000562ED02E3D2F4B2F7C2F8A2FAD2FB82F3B
:1056E000C22F20E030E0A901C701B6010E945E365A
:1056F00087FF52CF10925507109256071092570706
:105700001092580749CF36E0F32E81E08093D802FB
:10571000852D0E942D26582E52E0851709F45FC270
:10572000581708F40EC1882309F439C161E08617BF
:1057300009F438C10E94952181E08093ED02C9846B
:10574000DA84D092E802C092E7028CE291E0909372
:105750001A038093190380E293E0909318038093D7
:1057600017038AE090E09093160380931503C1011C
:105770008E7F90931403809313034092E1028091F3
:105780000503882309F1109149011123E9F00E94D2
:105790005216C090D902D090DA02E090DB02F0906D
:1057A000DC026C197D098E099F0928EE33E040E088
:1057B00050E00E94C035211738F0109205030E9476
:1057C000BE1981E080934C018091ED028823F1F1B4
:1057D00080910603882351F120E030E040EA51E453
:1057E0006091E9027091EA028091EB029091EC02E3
:1057F0000E94F2356B017C016091E7027091E80232
:1058000090E080E00E940B379B01AC01C701B6011C
:105810000E945E3687FF05C070E060E089E00E946C
:105820009E150E94BE1981E080934C011092ED02FA
:1058300010920603109207030E9452166093E3022F
:105840007093E4028093E5029093E6020E94521660
:105850000091E3021091E4022091E5023091E6020A
:10586000601B710B820B930B20E63AEE40E050E098
:105870000E94C035122F2093E2028091060381110D
:105880000BC080914B01882339F0281728F081E064
:10589000809306030E94BE198091070381110BC0FB
:1058A00080914A01882339F0181728F081E080930D
:1058B00007030E94BE190E9456220E94CB1A8091B3
:1058C000F802811127C00E9452160091F402109133
:1058D000F5022091F6023091F7026B017C01C01AAB
:1058E000D10AE20AF30A97018601083E1340210516
:1058F000310508F495C36093F4027093F502809328
:10590000F6029093F70281E08093F8021092F3027E
:105910001092F2021091F802EFEFE10FEB3008F075
:105920007FC3F0E0EA56F34D0C944C3AF82F013067
:105930000830283008303C300830603008309E3065
:10594000D93083E0581609F44DC194E05912F2CED3
:1059500080914201883008F0D8CE91E0980F909362
:105960004201809300030E94DC19E0910003B8E03B
:10597000EB9FF0011124EE5FFE4F48EDC42ED12CB9
:10598000D182C08224E331E03383228346E851E0B0
:10599000558344838EE190E097838683B6CE0E9440
:1059A000491EB3CE8E010F5F1F4F612C712C430136
:1059B000639498EEC92E93E0D92EAA24A394B12C17
:1059C000EE24E394E0910003A4E0EA9FF0011124A7
:1059D000C3010197E80FF91FEE0FFF1FEE5FFE4FA7
:1059E000808191819093E8028093E702E8ECF0E0F7
:1059F000F0931A03E0931903D0921803C09217038F
:105A0000B0921603A0921503880F991F9093140368
:105A100080931303E0924C0186E00E940B1521E075
:105A2000892B09F020E02093D7020E945714F2E05E
:105A3000F0932D070E9456220E94CB1A109228073D
:105A40001092270710922A071092290784E692E203
:105A50000E943B18C401B3010E94241F8DEA92E00A
:105A60000E94F81D8091800110922807109227074C
:105A7000882309F48CC020E130E030932A0720937A
:105A8000290787E592E20E943B181092280710929E
:105A9000270740E250E050932A074093290780E50A
:105AA00092E20E943B186091130370911403759564
:105AB0006795072E000C880B990B0E94241F0E94EB
:105AC0001D190E94A71686E00E940B15892B09F06C
:105AD000ACCF8091D7028111A8CF80911303909110
