:100000000C9434000C9449000C9449000C94490061
:100010000C9449000C9449000C9449000C9449003C
:100020000C9449000C9449000C9449000C9449002C
:100030000C9449000C9449000C9449000C9449001C
:100040000C9449000C9449000C9449000C9449000C
:100050000C9449000C9449000C9449000C944900FC
:100060000C9449000C94490011241FBECFEFD8E036
:10007000DEBFCDBF11E0A0E0B1E0E8EFF0E002C0EC
:1000800005900D92AA30B107D9F70E944B000C944D
:100090007A000C9400001092C50087E68093C4009B
:1000A0001092C00088E08093C10086E08093C20077
:1000B000E0E0F1E0819181110FC0E6E0F1E0819193
:1000C000811111C02FEF81EE94E0215080409040CB
:1000D000E1F700C00000F1CF9091C00095FFFCCF88
:1000E0008093C600E7CF9091C00095FFFCCF80932E
:0800F000C600E5CFF894FFCF34
:0A00F800424F4F540A0048420A002C
:00000001FF
