:100000000C943F120C9467120C9467120C94752791
:100010000C9467120C9467120C9467120C9467127C
:100020000C9467120C9467120C9467120C9467126C
:100030000C9467120C9467120C9467120C9467125C
:100040000C942B270C9467120C9467120C94671273
:100050000C9467120C944C280C9467120C94671241
:100060000C9467120C94671207634236B79BD8A7AB
:100070001A39685618AEBAAB558C1D3CB7CC5763CD
:10008000BD6DEDFD753EF6177231BF000000803F7B
:1000900005A84CCDB2D44EB93836A9020C50B9914E
:1000A0008688083CA6AAAA2ABE000000803F080055
:1000B0000000BE922449123EABAAAA2ABECDCCCCE7
:1000C0004C3E00000080BEABAAAAAA3E0000000081
:1000D000BF000000803F0000000000084178D3BB53
:1000E0004387D1133D190E3CC3BD4282AD2B3E6800
:1000F000EC8276BED98FE1A93E4C80EFFFBE01C4F1
:10010000FF7F3F0000000000800400003FF0383017
:1001100033103F90381033902790261030903FF0E6
:1001200000008004800400003FF03DF020103BF010
:100130003B7030302B502AD031B03FF000008004AB
:10014000800400003FF038703030231027902010DA
:100150002010279027903FF00000800480040000CA
:100160003FF03CF03CF020102490249020103CF014
:100170003CF03FF000008004800400003FF037B006
:1001800023103030387038703030231037B03FF0E3
:1001900000008004FCF4F860E044C08CC11CC22C58
:1001A000C44CC88CD10CA204C4048FFC187CBCFCC9
:1001B0008000BFF81FF8B0281FF8B4081FF8B10876
:1001C0001FF8B048BFF8B288BFF880008000BFF8C1
:1001D0001FF8B0081808B9E819B8B8381838B9B80D
:1001E000B9F8B0F8BFF8800015543FF815503FF04B
:1001F0001550387010203104138C22A817FC2AA83F
:100200000000000015543FFC15543FFC15543C04FD
:1002100014043CFC14543CFC005400A800000000F2
:10022000800400003FF03CF034B0249024902790EC
:100230002310303038703FF000008004FF7CFE7CDB
:10024000FCECE8DCC84C984C882408200000000036
:10025000000000008004E01CF3FCE7FCCE0C8E1CC8
:100260009F9C1F3C1F0C0E0C0FFC87F881E4C00CF8
:10027000E01CF87C000458085808580840087FF82B
:1002800060185FE85B685FE85B681CE85FE8000097
:10029000800400003FF03CF03CF03CF020102010C7
:1002A0003CF03CF03CF03FF000008004F87CF7BCF0
:1002B00000007FF80000BFF4AB54AB54AB54AB5418
:1002C000AB54AB54BFF4C00CF03CCE0CBF04B30431
:1002D00073007F007E007C007C007C60BC64BE04F8
:1002E000CF0CF03C81DC559C29045500299055D059
:1002F00003FCFF002E00267002508270E600EE0420
:10030000800C001C3FF43FE03FC4378C2318303092
:1003100038703CF03FF03FF000008004058074B876
:1003200057A876B80580F97C4694AAA8F97C068877
:1003300074A8578C75740698F03CCE4CBC34B81435
:10034000188010804230607860F844C08004B8841F
:10035000CFCCF03CE01CC00C8FC49FE49FE49FE432
:1003600000000300030003000780078003008004EF
:10037000F87CE01CC00CCFCCCFCCCFCCCFCCCFCC3A
:10038000CFCCCFCCC84CCFCCC00CE01CFCFCF87C54
:10039000E01CC00CC00CC00CC00CC00CC00C800415
:1003A0008004FFFCF87CFCFC8004000020001000AE
:1003B00008001000270000000000000000000000FE
:1003C00000008004C3FC18001800C3FCFFFCFF0CF5
:1003D00000600060FF0CFFFCF0FC06000600F0FC73
:1003E0008FC4102020104CC89FE43DF03DF01DE06C
:1003F0003EF03F709FE48CC400003030F87CF33C4A
:10040000F4BCF6BCF4BCF6BCF4BCE49CC84CD02CE8
:10041000D02CC84CE79CF03C882408203830383079
:10042000383038303830383039303BB03FF03FF07A
:1004300000008004F21415F0CADFB8CCF0D699E8B9
:10044000AEA4DFEEE8F21D1E08F21C08F21A1B082B
:10045000F0714601F046464A01F219F051F218F0E7
:100460005A8DF0C0DAEEAEF0C8B8A5F1302924F00C
:10047000B599E1A4BDF21415F0CBEEAEBDF218F0C3
:100480005A8DF21617F21415F0CBEEAEBDF2161718
:10049000F0BCCA9EE0BDF21415F21213F21011F274
:1004A0000C0DF094F20E0FF0A2D8DFCBE1EEACDC35
:1004B000E8F20AF08CF20BF04A8DF209F08DF09719
:1004C000C59BBDF20708F21F20F2040506F097DE77
:1004D000EED5F0CBABEEF0AEA4DFEEE8F0A8E8BDD1
:1004E000E2EEE0F0B499D3EEF200010203F0CCDFCB
:1004F000B0B8BD5361766500466C6970004D6169A6
:100500006E2053637265656E004A5000454E00438D
:100510004E00594553004E4F004F4E004F46460087
:10052000496E666F73004269670050494400446930
:1005300072656374005361766500426F6F73740077
:100540004F666600536C65657000536176650042C6
:100550006F6F737400536C656570004465666175F8
:100560006C740053617665004164640044656C6599
:1005700074650052656E616D650043616C696272FD
:10058000617465004368616E6765005265747572D9
:100590006E0041626F7574004C616E67004C6F6352
:1005A0006B004C4F5720566F6C0042757A7A65721B
:1005B0000053637265656E00436F6E74726F6C00FA
:1005C00054696D65720054656D7000546970000067
:1005D000000000000F1DC20800054442080003840B
:1005E0005FBF000FE44410000115451000054CC921
:1005F0007F8009244F900007C4C11000054D413F82
:1006000000055443810007C44D0200054441140015
:10061000055541080007C8810400000000000000E3
:100620000000000001083FFE001FFF8100000040A5
:1006300002000007FE0FF800040208080004020888
:10064000880007FE08880004020888000402088861
:100650000007FE0888000402094800040202300076
:1006600007FE040C00040218040000000000000053
:100670000000000007FE13FE000402084000040210
:10068000084000040201FC0004023884000402084F
:10069000840007FE0FFF000402080000040209FEA8
:1006A00000040209020004020B020004020D020011
:1006B00007FE09FE00040201020000000000000025
:1006C0000000000001100080001FFF80800001106A
:1006D0003FFF00004004080007FC04080004440435
:1006E0001000044402100004440220001FFF812077
:1006F00000004000C00000A001300001100208000E
:10070000060C0C07001803B00200000000000000F7
:1007100000000000004000800000400080000FFF4B
:100720003FFF000841040800084104080008410494
:10073000100008410210000FFF02200008410120B4
:1007400000004000C00000400130000040020800EE
:1007500000400C07000040300200000000000000D4
:10076000000000001FDF10200002120C20000224F5
:10077000042000047F8020000424B820000FA488F7
:10078000500014BF88500004A488500004A4884876
:100790000004BF88880004A48A880007A48C840011
:1007A0000444890700008186020000000000000068
:1007B000000000000FF00491000440025200047F8A
:1007C000905400045088FF0007D084810004510039
:1007D0008100044901FF0007CA028100044404812A
:1007E00000044A1CFF0007EA0481000C5104810048
:1007F0000061C4850000408082000000000000000D
:100800000000000007FF802000008407FF00008434
:10081000040100008404010000840401000FFFC7EC
:10082000FF0000840400000084040000008405FF31
:100830000000840501000104090100010409010010
:10084000020411FF00040401010000000000000088
:1008500000000000008204FF00004402010007FFC6
:100860009021000010102100001017FD0000101052
:1008700021000FFFD06100001010A10000281121FD
:100880000000281221000044142100008210A10061
:100890000301D045000C00900200000000000000A1
:1008A00000000000084410FE00042810920005FF1C
:1008B00022920000103C920000100892001CFE10D2
:1008C0009200041020FE0004103E920005FF80926A
:1008D00000041000920005100E92000610309200E5
:1008E000041000FE00001000820000000000000064
:1008F0000000000007DF8840000A24104000114279
:1009000010FE00040022820002FF3D020008010ADE
:10091000420009F9103200090920120009F93E02CB
:1009200000090900020009090E020009F93022003D
:100930000805001400080200080000000000000084
:10094000000000000FC3F1E0000FE3F1F8000C70AD
:10095000C19E000C30C186000C30C183000C30C138
:1009600083000C60C183000C60C183000FC0C18391
:10097000000FC0C186000C00C186000C00C19800A9
:100980000C03F1F8000C03F1E0000000000000008F
:100990000000000000200820000FFF09FC000020DC
:1009A00008000000203E880003FE08500002020BF1
:1009B000FE0003FE0C4000020218400003FE2BFE66
:1009C00000020208480003FE0888000202085000E6
:1009D00002022830001FFF91CC000000000000013F
:1009E00004047C0000880444000FFF3F4400002002
:1009F00004440000200C440000200E44001FFF951A
:100A000044000020144400005024440000500444DA
:100A100000008804450001040485000603850300E6
:100A200018010400000000000000000000000000A9
:100A300000000000047E21FC0004421104001F7E1F
:100A4000090400044221FC000542110400067E1145
:100A500004000C0005FC0015FF880000040813FECC
:100A6000000448325200044F12520004481252004F
:100A700014A8125200091F97FF0000000000000098
:100A80000000000002103DFC0002102504000410CC
:100A900025040005FFBDFC000C102520000C3825A6
:100AA0002000143825FE0004543D20000454251075
:100AB0000004922510000511A5090006113D45000E
:100AC0000410258300041001010000000000000054
:100AD000000000001FC8102000124A0C20001AC994
:100AE00004200017480020001FFFB820000208085B
:100AF00050001FC8085000020808500003C80848EA
:100B0000001E1408880001540A880015220C840075
:100B10001443890700008106020000000000000263
:100B2000FE01000002823FFF00048202000004FE7A
:100B30000200000C1004FC00141004080005FF8CD7
:100B400010000410141000043825FF0004340410B1
:100B50000004520410000491841000051004500099
:100B6000041004200000000000000000000000004D
:100B70000000000002030010001FDC3EFE00089091
:100B8000021200051004FF001FDF84120002120C85
:100B9000FE001FD2021000021222FE000A92141060
:100BA000000A5214100012220DFF00022208100049
:100BB0000A42141000040223FF000000000000009D
:100BC000000000000F78BC20000948A45000094A2A
:100BD000A85000094AA88800094AB104001FFEAACB
:100BE000FB00094AA42000094AA42000094AA7FEE4
:100BF00000094AB420000948A924000B48A2220099
:100C0000088AA4A200111920400000000000000082
:100C1000000000000020008000005001FC0000885F
:100C2000010400010403080006FB0490000800C052
:100C3000600007DF018000045106000004511BFE24
:100C400000045102020007D9020200045602020009
:100C5000001003FE0000100202000000000000006F
:100C6000000000000208209000027F9890001F8082
:100C700009FF00022201100006218B100007628D7F
:100C8000FE000AA20910000A14111000121431FE0D
:100C900000020811100002141110000222111000AD
:100CA000024391FF000281110000000000000000DB
:100CB00000000000100700000008F83FFE0004805C
:100CC000200200008020020000BE23E2001C8222DD
:100CD000220004A42222000494222200048822225A
:100CE00000049423E20005222002000542200200B5
:100CF0000A003FFE0011FFA00200000000000000FB
:100D00000000000000820FFE00004400400007FFCA
:100D10008040000010004000001000400000101F44
:100D2000FF800FFFC040000010004000002800407E
:100D30000000280040000044004000008200400005
:100D40000301C140000C0080800000000000000989
:100D5000FF00400004203FFF00042000000000FED0
:100D60000000001C420FFC00044200000007FF804E
:100D7000000004000FFC0004FF00000004810000DC
:100D80000005810FFC00068108040004FF08040030
:100D900000810FFC000000000000000000000000C7
:100DA0000000000000401F7E001FFF840200108032
:100DB0008442000A4A0442000A3108420012C50F68
:100DC00042000304197F001DF829010000400901B9
:100DD00000084209FD00084209010008420F010015
:100DE0000FFE0905000002000200000000000000E4
:100DF0000000000001000FFE00010008200003FFBA
:100E00000820000201082000042208200008200B0E
:100E1000FE00102008200000500828000050082480
:100E20000000880822000088102000010410200023
:100E30000203A7FF000C01000000000000000000FA
:100E40000000000000400080001FFF9FFC000040E9
:100E50000410000FFF02200000003FFF000FFE0003
:100E6000000008420FF80008420808000FFE0808BA
:100E70000008020FF8000800080800080008080031
:100E800008000FF800100008080000000000000033
:100E90000000000007FE0FF800040200000004023A
:100EA00000000007FE00000004023FFE00040200F4
:100EB000800007FE008000009004900008910C88DC
:100EC00000069310860002942082000090008000AB
:100ED00000900280001FFF81000000000000000061
:100EE00000000000041012020005FF9FD200050060
:100EF0009212001E28A2120004443FF20004820253
:100F0000120006000212000CFE1FD2001410125232
:100F10000004101242000410134200041012820058
:100F200015FF820A00080002040000000000000013
:100F300000000000002000000000203E04001FFF11
:100F4000A204001000A2FF0000012204000FFE22F4
:100F5000040000403E4400004022240004402224BB
:100F600000047C22040004402204000A403E0400E5
:100F7000094022240010FF80140000000008000037
:100F80000000000010FE08200008820BFF00048211
:100F90000A010010FE3C51000882088800088209FE
:100FA000040002FE0C0000040019FC0009FF2820C8
:100FB0000019290820000929082000092908200013
:100FC00009292BFF000BFF9000000000000000002B
:100FD000000000001F7F90F80001080888000A1038
:100FE000088800047F0107001FC13A000005490975
:100FF000FC000449088400044908880004490848A2
:1010000000044908500004490A200004160C580046
:10101000142189870008C086020000000000001F1C
:10102000E03FF07038601860186018FFFCFCFCFCB2
:10103000FCFCFCF87CF87CFCFC7FF81E1033382D9F
:101040007C25382D3825382D386D80DEC0BF40BF57
:1010500040DEC061803F007FF0FFE0C008C01CC0E0
:1010600038C870DCE4CFCCC78CC30CC00CC00CFFFC
:10107000FC7FF8000006000C0018F838F0303070E3
:1010800060707878F878003C023F0C1FF80FF0038E
:10109000C000007FF8FFFCC00CC30CCB4CDB6CDB4A
:1010A0006CD86CDCECCFCCC78CC00CFFFC7FF80399
:1010B0000007800FC00CC01CE01CE03CF03CF07F3F
:1010C000F87FF8FCFCFCFCFFFC7FF811408200215B
:1010D000208FE023FC82004A23E200FE209FF013D1
:1010E000F880802220C0804221BFF0FBFA88800275
:1010F000208480022084801A208080E3FE82800287
:101100000101000F421FC078411040084090400884
:10111000421FC008411040FFFD104008405FC0085A
:1011200040800008413FE008432520104125201061
:101130004125202041252040417FF07FF848800252
:101140000049000201FFF00201001002027F20228C
:1011500000410023F07F00220008002200FF8022CF
:101160000088802200888022008A8022008900FF77
:10117000FC080023F21FC022111040FBF090402217
:10118000121FC02A11104033F1104060005FC0AF41
:10119000FC800020413FE0224325202279252022A7
:1011A000412520A541252048FD7FF01083DFC01098
:1011B000825040208250402FFFDFC0608252006189
:1011C000C25200A1C25FE022A3D20022A251002499
:1011D000925100288E5090308BD45020825830206D
:1011E000801010104047C017FC44402003F44023F7
:1011F000F844406208C440A3F8E440200154402F62
:10120000FD44402806444023F844402040445020F8
:10121000404850214050302080400020921FC03D67
:10122000F990402090904040901FC07BFF0000A0AC
:10123000013FE021F90200FD09020021097FF021B0
:10124000F90500210945002909888031F91070212C
:1012500008202025004300202070F8754077557540
:101260007740403E4A5E2B5E4A6B627F352F357F6A
:101270007C5B5E247B0E3A047E017E4A5E69063A00
:101280002F3F6B7E46403F41497F494102626B6B75
:101290006B62026A6B147D577D10413F55553D5777
:1012A00051213F2D7F2A122E0A775A505A770A2051
:1012B00024137D5553707A2A7B021A437A4A525E70
:1012C0002B5E424A415F353F555F417D14577D0E8D
:1012D000407F7F1B54167D1654493A407E57567600
:1012E000423F427E7E427E047E51377D3750127AE5
:1012F0001752761E127F557F145D7F557F557F7F75
:10130000553D577F55377817457F7F2B7B287B2BA3
:101310007F1E12127F12121E7F416B7F6B517F5214
:101320005A573A575A52007F494949497F22122A4F
:101330007F2A1222166A5E735662160937315F15CC
:101340005F7500000000002F000300033F123F16EE
:101350003F1A120824323D2A020100003E41413E5C
:10136000000A070A083E084020000808080020007C
:101370001008041C2A1C243E20322A24222A141875
:10138000143E2E2A121C2A12023A06142A14242A67
:101390001C002400402400081422141414221408F1
:1013A00002290612291E3E093E3F251A1E21213F11
:1013B000211E3F25213F05011E21393F083F213FC6
:1013C0002110201F3F043B3F20203F063F3F013EAE
:1013D0001E211E3F09061E215E3F093622251901E6
:1013E0003F013F203F3F100F3F183F330C33033C7A
:1013F00003312D23007F41153E15417F000201027C
:1014000040404000010218243C3F241818242418AE
:10141000243F182C2C043F0548543C3F0438003D21
:1014200000403D003F0834013F003C1C383C04387C
:101430001824187C241818247C3C0804283C140424
:101440003E243C203C3C100C3C303C2418244C50A6
:101450003C24342C083641007F004136080101014C
:101460001028101F010120203E1020000008002538
:10147000150F241C0C103804180C3828382828188C
:101480003C083C18283820242C3C2C2C1C04080830
:10149000211D07083C0306231E223E22120A3F326A
:1014A0000F3E0A3F0A24130E271E0222223E271255
:1014B0000F2525102119273F222E21160F241B0E40
:1014C000251F0526261E251D053F0408241F042070
:1014D0002222251927123B1620100F3C013E1F2403
:1014E0002421110F0C031C1A3F1A091927222A2A3A
:1014F000382730320C13053F25023F0E213F2025AF
:10150000253F25251D07201F3C3F203F20103E2260
:101510003E23110F212118010001020502000000E5
:1015200000000000002040000000000000205020CB
:10153000000000000050300000000000006060006B
:101540000000000000000018180000000000003635
:1015500036000000000000563600000000000201C6
:1015600051090906000000005F00000000000000B3
:10157000007F41410041417F000000000000000069
:101580003F010101004040407E0000000000003F9C
:10159000213D05070070505E427E00000000000003
:1015A000007F63410041637F0000000000080808DD
:1015B0007F08080800080808080808080044444490
:1015C0005F444444004122140814224100080808E2
:1015D0002A080808001414141414141400143414E1
:1015E0001C141614000808141414222200222214B9
:1015F00014140808000205023C42422400002B2C6F
:10160000782C2B000000242A7A2F2A1200001C625A
:10161000322E23140020545E254142200042251220
:10162000082452210020623E633E230200205649D6
:1016300055225840000022147F142200001C225919
:10164000554D120C0000004A555529000004643C19
:10165000173C64040004643C1F3C6404001C2241E9
:101660004141221C001C3E7F7F7F3E1C001C225DEE
:10167000555D221C000814224122140800081C3E5B
:101680007F3E1C08007F41414141417F007F7F7FB9
:101690007F7F7F7F0040704C434C70400040707CE7
:1016A0007F7C704000010719611907010001071FC5
:1016B0007F1F07010049221449142249000505052E
:1016C0007D05050500080808082A1C0800081C2AD2
:1016D00008080808000004027F020400000010202F
:1016E0007F20100000003E414141413E0000004289
:1016F0007F400000000062515149494600002241EC
:10170000494949360000302824227F2000002F4517
:101710004545453900003E4949494932000001012B
:101720006119050300003649494949360000264938
:101730004949493E000020547E3414600020527F05
:101740002A1A4A3000003C4020041800001E2040A5
:10175000200204180000104A4A2A10000000084520
:10176000454525180000482A3A4A40000000442513
:10177000153D45400000247E145024000022527F75
:101780000A484A340044344F443804180044344F63
:101790004439041900002A5A4B4E5A0800002A5AAC
:1017A0004B4E5B080000081414224100000008148E
:1017B00014224504003F0004443F0404003F000499
:1017C000443F0405000020524242424000002052A3
:1017D000424342410000245444475C040000245426
:1017E00044475C050000003F404040200000003FAF
:1017F000404140210002020A563F02020002020A52
:10180000563F02030004043F44545F440004043F75
:1018100044545F45000008093D4B49080000080991
:101820003D4B490A00423A072254444400423A07D9
:1018300022554445000002124E4B4A32000002126B
:101840004E4B4A3300001010484830000004040298
:101850002222221C000404022223221D0000020274
:101860001A254341000002021A2543450000205773
:1018700048484444000020574849444500120A277C
:1018800052503A24007F00205242424000304E38ED
:10189000540F64780024147F0422523C0018241250
:1018A0004E422418007F002454543F44007F0024FB
:1018B00054543F45007F002454563D4600023A47A9
:1018C00040413E0400023A4740413E0500023A478B
:1018D00040433D06004030404D32106000403040F3
:1018E0004D321161004030404D3215620008040253
:1018F0000408101000080402040910110008040272
:10190000040A1512007F006A6A7E2A4A007F006A74
:101910006A7F2A4B007F006A6A7E2D4A00006A6A4D
:101920006A7F2A4A0030291D4B483C1000122A7F4A
:101930004240422400304E38540F443800000A3EE2
:101940004B4A4A300000080E384614080004071CB1
:1019500062030A0400001C483E241800001E0452C2
:101960003F12120C00002050503E48000000205052
:10197000503F244400001C51494A483000000F42A7
:1019800041211E00000010696D4B49300024147F76
:1019900004023E40000010494D4B49300000281819
:1019A0007E0844380024147F0442423C003049251C
:1019B0001F245438004028255735284000100A2E8F
:1019C0005B724A480040300C334040200000044421
:1019D0003C140C00000001413D09050300002020DB
:1019E0001078040000001010087C02010000184864
:1019F0004C281800000006424322120E0000404806
:101A000078484000002022223E2222200000282880
:101A1000587C0800002222124A7F02020000422263
:101A20001F02427E000042221F02427F000012126B
:101A30001F721210000012121F72131000000844CF
:101A40004322120E000008444322120F00080742EE
:101A5000221E020200080742221F02030000424227
:101A60004242427E000042424243427F0002024F15
:101A700042221F020002024F42231E030000454A79
:101A80004020100C0000454A4021100D0040422229
:101A9000221A264000404222221B26410004043F15
:101AA0004444544C0004043F4445544D0000014656
:101AB0004020100F000001464020110F0000084494
:101AC0004B2A120E000008444B2A120F00080A4A43
:101AD0003E09090800080A4A3E09080900001840A2
:101AE0005820180000020C424C20100E00020C423C
:101AF0004C21100D000405453D0505040004054575
:101B00003D0504050000007F080810000000007F6C
:101B100008091001000444241F04040400202222A8
:101B200022222220004041251519270000202212E0
:101B30007B06122000404020100807000040300EB5
:101B400000020C700040300E00020D710040300E9B
:101B500000020D7200003F484848444400003F48DE
:101B60004849444500003F48484A45460000024273
:101B70004222120E000002424223120F00000242D3
:101B80004222150E00080402040810200008040276
:101B90000409102100080402040A15220024144438
:101BA0007F041424002414447F05142500241444C5
:101BB0007F0615220002021222520A060000212589
:101BC000294A42000040704C4350204000404424C9
:101BD00014083700000008093F4949480000101C5C
:101BE000680818000004040F74020A060000404848
:101BF0004878400000202222223E2020000000449D
:101C000054547C000000424A4A4A4A7E000004457F
:101C10004525150C00000F4040201F000040201EED
:101C2000007F20100000007F4020100800007E424E
:101C30004242427E00000C4444241C000000064244
:101C40004222120E0010121E12127F1200202222B7
:101C50003A262220000001454525150F000041428B
:101C60004020100C000006424322120F00004828BA
:101C70001C4878000000100C4838080000080404D4
:101C800008101008000800000800000800040808F8
:101C900008080808000808080808080808060505D4
:101CA0000706040903030504090A080303030603DE
:101CB00005030305050306040405050405040403E0
:101CC00004090503CB05C605C005B805B105AA057D
:101CD000A2059D05980592058B0584057A05730577
:101CE0006C05680563055B0555054F054A05440508
:101CF00040053A0535052E052A05260520051C0553
:101D00001905160512050F050C050905FD04F80453
:101D1000F3043E0053656C656374205469700000E1
:101D2000000000003E5B4F5B3E3E6B4F6B3E1C3E37
:101D30007C3E1C183C7E3C181C577D571C1C5E7F4B
:101D40005E1C00183C1800FFE7C3E7FF00182418CA
:101D500000FFE7DBE7FF30483A060E2629792926FF
:101D6000407F050507407F05253F5A3CE73C5A7FE9
:101D70003E1C1C08081C1C3E7F14227F22145F5F3F
:101D8000005F5F06097F017F006689956A60606079
:101D9000606094A2FFA29408047E040810207E20B4
:101DA0001008082A1C08081C2A08081E1010101009
:101DB0000C1E0C1E0C30383E3830060E3E0E06004F
:101DC0000000000000005F00000007000700147F13
:101DD000147F14242A7F2A1223130864623649567A
:101DE00020500008070300001C2241000041221C73
:101DF000002A1C7F1C2A08083E080800807030005A
:101E00000808080808000060600020100804023E6E
:101E10005149453E00427F400072494949462141AF
:101E2000494D331814127F1027454545393C4A491E
:101E3000493141211109073649494936464949295D
:101E40001E0000140000004034000000081422416D
:101E50001414141414004122140802015909063EF6
:101E6000415D594E7C1211127C7F494949363E41F1
:101E70004141227F4141413E7F494949417F090912
:101E800009013E414151737F0808087F00417F41AD
:101E9000002040413F017F081422417F40404040E4
:101EA0007F021C027F7F0408107F3E4141413E7F3C
:101EB000090909063E4151215E7F09192946264933
:101EC00049493203017F01033F4040403F1F20400A
:101ED000201F3F4038403F63140814630304780414
:101EE000036159494D43007F4141410204081020DC
:101EF000004141417F040201020440404040400053
:101F00000307080020545478407F2844443838445C
:101F1000444428384444287F385454541800087ED8
:101F2000090218A4A49C787F0804047800447D402A
:101F3000002040403D007F1028440000417F4000C9
:101F40007C047804787C080404783844444438FCE1
:101F50001824241818242418FC7C08040408485465
:101F600054542404043F44243C4040207C1C204022
:101F7000201C3C4030403C44281028444C90909019
:101F80007C4464544C440008364100000077000053
:101F9000004136080002010204023C2623263C1EB2
:101FA000A1A161123A4040207A3854545559215524
:101FB0005579412154547841215554784020545545
:101FC00079400C1E52721239555555593954545492
:101FD0005939555454580000457C410002457D4212
:101FE0000001457C40F0292429F0F0282528F07CC8
:101FF000545545002054547C547C0A097F49324989
:102000004949323248484832324A4848303A4141D8
:10201000217A3A42402078009DA0A07D3944444472
:10202000393D4040403D3C24FF2424487E494366DE
:102030002B2FFC2F2BFF0929F620C0887E090320B7
:10204000545479410000447D413048484A32384078
:1020500040227A007A0A0A727D0D19317D262929DB
:102060002F28262929292630484D402038080808DD
:102070000808080808382F10C8ACBA2F102834FAFE
:1020800000007B000008142A142222142A14089548
:1020900000220095AA005500AAAA55AA55AA000038
:1020A00000FF00101010FF00141414FF001010FFA8
:1020B00000FF1010F010F0141414FC001414F700BA
:1020C000FF0000FF00FF1414F404FC141417101F89
:1020D00010101F101F1414141F00101010F0000017
:1020E00000001F101010101F10101010F010000032
:1020F00000FF101010101010101010FF1000000042
:10210000FF140000FF00FF00001F10170000FC0478
:10211000F414141710171414F404F40000FF00F75B
:1021200014141414141414F700F7141414171410BE
:10213000101F101F141414F4141010F010F00000ED
:102140001F101F0000001F14000000FC140000F00E
:1021500010F01010FF10FF141414FF141010101FB3
:1021600000000000F010FFFFFFFFFFF0F0F0F0F0C4
:10217000FFFFFF0000000000FFFF0F0F0F0F0F38E1
:10218000444438447C2A2A3E147E02020606027E1B
:10219000027E0263554941633844443C04407E203A
:1021A0001E2006027E020299A5E7A5991C2A492A4B
:1021B0001C4C7201724C304A4D4D303048784830DA
:1021C000BC625A463D3E494949007E0101017E2AD2
:1021D0002A2A2A2A44445F444440514A4440404405
:1021E0004A51400000FF0103E080FF000008086B37
:1021F0006B083612362436060F090F060000181831
:102200000000001010003040FF0101001F01011EFE
:1022100000191D1712003C3C3C3C0000000000AEC1
:10222000D5F0A83FD300408D14A1C8DA1281CFD9D0
:10223000F1DB40A4A6AF200021007F220007506CF4
:10224000656173652077616974004144433A2000F9
:1022500074656D703A2000536574206D6561737507
:1022600072656400537465703A2000FFFFFFFFFF42
:10227000FF8003867080038003867080039FF3E1F4
:10228000309FF39FF3E1309FF3983301CC9833985C
:102290003301CC9833983387C098339833E1C09892
:1022A000339833E1C098339FF398C09FF39FF3981E
:1022B000C09FF3800366CC8003800366CC8003FF5D
:1022C000FF010CFFFFFFFF01001FFF810061301FB6
:1022D0003F873CE6FC8733873CE6FC87F3F8039EA8
:1022E0000F1F03F8039E0F1F03E13CFE0C07CFE115
:1022F0003CFE0C07CF99033E3086C3E6CF380F9ED5
:10230000F3E6CF380F9EF39E0327CC81039E03276D
:10231000CC8103E0FFE10CE6CFE0FFE10CE6CF98D3
:1023200003060000FF9803060000FFFFFF1EF0F801
:10233000038003663099C38003663099C39FF3011D
:102340000CF8FF9FF3010CF8FF9833393C01CF984C
:1023500033393C01CF9833FF0C793F98333ECCE0C2
:10236000F398333ECCE0F39FF33E0098CF9FF33ECB
:102370000098CF80033E30E7C380033E30E7C3FFC1
:10238000FFFFFFFFFFFFFFFFFFFFFF303030007652
:10239000312E372B005600560043000FE01FC01FA0
:1023A000C03F803FF87FF07FE007C007800F000E3E
:1023B000001C001800100014A03FF07FF8E01C6E15
:1023C00018EC1C68186018E01C6058E01C7FF83F8F
:1023D000F014A04552524F5200484F4C440048451B
:1023E000415400574F524B5900424F4F53540053E2
:1023F0004C454550004F46460000003BEC7BEE63E9
:10240000E663E663E663E663E663E66366622660C8
:102410000660067FFE3FFC0000000000002400274D
:10242000002A0000000000250028002B000000000A
:102430000023002600290004040404040404040208
:102440000202020202030303030303010204081051
:10245000204080010204081020010204081020001E
:102460000000080002010000030407000000000053
:102470000000000102040810204080005D34112497
:102480001FBECFEFD8E0DEBFCDBF12E0A0E0B1E0CD
:10249000E4EEF4E702C005900D92A03BB107D9F736
:1024A00027E0A0EBB2E001C01D92AC36B207E1F725
:1024B00012E1CFE3D2E104C02197FE010E94653A08
:1024C000CE33D107C9F70E944D280C94703A0C9472
:1024D00000004F925F926F927F928F929F92AF9285
:1024E000BF92CF92DF92EF92FF920F931F93CF9301
:1024F000DF9300D000D0CDB7DEB74B015C012901DE
:102500003A016701780120E030E0A9010E947736A6
:1025100087FDA6C020E030E0A901C301B2010E94FE
:10252000773687FD9DC020E030E0A901C801B601E3
:102530000E94773687FD94C081E020914A07309150
:102540004B072130310509F080E080936B078092C2
:10255000300790923107A0923207B0923307409231
:102560003407509235076092360770923707C09251
:102570003807D0923907E0923A07F0923B07609112
:102580005E0770915F0780916007909161070E94DC
:10259000243720E030E04AE754E40E947C36698327
:1025A0007A838B839C8380923C0790923D07A09214
:1025B0003E07B0923F079B01AC01C301B2010E94EC
:1025C000DB372B013C01409240075092410760925B
:1025D00042077092430729813A814B815C81C70190
:1025E000B6010E947C366B017C01C0924407D092F8
:1025F0004507E0924607F09247078091480790917F
:102600004907019769F5A501940160E070E0CB01ED
:102610000E940A3660933C0770933D0780933E0703
:1026200090933F07A301920160E070E0CB010E940C
:102630000A36609340077093410780934207909356
:102640004307A701960160E070E0CB010E940A36C3
:10265000609344077093450780934607909347071C
:102660000F900F900F900F90DF91CF911F910F91CE
:10267000FF90EF90DF90CF90BF90AF909F908F90A2
:102680007F906F905F904F90089580389105B0F4DF
:102690006034710598F4E3E7F4E290E1969FD0018D
:1026A000A0781124A80F6770E60FF11D9491A45E25
:1026B000BC4F442321F08C91982B9C9308959095C6
:1026C0008C919823FACFDF92EF92FF920F931F9392
:1026D000CF93DF937C01D22E8B01040F111DEB01F0
:1026E00077FF02C0D0E0C0E0C8010134110514F04A
:1026F00080E490E0C817D9073CF44D2DBE01C70116
:102700000E9445132196F0CFDF91CF911F910F9139
:10271000FF90EF90DF900895CF92DF92EF92FF92BB
:102720000F931F93CF93DF936B01122FEC017C016A
:10273000E40EF11CCE15DF0544F4202F412FB60125
:10274000CE010E9463132196F5CFDF91CF911F91A7
:102750000F91FF90EF90DF90CF9008952F923F92CE
:102760004F925F926F927F928F929F92AF92BF92A1
:10277000CF92DF92EF92FF920F931F93CF93DF934D
:1027800000D01F92CDB7DEB7C22ED12C9601280FF4
:10279000391F37FD4FC0803891050CF04BC0E982DE
:1027A0004A017B013C01402E512C160127E0220EEC
:1027B000311C93E0359427949A95E1F78B01B12C65
:1027C000A12C1B821A82EA81FB8183E0F595E795B3
:1027D0008A95E1F7EA0DFB1DE80DF91DE4918A8168
:1027E0009B818770992720E830E002C035952795B6
:1027F0008A95E2F7C901F0E0E223F923EF2B41F0DB
:102800004981B8018A819B81860D971D0E944513DD
:102810008A819B8101969B838A838C159D059CF2FE
:10282000A20CB31C0F5F1F4FC8018E199F0984159E
:1028300095053CF20F900F900F90DF91CF911F9173
:102840000F91FF90EF90DF90CF90BF90AF909F904F
:102850008F907F906F905F904F903F902F90089552
:102860000F931F93CF93DF93EC018B0140E0019610
:102870000E94451340E0B801CE0101970E94451324
:10288000B8016F5F7F4F40E0CE010E944513B80151
:102890006150710940E0CE010E94451340E0B8014B
:1028A000CE01DF91CF911F910F910C94451380E0E1
:1028B000ECE1F3E081118FEF002481938193819308
:1028C00081930394D1F7ECE1F7E01786168615861D
:1028D000148608956F927F928F929F92AF92BF92CB
:1028E000CF92DF92EF92FF920F931F93CF93DF93DC
:1028F000803891050CF057C0603471050CF053C05E
:102900007B0137E0E322FF2433E0759567953A9524
:10291000E1F7DB01B695BA2FAA27B795A7955D0118
:10292000C0E8AC0EB11CA80EB91EA80FB91FA45E5A
:10293000BC4F00E810E0081B190B90E080E0E8E0D5
:10294000F0E04F018E189F0830E0FA01E80FF91F00
:10295000C4917D906D01D1E0CD1AD1080E2C01C03B
:10296000CC0F0A94EAF77C2AE6017882E114F1049C
:1029700099F06730710581F0E491EC01CA0DDB1D1F
:10298000C45EDC4FF0E0082C02C0F595E7950A9490
:10299000E2F7F881EF2BE8830196821793071CF486
:1029A0000817190791F6DF91CF911F910F91FF90B2
:1029B000EF90DF90CF90BF90AF909F908F907F90DF
:1029C0006F900895833081F028F4813099F082303F
:1029D000A9F008958730A9F08830C9F08430B1F4A7
:1029E000809180008F7D03C0809180008F778093DD
:1029F0008000089584B58F7784BD089584B58F7D58
:102A0000FBCF8091B0008F778093B00008958091C4
:102A1000B0008F7DF9CFCF93DF93282F30E0F901FD
:102A2000E15AFB4D8491F901E55BFB4DD491F9012D
:102A3000E95CFB4DC491CC23A1F081110E94E2140A
:102A4000EC2FF0E0EE0FFF1FE35DFB4DA591B4917D
:102A5000EC91ED2381E090E009F480E0DF91CF91EB
:102A6000089580E090E0FACF1F93CF93DF93282F53
:102A700030E0F901E15AFB4D8491F901E55BFB4D32
:102A8000D491F901E95CFB4DC491CC23A9F0162F38
:102A900081110E94E214EC2FF0E0EE0FFF1FED5DBC
:102AA000FB4DA591B4918FB7F894EC91111108C02A
:102AB000D095DE23DC938FBFDF91CF911F910895D6
:102AC000DE2BF8CFCF93DF9390E0FC01E55BFB4D6D
:102AD0002491895C9B4DFC0184918823C9F090E08E
:102AE000880F991FFC01E75EFB4DA591B491FC0195
:102AF000ED5DFB4DC591D49161110DC09FB7F89468
:102B00008C91209582238C938881282328839FBFD2
:102B1000DF91CF910895623051F49FB7F8943C91C2
:102B2000822F809583238C93E8812E2BEFCF8FB754
:102B3000F894EC912E2B2C938FBFEACF1F93CF9359
:102B4000DF93182FEB0161E00E946215209739F4A2
:102B500060E0812FDF91CF911F910C943415CF3F0E
:102B6000D10511F461E0F5CFE12FF0E0E15AFB4D22
:102B7000E491E33031F140F4E130B1F0E230E1F0E2
:102B8000C038D1057CF7E4CFE73029F1E83059F1BE
:102B9000E430B1F780918000806280938000D09310
:102BA0008B00C0938A0004C084B5806884BDC7BD13
:102BB000DF91CF911F91089584B5806284BDC8BD17
:102BC000F7CF80918000806880938000D093890047
:102BD000C0938800EDCF8091B00080688093B000F2
:102BE000C093B300E5CF8091B00080628093B000C5
:102BF000C093B400DDCF3FB7F8948091100390915B
:102C00001103A0911203B091130326B5A89B05C030
:102C10002F3F19F00196A11DB11D3FBFBA2FA92F5B
:102C2000982F8827BC01CD01620F711D811D911D58
:102C300042E0660F771F881F991F4A95D1F70895C4
:102C40008F929F92AF92BF92CF92DF92EF92FF92BC
:102C50004B015C010E94FB156B017C010E94FB157E
:102C60006C197D098E099F09683E734081059105A5
:102C7000A8F321E0821A9108A108B10888EEC80ED5
:102C800083E0D81EE11CF11C81149104A104B1045D
:102C900029F7FF90EF90DF90CF90BF90AF909F907B
:102CA0008F9008952FB7F89460910C0370910D03E5
:102CB00080910E0390910F032FBF0895AF92BF92A2
:102CC000CF92DF92EF92FF920F931F93CF93DF93F8
:102CD0006C017B018B01040F151FEB015E01AE1827
:102CE000BF08C017D10759F06991D601ED91FC9149
:102CF0000190F081E02DC6010995892B79F7C50176
:102D0000DF91CF911F910F91FF90EF90DF90CF90C7
:102D1000BF90AF90089584E98093BC008091BC007F
:102D200084FDFCCF08958093BB0084E88093BC00B1
:102D30008091BC0087FFFCCF089584EA8093BC009B
:102D40008091BC0087FFFCCF88E70C9493160E940B
:102D50009D1680E48093BB0084E88093BC00ECE186
:102D6000F3E09091BC0097FFFCCF91919093BB0052
:102D70008093BC0097E0EC31F90799F78091BC0093
:102D800087FFFCCF0C948B16CF93C82F0E949D1603
:102D900080E00E9493168C2F0E949316CF910C9482
:102DA0008B16480F592F511D4138510514F040E83A
:102DB00050E0481BFB0177FD379633E0F595E7952A
:102DC0003A95E1F7F695FE2FEE27F795E795E80F90
:102DD000F91FE45EFC4F6770772781E090E001C047
:102DE000880F6A95EAF7382F213041F4415078F086
:102DF0008191DF011197832B8C93F8CF80954150FF
:102E000030F09191DF01119798239C93F8CF0895AA
:102E1000CF92DF92EF92FF920F93CF93DF936C01EB
:102E20007B01C42FD22F202F0E94D116B7016D0F26
:102E3000711D61507109603471052CF4202F4C2FE5
:102E4000C6010E94D116202F4D2FB701C6010E9446
:102E50006313C6018C0F911D202F4D2FB7010197D1
:102E6000DF91CF910F91FF90EF90DF90CF900C9476
:102E700063132F923F924F925F926F927F928F9245
:102E80009F92AF92BF92CF92DF92EF92FF920F93F9
:102E90001F93CF93DF93CDB7DEB72A970FB6F89481
:102EA000DEBF0FBECDBF9A8389836A3061F5DC0136
:102EB00052968C91B8E08B9F90011124E981FA81A0
:102EC00086859785820F931F978786871586148638
:102ED00081E090E02A960FB6F894DEBF0FBECDBF1A
:102EE000DF91CF911F910F91FF90EF90DF90CF90E6
:102EF000BF90AF909F908F907F906F905F904F901A
:102F00003F902F9008956D3019F329813A813A87C7
:102F10002987D9011C96AD90BC90B0E8AB16B104DE
:102F20000CF07BC0F901C684D784F0E4CF16D1043D
:102F30000CF073C0D90152966C90529745E0950100
:102F4000649E200D311D1124121613060CF065C06D
:102F5000262C312C910153E0220F331F5A95E1F7B3
:102F60002C0D3D1D121613060CF057C05196BC9146
:102F7000BB83E985FA85F089FC83649FB001112445
:102F80009B01215E324E3A832983712CE981FA81BB
:102F90008491F5E07F1201C080E0460138E0532EB5
:102FA000282F30E03E832D834C8080FF4B804110E2
:102FB00004C03B818C813817E1F010E000E0061579
:102FC000C0F4D501A00FB11FB887AF83F12CE12C5D
:102FD000E61460F4B701680D791D442D8F81988542
:102FE0000E944513BFEFEB1AFB0AF2CF0F5F1F4F92
:102FF000E6CF8D819E81959587955A94820C931C7E
:103000005110CECF7394E981FA813196FA83E98326
:10301000A20CB31CF6E07F12B9CFA985BA855296EF
:103020002C915297422F50E01C968D919C91B6E0C6
:103030002B9F800D911D1124E985FA859587848742
:103040002389222309F444CF6AEF64039001659F2A
:10305000300D112420583F4F281739070CF038CF76
:10306000DF010190F081E02D0190F081E02D6AE018
:10307000CD0109952DCF0F931F93CF93DF938C0133
:10308000D0E0C0E0F801EC0FFD1F6491662341F031
:103090008CE197E00E943917892B11F02196F2CF2D
:1030A000CE01DF91CF911F910F910895682F8CE190
:1030B00097E00C943917089590E080E0089580918E
:1030C000D802882369F086E00E940B15892B41F015
:1030D0006AE070E080E090E00E9420161092D80232
:1030E00008956F927F928F929F92AF92BF92CF92EC
:1030F000DF92EF92FF920F93CF93DF937C01C62F65
:1031000001E020E340E370E060E00E948C1357018F
:1031100023E0A20EB11C00E02AE24AE263E070E084
:10312000C5010E948C1370E060E0C7010E9430145A
:1031300067013FE2C30ED11C70E060E0C6010E944F
:1031400030146FE270E0C7010E9430146FE270E04B
:10315000C6010E943014EC2FF0E0EE0FFF1FE15784
:10316000FE4F8080918053E0E52EF12CD12CC12CB4
:1031700060E8662E712CD0E0C0E0FE0133E0F595EA
:10318000E7953A95E1F7EC0DFD1DE80DF91DE49189
:10319000CE0187709927930102C0359527958A95AE
:1031A000E2F7C901F0E0E223F923EF2B69F0CE0149
:1031B000880F991F8C0F9D1F01E023E043E0B701AA
:1031C0008A0D9B1D0E948C132196CE30D105A9F645
:1031D00032E0C30ED11C83E0E80EF11C2DE2E216B2
:1031E000F10449F6DF91CF910F91FF90EF90DF90BE
:1031F000CF90BF90AF909F908F907F906F900895E9
:103200000F931F93CF9380914D01882399F0CFEFB7
:103210000FEE11E061E085E00E943415C8010197CE
:10322000F1F760E085E00E943415C8010197F1F7DD
:10323000C15081F7CF911F910F9108952F923F9226
:103240004F925F926F927F928F929F92AF92BF92B6
:10325000CF92DF92EF92FF920F931F93CF93DF9362
:1032600010E000E0D0E0C0E03EE3E32EF12C40ECC3
:10327000C42ED12CAA24A394B12C60E2662E712C0A
:1032800070E4272E312C4C2E86E00E940B1521E095
:10329000892B09F020E02093D802F0921B03E092E2
:1032A0001A03D0921903C0921803B0921703A09288
:1032B000160382E890E090931503809314038091A5
:1032C00014039091150395958795582E9FE15912F7
:1032D00043C0F0921B03E0921A03D0921903C092EC
:1032E0001803B0921703A0921603EEEBF0E0F093F0
:1032F0001503E09314039FE5592E0E94571482E0B2
:1033000080932E071093290700932807E0E3F0E04D
:10331000F0932B07E0932A078EE50E94561810922F
:1033200029071092280770922B0760922A07912C88
:10333000812C841438F580910103F40196E0989F64
:10334000E00DF11D1124E15BFE4F80810E945618B3
:10335000EFEF8E1A9E0AEDCFF0E65F12CECFF0921D
:103360001B03E0921A03D0921903C0921803B09283
:103370001703A0921603309215032092140380E2E3
:10338000582EBBCF109329070093280770922B0764
:1033900060922A07852D0E9456180E945F180E948D
:1033A000A71686E00E940B15892B09F088CF809123
:1033B000D802811184CF80900103F6E08F9E4001F6
:1033C0001124C401815B9E4F4C01FC01EC0FFD1FD9
:1033D00050820E9400196AE070E080E090E00E9454
:1033E00020162196005F1F4FC530D10509F04BCF45
:1033F000F4011582DF91CF911F910F91FF90EF9013
:10340000DF90CF90BF90AF909F908F907F906F9004
:103410005F904F903F902F9008953F924F925F9210
:103420006F927F928F929F92AF92BF92CF92DF92D4
:10343000EF92FF920F931F93CF93DF93CDB7DEB739
:103440002E970FB6F894DEBF0FBECDBF8091080354
:10345000882309F4A5C11092EF021092F002109295
:10346000F1021092F2028090EF029090F002A09090
:10347000F102B090F202C090EA02D090EB02E0902C
:10348000EC02F090ED02A7019601C501B4010E9483
:103490000A362B013C0120E030E0A9010E94D6371A
:1034A00018160CF0A0C1C301B2010E94F53680913C
:1034B0004801882309F4B8C1C092C802D092C90259
:1034C000E092CA02F092CB02E12CF12C00EA10E467
:1034D00020E030E040E450E46E31710540F0E12C32
:1034E000F12C00E81FE320E030E040E05FE360E023
:1034F00070E080E391E40E94691280916A0788235A
:1035000009F42AC10E9452166D837E838F839887A7
:103510008091520790915307A0915407B09155079D
:103520004D815E816F817885481B590B6A0B7B0B3F
:1035300080915E0790915F07A0916007B09161074D
:10354000481759076A077B0708F406C1E0914C0742
:10355000F0914D0780819181A281B38189839A8303
:10356000AB83BC83E0915007F09151079C01AD0102
:1035700060817181828193810E940A364B015C01D6
:1035800020915A0730915B0740915C0750915D078D
:1035900069817A818B819C810E940A366B017C0152
:1035A00020914007309141074091420750914307D5
:1035B000C501B4010E94DB372091560730915707AF
:1035C00040915807509159070E940B362B013C013E
:1035D00040925607509257076092580770925907C9
:1035E00030906B0731101AC020913C0730913D0795
:1035F00040913E0750913F07C701B6010E94DB375B
:103600009B01AC01C301B2010E940A3660935607C8
:103610007093570780935807909359074090560727
:10362000509057076090580770905907109166079F
:10363000909167079E87A0916807AD870091690701
:10364000212F392F4A2F502FC301B2010E94D637A4
:1036500018160CF0CCC0812F9E85AD85B02F8093BD
:10366000560790935707A0935807B09359073320F4
:1036700009F4D6C020913C0730913D0740913E07A8
:1036800050913F07C501B4010E94DB374B015C013B
:1036900020914407309145074091460750914707D4
:1036A000C701B6010E94DB379B01AC016091560750
:1036B0007091570780915807909159070E940A36D8
:1036C000A50194010E940B366B017C019B01AC01AA
:1036D000612F7E858D85902F0E94773687FD18C0DB
:1036E00010916207909163079E87A0916407AD8750
:1036F00000916507212F392F4A2F502FB601C7019E
:103700000E94773687FD04C01C2DDE86ED860F2DC6
:10371000E0914E07F0914F07812F9E85AD85B02F28
:1037200080839183A283B38389819A81AB81BC8199
:1037300080935A0790935B07A0935C07B0935D0753
:103740008D819E81AF81B8858093520790935307F6
:10375000A0935407B093550760910203709103033F
:1037600080910403909105030E94EE3689E02E9625
:103770000FB6F894DEBF0FBECDBFDF91CF911F9182
:103780000F91FF90EF90DF90CF90BF90AF909F9000
:103790008F907F906F905F904F903F900C949E150C
:1037A00080910703609144017091450181110EC021
:1037B0008091E8029091E90220910603BC01222346
:1037C00029F060914301680F792F711D90E080E02E
:1037D0000E9424376093EF027093F0028093F1020D
:1037E0009093F20240CEC301B20190585ECE809118
:1037F000620790916307A0916407B091650789877C
:103800009A87AB87BC879C01AD01C301B2010E94BE
:10381000773687FF2CCF89859A85AB85BC851FCFEE
:10382000812C912C540134CF20E030E040E05FE364
:10383000C701B6010E940B369B01AC01C501B40162
:103840000E94D63718164CF410920203109203030C
:1038500010920403109205037FCF80E090E0AFE761
:10386000B3E48093020390930303A0930403B09303
:10387000050372CF4F925F926F927F928F929F92C9
:10388000AF92BF92CF92DF92EF92FF92CF93DF93EE
:103890008090D1029090D202A090D302B090D40236
:1038A000C0910103D0E0C501B4010E94EE366B0166
:1038B0007C0120E030E048E453E4C501B4010E94FB
:1038C000773693E0CC0FDD1F9A95E1F7CE5FDE4FA0
:1038D00087FF31C02881398150E040E0255131090E
:1038E00041095109C701B6010E942D3A28EC30E088
:1038F00040E050E00E94A735CA01B9016B5E7F4FDE
:103900008F4F9F4F0E9426376093EA027093EB021D
:103910008093EC029093ED02DF91CF91FF90EF90B6
:10392000DF90CF90BF90AF909F908F907F906F90DF
:103930005F904F9008954A805B80712C612C20E04D
:1039400030E04CE853E4C501B4010E94773687FFAC
:103950001FC088809980B12CA12CA7019601285CFA
:10396000310941095109C301B201681979098A096C
:103970009B090E942D3A20E530E040E050E00E9493
:10398000A735CA01B901680D791D8A1D9B1DBACFE3
:103990002C813D8150E040E0241935094609570942
:1039A000C701B60168517140810991090E942D3A01
:1039B00020E530E040E050E00E94A735CA01B9019F
:1039C000640D751D861D971D9DCF8091B2028823C1
:1039D00031F08091C00086FFFCCF1092B2020895B2
:1039E00080917A00806980937A008EE480937C00D5
:1039F00061E070E080E090E00E9420160E94E51CEB
:103A000083B7817F826083BF80E130E020E093B79D
:103A1000916093BF889593B79E7F93BF90917A00F2
:103A200096FDFCCF4091780050917900240F351F0E
:103A3000815069F780917A008F7780937A0084E0D3
:103A4000369527958A95E1F750E040E064EB7BE2FC
:103A500081E190E00E94A735C901089580917A0024
:103A6000806980937A0088EC80937C006AE070E043
:103A700080E090E00E9420160E94E51C83B7817FC1
:103A8000826083BF80E270E060E093B7916093BF93
:103A9000889593B79E7F93BF90917A0096FDFCCF57
:103AA0002091780030917900620F731F815069F77F
:103AB00080917A008F7780937A00769567957695D6
:103AC000679562527A4090E080E00E94243726EFAA
:103AD00038E24CE151E40E947C36089590917A00DE
:103AE000906990937A008E50806480937C000E944D
:103AF000E51C83B7817F826083BF20E290E080E095
:103B000033B7316033BF889533B73E7F33BF3091D1
:103B10007A0036FDFCCF4091780050917900840FF7
:103B2000951F215069F720917A002F7720937A0012
:103B300025E0969587952A95E1F708958FE00E94F4
:103B40006E1DA091CF02B091D0029C010E94FB3566
:103B50000E94263728E539E743E353E40E947C3688
:103B60000E94F536CB0108959091C00095FF0CC0DE
:103B70009091C00090649093C00091E09093B20245
:103B80008093C60081E0089580E008950F931F930D
:103B9000CF93DF93FC018091F3029091F402892B83
:103BA000A1F4F093B102E093B00225E030E080E1AF
:103BB00097E2CAE0D0E02150310919F0E817F9077F
:103BC00058F19093F4028093F3020091F302109164
:103BD000F4028091B0029091B102B8010E943D3A86
:103BE000CB01CAE0D0E0BE010E943D3A805D0E9458
:103BF000B41D882361F0C801BE010E943D3A709354
:103C0000F4026093F30281E0672B09F080E0DF911A
:103C1000CF911F910F910895BE010E943D3ACB01B3
:103C2000CACFFC0101900020E9F73197AF01481B92
:103C3000590BBC018CE197E00C945E168F929F9219
:103C4000AF92BF920F931F93CF93DF93CDB7DEB7A1
:103C5000A1970FB6F894DEBF0FBECDBF19A24230B8
:103C600008F44AE08E010F5D1F4F842E912CB12C79
:103C7000A12CA50194010E94D935E62FB901CA01F2
:103C8000EA30F4F4E05DD801EE938D01232B242B70
:103C9000252B79F790E080E0109719F0CD010E9474
:103CA000111EA1960FB6F894DEBF0FBECDBFDF91F7
:103CB000CF911F910F91BF90AF909F908F900895DB
:103CC000E95CE1CF6F927F928F929F92AF92BF9209
:103CD000CF92DF92EF92FF920F931F93CF93DF93D8
:103CE000B090010377247394B11001C0712C8091BE
:103CF00042018150990B10921B0310921A03880FF6
:103D0000991F909319038093180381E090E090939A
:103D10001703809316038B2D90E0880F991F9093C3
:103D200015038093140386E00E940B1521E0892B74
:103D300009F020E02093D802FF24F39472E0972E3C
:103D4000E6E08E2EFCE0CF2ED12C0E945714C091BD
:103D50001403D0911503D595C795EC2E8E0111272C
:103D6000C801870D911D77FC9A958B199109712CCB
:103D700097FD06C08330910514F082E090E0782E24
:103D8000F0922D0710922C0790922E07109229077F
:103D90001092280710922B0710922A0784E19DE1C8
:103DA0000E943B1810922D07F0922C0710922907C1
:103DB00010922807A72C072C000CBB08C501019600
:103DC00054E0880F991F5A95E1F790932B07809341
:103DD0002A0782E19DE10E943B186C2E671890E053
:103DE00080E098012A193B095901209142018C0178
:103DF0000F5F1F4F6216D0F4D0922907C092280798
:103E0000980144E0220F331F4A95E1F730932B07C6
:103E100020932A078A0D9B1D889E9001899E300D54
:103E20001124C901815B9E4F0E94111EC801639439
:103E300003301105D1F60E945F180E94A71686E094
:103E40000E940B15892BB9F48091D802811113C0FF
:103E50000E940019E0920103DF91CF911F910F9111
:103E6000FF90EF90DF90CF90BF90AF909F908F909A
:103E70007F906F900895BC2E68CFCF92DF92EF9223
:103E8000FF92CF93DF9397FF19C06B017C018DE206
:103E90000E945618EC0166277727CB016C197D0923
:103EA0008E099F094AE00E941E1E8C0F9D1FDF9104
:103EB000CF91FF90EF90DF90CF9008954AE0DF918F
:103EC000CF91FF90EF90DF90CF900C941E1E4F92F9
:103ED0005F926F927F928F929F92AF92BF92CF929A
:103EE000DF92EF92FF920F931F93CF936B017C01B0
:103EF000742EAC019B010E94A038882399F081EABE
:103F000092E0CF911F910F91FF90EF90DF90CF90B3
:103F1000BF90AF909F908F907F906F905F904F90E9
:103F20000C94111E46015701E894B7F82FEF3FEFAC
:103F30004FE75FE7C501B4010E94A03881110DC0B1
:103F40002FEF3FEF4FE75FE7C501B4010E947736DF
:103F500018161CF485EA92E0D4CF2FEF3FEF4FE71D
:103F60005FE4C701B6010E94D63718161CF489EA2F
:103F700092E0C7CF2FEF3FEF4FE75FECC701B601ED
:103F80000E94773687FDF3CF20E030E0A901C7011A
:103F9000B6010E94773610E000E087FF08C08DE28E
:103FA0000E9456188C01F7FAF094F7F8F094C0E0EC
:103FB00060E070E080E09FE37C1641F020E030E0BC
:103FC00040E251E40E947C36CF5FF6CFA701960114
:103FD0000E940B362B013C010E94F5364B015C011F
:103FE0004AE00E941E1E7C01E00EF11ECC23B1F1BE
:103FF000C501B4010E9424379B01AC01C301B20189
:104000000E940A364B015C018EE20E945618E80EAF
:10401000F91EC15018F120E030E040E251E4C50142
:10402000B4010E94DB372B013C010E94F5364B01A5
:10403000B12CA12C4AE0C501B4010E941E1EE80E5D
:10404000F91EC501B4010E9424379B01AC01C301D4
:10405000B2010E940A364B015C01DBCFC701CF9150
:104060001F910F91FF90EF90DF90CF90BF90AF9096
:104070009F908F907F906F905F904F900895CF9218
:10408000DF92EF92FF920F931F93CF93DF93C82F8E
:1040900081E0DC2FD827D0932D07C0932C07809385
:1040A0002E070C2F2EE046E661E370E081E090E001
:1040B0000E9408172091090330910A03253F81E0EF
:1040C0003807B8F4A4E6B0E00E94FB3524EF31E0F5
:1040D00040E050E00E94A735BA01A9014E5F5F4F52
:1040E0006F4F7F4F2EE061E370E081E090E00E942F
:1040F0008C136091EF027091F0028091F102909127
:10410000F2020E94EE369B01AC01A4E6B0E00E94F0
:10411000C63534EFC32EDD24D394E12CF12CA70156
:1041200096010E94A735DA01C9010296A11DB11DB1
:1041300002970C2F2DE043E062E370E00E948C13A5
:104140006091EF027091F0028091F1029091F20281
:104150000E94EE369B01AC01A4E6B0E00E94C63599
:10416000A70196010E94A735DA01C9010296A11D97
:10417000B11D039724E045E06CE370E00E948C13CE
:104180006091EF027091F0028091F1029091F20241
:104190000E94EE369B01AC01A4E6B0E00E94C63559
:1041A000A70196010E94A73589019A010E5F1F4F52
:1041B0002F4F3F4F0150110941E3E42EF12C4D2FB9
:1041C000B701C8010E9445138FEFE81AF80A8DE382
:1041D000E816F104A1F76091EF027091F00280916E
:1041E000F1029091F2020E94EE369B01AC01A4E62E
:1041F000B0E00E94C63524EF31E040E050E00E947C
:10420000A735DA01C9010296A11DB11D0397ED2E54
:1042100004E025E047E552E16BE370E00E94AE1355
:104220000C2F2EE047E161E370E088E690E00E9409
:104230000817609102037091030380910403909129
:1042400005030E94EE369B01AC012F5F3109410945
:104250005109A7E1B0E00E94C635CC24C394DD2407
:10426000DA94ED2CFD2CA70196010E94A735422F70
:104270002EE061E370E088E690E00E948C13C0932A
:104280002D07D0932C0782E090E09093290780932C
:10429000280707E310E010932B0700932A0760918B
:1042A000EF027091F0028091F1029091F20240E0F1
:1042B0000E94671F88EF0E94561885E592E10E94D0
:1042C0003B1889E690E09093290780932807109384
:1042D0002B0700932A0760910203709103038091DA
:1042E0000403909105030E94EE369B01AC012F5F01
:1042F000310941095109A4E6B0E00E94C635A70181
:1043000096010E94A735CA01B9010E943D1F83E5AD
:1043100092E10E943B18D0932D07C0932C07DF91A8
:10432000CF911F910F91FF90EF90DF90CF90089564
:104330000E946B3A1F93CF93DF93EC01162F0E94DC
:104340009135181739F0612FCE01DF91CF911F9170
:104350000C949935DF91CF911F910895AF92BF9240
:10436000CF92DF92EF92FF920F931F93CF93DF9341
:104370006091470182E090E00E949A21609146019D
:1043800083E090E00E949A216091450184E090E0F2
:104390000E949A216091440185E090E00E949A2158
:1043A0006091430186E090E00E949A2160914B0168
:1043B00087E090E00E949A2160914A0188E090E0B5
:1043C0000E949A216091490189E090E00E949A211F
:1043D00060917F018AE090E00E949A2160914801FB
:1043E0008BE090E00E949A2160914D018CE090E07A
:1043F0000E949A21609101038DE090E00E949A2131
:10440000609142018EE090E00E949A2160914E01FD
:104410008FE090E00E949A216091D50280E190E0C7
:104420000E949A216091FE0281E190E00E949A210F
:104430006091D70282E190E00E949A216091D602B9
:1044400083E190E00E949A2184E1E82EF12C10E0B3
:1044500006E0809142011817B8F5109F6001112401
:10446000D0E0C0E0FE01EC0DFD1DE15BFE4F608180
:10447000C7018C0F9D1F0E949A212196C630D1053D
:1044800089F7670186E0C80ED11C88E0189FE0011B
:104490001124CE5FDE4F8EE0E80EF11C698122967A
:1044A000C6010E949A21560182E0A80EB11CFE01AD
:1044B00032976081C60101960E949A216501AE146F
:1044C000BF0461F71F5FC5CFDF91CF911F910F919F
:1044D000FF90EF90DF90CF90BF90AF9008958F92B4
:1044E0009F92AF92BF92CF92DF92EF92FF92CF93C3
:1044F0006FEF70E089E00E949E158BEA94E00197CF
:10450000F1F78EE00E946E1D7C018AE00E940B157F
:104510009091B302981729F091E09093EE02809366
:10452000B302809101019FEF980F909301018111D7
:1045300006C00E949E1D909300038093FF0260912D
:1045400002037091030380910403909105030E947C
:10455000EE3689E00E949E158090D1029090D202A2
:10456000A090D302B090D402B70190E080E00E9406
:104570002437A50194010E940A362DEC3CEC4CE452
:104580005DE30E94DB37A50194010E940B36609326
:10459000D1027093D2028093D3029093D4020E94EE
:1045A0003A1C6091090370910A0390E080E00E9438
:1045B00024376B017C012091EF023091F002409191
:1045C000F1025091F2020E9477368111B6C020911B
:1045D000EA023091EB024091EC025091ED02C701EA
:1045E000B6010E940A366B017C0120E030E0A9018F
:1045F0000E94D63718160CF096C020E030E040EA52
:1046000050E4C701B6010E94D63718160CF495C0C5
:104610006091E8027091E90290E080E00E94243706
:104620002091EA023091EB024091EC025091ED02B0
:104630000E940A366B017C0120E030E0A9010E9453
:10464000D63718160CF088C0C701B6010E94F5369F
:104650006530710508F084C080918001811105C02A
:1046600080914C0181110E94001981E080938001AA
:1046700010924C018091090390910A03853F21E03B
:10468000920710F01092000120910001211141C009
:10469000843F9140F0F56FEF70E089E00E949E1535
:1046A0000E940019C1E0C09300010E94621E0E9496
:1046B000AE21C093EE028EE00E946E1DBC0190E020
:1046C00080E00E9424376093D1027093D2028093DD
:1046D000D3029093D4021092E2028091E80290916A
:1046E000E9022CE231E030931B0320931A0320E20D
:1046F00033E030931903209318032AE030E030931D
:10470000170320931603880F991F90931503809326
:104710001403CF91FF90EF90DF90CF90BF90AF90B8
:104720009F908F90089520E030E040EA50ECC70160
:10473000B6010E94773687FF6BCF6091EA027091D5
:10474000EB028091EC029091ED020E94F53670939D
:104750000A03609309035CCFC701B601905876CF76
:104760001092800187CF0C9491352F923F924F92F7
:104770005F926F927F928F929F92AF92BF92CF92F1
:10478000DF92EF92FF920F931F93CF93DF938C01F1
:1047900086E080932E0781E080932D0710922C07EE
:1047A0006091C6027091C702072E000C880B990B0E
:1047B0000E9426372B013C0140ECC42E42E0D42E4F
:1047C0007601C2E0D0E05AE0A52EB12CBE010D2E3C
:1047D000000C880B990B0E9426379B01AC0160E00E
:1047E00070E080E291E40E9448389B01AC01C30173
:1047F000B2010E947C360E94EE36CB01B5010E94C8
:10480000513AF701819391937F012197F8F6109324
:10481000C7020093C602C4EBD2E094E0E92EF12C6B
:1048200022E0822E912C3AE0232E312CB401092C67
:10483000000C880B990B0E9426379B01AC0160E0AD
:1048400070E080E291E40E9448382B013C016091C5
:10485000C6027091C702072E000C880B990B0E94AC
:104860002637A30192010E947C360E94EE36CB01CE
:10487000B1010E94513AF60120813181821B930BD4
:10488000F2E3F89FB001F99F700D1124072E000C80
:10489000880B990B0E942637288139814A815B81D8
:1048A0000E940B362B013C0120E030E0A9010E9460
:1048B000773681117CC0488259826A827B8201E00E
:1048C00022E346E270E060E0C70104970E948C1387
:1048D0008EECA82EBB24BA940FEF1FEF28813981EC
:1048E0004A815B8160E070E080E890E40E940A36D3
:1048F0002B013C01B5010B2C000C880B990B0E947D
:1049000026379B01AC01C301B2010E940B360E9405
:10491000EE36F0922907E092280770932B076093F8
:104920002A07F60160817181600F711F072E000C4C
:10493000880B990B0E943D1F0F5F1F4FF2E3AF0ED4
:10494000B11C0230110551F6249621E0821A91081B
:1049500082E0C80ED11CECE2EE0EF11CF8E8EF1676
:10496000F10409F063CF00E022E040E870E060E08D
:1049700090E080E00E948C1320E140E860E370E06A
:1049800090E080E00E948C13DF91CF911F910F91F6
:10499000FF90EF90DF90CF90BF90AF909F908F905F
:1049A0007F906F905F904F903F902F900895C3013C
:1049B000B20190582DEC3CEC4CE45FE30E94DB37F5
:1049C000A30192010E940B36688379838A839B83BB
:1049D00076CF4F925F926F927F928F929F92AF921B
:1049E000BF92CF92DF92EF92FF920F931F93CF93DC
:1049F000DF93CDB7DEB72B970FB6F894DEBF0FBEAF
:104A0000CDBF90914E01E82FF0E09F01220F331FA0
:104A1000911126C0F901E55DFD4F40815181EE24E1
:104A2000E39400E124E260E370E080E390E00E9420
:104A3000AE132B960FB6F894DEBF0FBECDBFDF913D
:104A4000CF911F910F91FF90EF90DF90CF90BF908B
:104A5000AF909F908F907F906F905F904F90089550
:104A6000923009F079C0E356F34E4490F901E352D5
:104A7000FE4FA080B180F12CE12C04E310E393E021
:104A8000592E27E0622EE414A0F6F501EE0DFF1D6D
:104A9000449180E1840F833008F45CC081EF781684
:104AA000D1F082EF7816C1F1403F90F4193710F041
:104AB000085F10E088E0489FA0011124435E5A4E31
:104AC000602F70E028E0812F90E00E946A14185F48
:104AD00080EF782E1DC04E39D8F41D3710F0085FD6
:104AE00010E0C02ED12C812E912C459DA0011124C7
:104AF0004D5B5C4E23E0B601C4010E946A1421E0C4
:104B000042E453E1B601C40103960E946A141C5F9B
:104B10008FEFE81AF80AB7CF4132D0F7193710F003
:104B2000085F10E0C02ED12C812E912C469DA00153
:104B30001124455A5D4E27E0B601C4010E946A1453
:104B400021E042E453E1B601C40107960E946A14D1
:104B5000185FDECF742EDCCF80E390E090932907BE
:104B60008093280784E390E090932B0780932A0793
:104B700081E080932E07F901EC53F34E6591749117
:104B8000CE0101960E948A35CE0101960E94111E27
:104B900050CFCF93C82F86E00E940B1521E0892BC0
:104BA00009F020E02093D8020E945714809114034A
:104BB00090911503959587950E94B5238C2F0E949F
:104BC000E9240E94A7160E945F1886E00E940B1538
:104BD000892B51F78091D8028111E6CF0E940019EC
:104BE0008091C6029091C702CF91089510921B0345
:104BF00010921A0328E037E030931903209318032A
:104C000024E630E03093170320931603880F991F92
:104C1000909315038093140387E00E94C9259C019B
:104C2000220F331F30931B0320931A03865A9F4F82
:104C3000880F991F90931903809318038AE090E0DE
:104C40009093170380931603309315032093140356
:104C500087E00E94C9259C01220F331F30931B035C
:104C600020931A030996880F991F90931903809334
:104C7000180381E090E0909317038093160330931C
:104C800015032093140387E00C94C9252F923F92BB
:104C90004F925F926F927F928F929F92AF92BF924C
:104CA000CF92DF92EF92FF920F931F93CF93DF93F8
:104CB000182FE091D902F0E0EB57FE4F8081815030
:104CC000990B10921B0310921A03880F991F90934F
:104CD00019038093180381E090E090931703809369
:104CE0001603812F90E0880F991F909315038093EE
:104CF000140386E00E940B1521E0892B09F020E0C7
:104D00002093D80210922D0781E080932C0738E37E
:104D1000632EE0901403F0901503F594E794AE2C05
:104D20006701DD249601211B3109629EC001639E4B
:104D3000900D1124C80FD91F209709F166277727F6
:104D40006C1B7D0B072E000C880B990B0E942637DD
:104D50002AE939E949E15FE30E94DB371B012C01B5
:104D6000BE01DD0F880B990B0E9426379B01AC0119
:104D7000C201B1010E940B360E94EE36EB010E9487
:104D800057148601025011094E0185E0B82E93E0B8
:104D9000792E7A0CC090D902D12C17FD20C0F601D3
:104DA000EB57FE4F808180171106C9F0C4F0E5E88B
:104DB000F1E070E060E0CF01855891408C159D05D1
:104DC00034F48191680F711DF6CF1E2DA2CF872D6F
:104DD0008B19680FC401885491090E947118BA9404
:104DE0000F5F1F4F88E3880E911CB110D3CFE5E809
:104DF000F1E090E080E09F01255831402C153D0501
:104E000024F42191820F911DF6CF8E0D0E94E9248A
:104E10000E94A7160E945F1886E00E940B15892B3E
:104E2000A1F68091D8028111D0CF0E9400198A2D5D
:104E3000DF91CF911F910F91FF90EF90DF90CF9076
:104E4000BF90AF909F908F907F906F905F904F90AA
:104E50003F902F9008951F920F920FB60F9211243A
:104E60002F933F938F939F93AF93BF9380910C03A6
:104E700090910D03A0910E03B0910F0330910B039D
:104E800023E0230F2D3758F50196A11DB11D209366
:104E90000B0380930C0390930D03A0930E03B09328
:104EA0000F038091100390911103A0911203B09110
:104EB00013030196A11DB11D80931003909311035C
:104EC000A0931203B0931303BF91AF919F918F9161
:104ED0003F912F910F900FBE0F901F90189526E8CD
:104EE000230F0296A11DB11DD2CF1F920F920FB6B4
:104EF0000F9211242F933F934F935F936F937F9360
:104F00008F939F93EF93FF9383B1817029B1909119
:104F1000CE02981709F49DC030E0220F232F221FE4
:104F2000330B922F8093CE024091CD02241709F4C7
:104F300090C02093CD02209116033091170398174B
:104F400019F03195219531094091140350911503C1
:104F500060911A0370911B03240F351F2617370722
:104F60000CF48BC02091160330911703981719F099
:104F700031952195310940911403509115036091A9
:104F8000180370911903240F351F621773070CF46F
:104F90006FC04091160350911703981719F051955F
:104FA000419551092091140330911503240F351FA9
:104FB000309315032093140341E0981340E02091AF
:104FC000CC02421709F440C0209116033091170318
:104FD000981719F03195219531096091140370915A
:104FE0001503E0911A03F0911B03260F371F2E17AC
:104FF0003F070CF44CC0209116033091170398170B
:1050000019F03195219531096091140370911503C0
:10501000E0911803F0911903260F371FE217F307E9
:105020008CF12091160330911703981719F03195E0
:10503000219531098091140390911503820F931FDC
:1050400090931503809314034093CC0281E08093E6
:10505000EE02FF91EF919F918F917F916F915F9100
:105060004F913F912F910F900FBE0F901F90189569
:1050700020911803309119039BCF20911A0330918E
:105080001B0396CF8091180390911903D9CF80917B
:105090001A0390911B03D4CF1895CF93DF93CDB70C
:1050A000DEB72C970FB6F894DEBF0FBECDBF789455
:1050B00084B5826084BD84B5816084BD85B582601D
:1050C00085BD85B5816085BD80916E0081608093CE
:1050D0006E00109281008091810082608093810037
:1050E0008091810081608093810080918000816047
:1050F000809380008091B10084608093B1008091A2
:10510000B00081608093B00080917A0084608093C9
:105110007A0080917A00826080937A0080917A0090
:10512000816080937A0080917A00806880937A0011
:105130001092C1001092B90088E48093B8000E94D8
:105140009D1680E00E9493160FE112E28EE3E82E96
:1051500082E2F82EF80184910E9493160F5F1F4F90
:10516000E016F106B9F70E948B1611E01093B80013
:105170000E94A71681E28093240760E08EE00E94DF
:10518000621560E08FE00E94621561E085E00E9498
:10519000621561E089E00E94621562E087E00E948A
:1051A000621562E088E00E94621562E086E00E947B
:1051B000621562E08AE00E9462151092C50087E6DF
:1051C0008093C4001092C00088E08093C10086E004
:1051D0008093C2006FEF70E089E00E949E1560E04E
:1051E00085E00E94341580917A00876080937A0070
:1051F00080917A00886080937A00789410936B0095
:10520000109368001BBB90E080E00E94B323182F2E
:1052100081E090E00E94B323912F8F31984009F0F4
:10522000C9C082E090E00E94B323182F83E090E091
:105230000E94B323912F909347018093460184E00D
:1052400090E00E94B323182F85E090E00E94B323E2
:10525000912F909345018093440186E090E00E9455
:10526000B3238093430187E090E00E94B3238093AF
:105270004B0188E090E00E94B32380934A0189E0CB
:1052800090E00E94B323809349018AE090E00E945D
:10529000B32380937F018BE090E00E94B32391E0E1
:1052A000811101C090E0909348018CE090E00E9451
:1052B000B32391E0811101C090E090934D018DE006
:1052C00090E00E94B323809301038EE090E00E945F
:1052D000B323282E809342018FE090E00E94B323F5
:1052E00080934E0180E190E00E94B32391E0811110
:1052F00001C090E09093D50281E190E00E94B32339
:105300008093FE0282E190E00E94B323182F83E194
:1053100090E00E94B323912F9093D7028093D602FE
:10532000A2E08A2EA1E09A2EBFE4AB2EB1E0BB2E04
:1053300014E1E12EF12C312C231409F447C010E0C4
:1053400000E0C701800F911F0E94B323F501E00F19
:10535000F11F80830F5F1F4F0630110591F7670122
:1053600026E0C20ED11C3EE0E30EF11C3401C60162
:105370000E94B323082F10E0102F0027D3010D93B4
:105380001C932601B2E04B0E511CC60101960E94EF
:10539000B323082BF301019311933F0162014E14D3
:1053A0005F0429F73394F8E08F0E911C26E0A20EDB
:1053B000B11CC2CF68E090E080E00E949A216FE1CA
:1053C00081E090E00E949A210E94AE211091D502C6
:1053D00080EC111101C088EC0E94C41680EA111102
:1053E00001C081EA0E94C4161092FA0280E2809302
:1053F000FB0280E48093FC0280E68093FD028091B2
:10540000D6029091D702892B19F10E94571467E0B8
:1054100088E290E00E94711887E00E94E9240E94CF
:10542000A71668EE73E080E090E00E9420160E94CC
:1054300000190E9400190E94001990E080E00E946B
:10544000F6252091D6023091D70282179307E9F60C
:105450000E94F01C9093D0028093CF020E949E1D68
:10546000909300038093FF02009146011091470141
:105470001093E9020093E8028EE00E946E1DBC01C9
:1054800090E080E00E9424376093D1027093D202B2
:105490008093D3029093D4020E942E1D0E943A1C46
:1054A00020E030E040EA51E46091EA027091EB02C2
:1054B0008091EC029091ED020E940B366B017C0111
:1054C000B80190E080E00E9424379B01AC01C70145
:1054D000B6010E94773687FF05C070E060E089E082
:1054E0000E949E1510926207109263071092640743
:1054F00010926507412C512CEFE76E2EE3E47E2ECF
:105500004092660750926707609268077092690739
:10551000A0904E07B0904F0780916A07D501CD90BB
:10552000DD90ED90FC90882311F40C942F34A301AE
:105530009201C701B6010E94D637181634F5F5015D
:105540004082518262827382809056079090570702
:10555000A0905807B0905907C0906607D090670791
:10556000E0906807F0906907A7019601C501B401B2
:105570000E94D6371816CCF4C0925607D09257071F
:10558000E0925807F092590720C020E030E0A901CE
:10559000C701B6010E94773687FFD6CFD5011D928D
:1055A0001D921D921C921397CFCFC0906207D0908E
:1055B0006307E0906407F0906507A7019601C501B5
:1055C000B4010E94773687FDD7CF81E080936A07C8
:1055D00083B181708093CE0289B190E0880F892FCA
:1055E000881F990B8093CD022091CE029091CD021D
:1055F00081E0291380E08093CC028CE291E09093CB
:105600001B0380931A0380E293E090931903809325
:1056100018038AE090E09093170380931603000F1D
:10562000111F10931503009314030E9452166093E8
:10563000E4027093E5028093E6029093E7020E94F1
:1056400000190E9400192090140330901503610185
:10565000D594C794DA86C986D092E902C092E8024E
:1056600086E00E940B15482E8111A0C08091E202B5
:10567000882309F49BC00E9400190E9452166B01F6
:105680007C01C092DE02D092DF02E092E002F09252
:10569000E10286E00E940B15892B59F40E945216F4
:1056A0006C197D098E099F09643F71408105910540
:1056B00080F30E9452166C197D098E099F09643F80
:1056C00071408105910508F496C46FEF70E089E0A0
:1056D0000E949E150E940019512C4AE0642E712CE4
:1056E0001092D902852D0E944626582E49E048176F
:1056F00008F439C0E82FF0E0E058F44D0C94653A16
:105700009C2B6F2EE92E562F642F952FA32FC62F7B
:10571000D12FDB2F20E030E0A901C701B6010E94A4
:10572000773687FF52CF1092560710925707109284
:1057300058071092590749CF36E0F32E81E0809345
:10574000D902852D0E944626582E52E0851709F46D
:105750005FC2581708F40EC1882309F439C161E00B
:10576000861709F438C10E94AE2181E08093EE02D1
:10577000C984DA84D092E902C092E8028CE291E016
:1057800090931B0380931A0380E293E09093190394
:10579000809318038AE090E0909317038093160398
:1057A000C1018E7F90931503809314034092E2020F
:1057B00080910603882309F1109149011123E9F032
:1057C0000E945216C090DA02D090DB02E090DC0218
:1057D000F090DD026C197D098E099F0928EE33E0F7
:1057E00040E050E00E94D935211738F010920603AE
:1057F0000E94001981E080934C018091EE02882381
:10580000F1F180910703882351F120E030E040EA74
:1058100051E46091EA027091EB028091EC02909168
:10582000ED020E940B366B017C016091E8027091E1
:10583000E90290E080E00E9424379B01AC01C7019F
:10584000B6010E94773687FF05C070E060E089E00E
:105850000E949E150E94001981E080934C011092D5
:10586000EE0210920703109208030E9452166093F2
:10587000E4027093E5028093E6029093E7020E94AF
:1058800052160091E4021091E5022091E602309157
:10589000E702601B710B820B930B20E63AEE40E0AF
:1058A00050E00E94D935122F2093E3028091070324
:1058B00081110BC080914B01882339F0281728F003
:1058C00081E0809307030E940019809108038111F1
:1058D0000BC080914A01882339F0181728F081E025
:1058E000809308030E9400190E946F220E940D1AE3
:1058F0008091F902811127C00E9452160091F50291
:105900001091F6022091F7023091F8026B017C01B0
:10591000C01AD10AE20AF30A97018601083E134031
:105920002105310508F495C36093F5027093F602E2
:105930008093F7029093F80281E08093F90210922D
:10594000F4021092F3021091F902EFEFE10FEB3045
:1059500008F07FC3F0E0E155F34D0C94653A113047
:105960001A3021304130213055302130793021300A
:10597000B730F23083E0581609F44DC194E0591263
:10598000F2CE80914201883008F0D8CE91E0980F95
:1059900090934201809301030E941E19E09101033C
:1059A000B8E0EB9FF0011124EE5FFE4F48EDC42EEE
:1059B000D12CD182C08224E331E03383228346E8B4
:1059C00051E0558344838EE190E097838683B6CE81
:1059D0000E94621EB3CE8E010F5F1F4F612C712C8F
:1059E0004301639498EEC92E93E0D92EAA24A39480
:1059F000B12CEE24E394E0910103A4E0EA9FF001CE
:105A00001124C3010197E80FF91FEE0FFF1FEE5F8E
:105A1000FE4F808191819093E9028093E802E8EC47
:105A2000F0E0F0931B03E0931A03D0921903C092A5
:105A30001803B0921703A0921603880F991F909332
:105A4000150380931403E0924C0186E00E940B152D
:105A500021E0892B09F020E02093D8020E945714FE
:105A6000F2E0F0932E070E946F220E940D1A10920E
:105A700029071092280710922B0710922A0784E614
:105A800092E20E943B18C401B3010E943D1F8DEABF
:105A900092E00E94111E80918001109229071092BD
:105AA0002807882309F48CC020E130E030932B07CD
:105AB00020932A0787E592E20E943B18109229075B
:105AC0001092280740E250E050932B0740932A079A
:105AD00080E592E20E943B186091140370911503D7
